{
  "address": "0x1c0A264f5ae6cfC37E8695442fB139efD884Ca48",
  "abi": [
    {
      "inputs": [],
      "stateMutability": "nonpayable",
      "type": "constructor"
    },
    {
      "inputs": [
        {
          "internalType": "address",
          "name": "user",
          "type": "address"
        },
        {
          "internalType": "address",
          "name": "provider",
          "type": "address"
        }
      ],
      "name": "AccountExists",
      "type": "error"
    },
    {
      "inputs": [
        {
          "internalType": "address",
          "name": "user",
          "type": "address"
        },
        {
          "internalType": "address",
          "name": "provider",
          "type": "address"
        }
      ],
      "name": "AccountNotExists",
      "type": "error"
    },
    {
      "inputs": [],
      "name": "AdditionalInfoTooLong",
      "type": "error"
    },
    {
      "inputs": [],
      "name": "AlreadyInitialized",
      "type": "error"
    },
    {
      "inputs": [
        {
          "internalType": "uint256",
          "name": "size",
          "type": "uint256"
        },
        {
          "internalType": "uint256",
          "name": "max",
          "type": "uint256"
        }
      ],
      "name": "BatchSizeTooLarge",
      "type": "error"
    },
    {
      "inputs": [
        {
          "internalType": "address",
          "name": "caller",
          "type": "address"
        }
      ],
      "name": "CallerNotLedger",
      "type": "error"
    },
    {
      "inputs": [],
      "name": "CannotAddStakeWhenUpdating",
      "type": "error"
    },
    {
      "inputs": [
        {
          "internalType": "address",
          "name": "user",
          "type": "address"
        },
        {
          "internalType": "address",
          "name": "provider",
          "type": "address"
        },
        {
          "internalType": "uint256",
          "name": "balance",
          "type": "uint256"
        }
      ],
      "name": "CannotRevokeWithNonZeroBalance",
      "type": "error"
    },
    {
      "inputs": [],
      "name": "DirectDepositsDisabled",
      "type": "error"
    },
    {
      "inputs": [
        {
          "internalType": "uint256",
          "name": "provided",
          "type": "uint256"
        },
        {
          "internalType": "uint256",
          "name": "required",
          "type": "uint256"
        }
      ],
      "name": "InsufficientStake",
      "type": "error"
    },
    {
      "inputs": [
        {
          "internalType": "address",
          "name": "addr",
          "type": "address"
        }
      ],
      "name": "InvalidAddress",
      "type": "error"
    },
    {
      "inputs": [
        {
          "internalType": "string",
          "name": "reason",
          "type": "string"
        }
      ],
      "name": "InvalidTEESignature",
      "type": "error"
    },
    {
      "inputs": [
        {
          "internalType": "uint256",
          "name": "limit",
          "type": "uint256"
        },
        {
          "internalType": "uint256",
          "name": "max",
          "type": "uint256"
        }
      ],
      "name": "LimitTooLarge",
      "type": "error"
    },
    {
      "inputs": [
        {
          "internalType": "uint256",
          "name": "lockTime",
          "type": "uint256"
        },
        {
          "internalType": "uint256",
          "name": "min",
          "type": "uint256"
        },
        {
          "internalType": "uint256",
          "name": "max",
          "type": "uint256"
        }
      ],
      "name": "LockTimeOutOfRange",
      "type": "error"
    },
    {
      "inputs": [],
      "name": "NoSettlementsProvided",
      "type": "error"
    },
    {
      "inputs": [],
      "name": "ProviderCannotBeUser",
      "type": "error"
    },
    {
      "inputs": [
        {
          "internalType": "address",
          "name": "provider",
          "type": "address"
        }
      ],
      "name": "ServiceNotExist",
      "type": "error"
    },
    {
      "inputs": [
        {
          "internalType": "address",
          "name": "user",
          "type": "address"
        },
        {
          "internalType": "address",
          "name": "provider",
          "type": "address"
        }
      ],
      "name": "TooManyRefunds",
      "type": "error"
    },
    {
      "inputs": [
        {
          "internalType": "uint256",
          "name": "count",
          "type": "uint256"
        },
        {
          "internalType": "uint256",
          "name": "max",
          "type": "uint256"
        }
      ],
      "name": "TooManySettlements",
      "type": "error"
    },
    {
      "inputs": [],
      "name": "TransferFailed",
      "type": "error"
    },
    {
      "anonymous": false,
      "inputs": [
        {
          "indexed": true,
          "internalType": "address",
          "name": "user",
          "type": "address"
        },
        {
          "indexed": true,
          "internalType": "address",
          "name": "provider",
          "type": "address"
        },
        {
          "indexed": false,
          "internalType": "uint256",
          "name": "refundedAmount",
          "type": "uint256"
        }
      ],
      "name": "AccountDeleted",
      "type": "event"
    },
    {
      "anonymous": false,
      "inputs": [
        {
          "indexed": true,
          "internalType": "address",
          "name": "user",
          "type": "address"
        },
        {
          "indexed": true,
          "internalType": "address",
          "name": "provider",
          "type": "address"
        },
        {
          "indexed": false,
          "internalType": "uint256",
          "name": "newGeneration",
          "type": "uint256"
        }
      ],
      "name": "AllTokensRevoked",
      "type": "event"
    },
    {
      "anonymous": false,
      "inputs": [
        {
          "indexed": true,
          "internalType": "address",
          "name": "user",
          "type": "address"
        },
        {
          "indexed": true,
          "internalType": "address",
          "name": "provider",
          "type": "address"
        },
        {
          "indexed": false,
          "internalType": "uint256",
          "name": "amount",
          "type": "uint256"
        },
        {
          "indexed": false,
          "internalType": "uint256",
          "name": "pendingRefund",
          "type": "uint256"
        }
      ],
      "name": "BalanceUpdated",
      "type": "event"
    },
    {
      "anonymous": false,
      "inputs": [
        {
          "indexed": false,
          "internalType": "address[]",
          "name": "users",
          "type": "address[]"
        },
        {
          "indexed": false,
          "internalType": "uint256[]",
          "name": "balances",
          "type": "uint256[]"
        },
        {
          "indexed": false,
          "internalType": "uint256[]",
          "name": "pendingRefunds",
          "type": "uint256[]"
        }
      ],
      "name": "BatchBalanceUpdated",
      "type": "event"
    },
    {
      "anonymous": false,
      "inputs": [
        {
          "indexed": true,
          "internalType": "address",
          "name": "owner",
          "type": "address"
        },
        {
          "indexed": false,
          "internalType": "uint256",
          "name": "lockTime",
          "type": "uint256"
        },
        {
          "indexed": false,
          "internalType": "address",
          "name": "ledgerAddress",
          "type": "address"
        }
      ],
      "name": "ContractInitialized",
      "type": "event"
    },
    {
      "anonymous": false,
      "inputs": [
        {
          "indexed": false,
          "internalType": "uint8",
          "name": "version",
          "type": "uint8"
        }
      ],
      "name": "Initialized",
      "type": "event"
    },
    {
      "anonymous": false,
      "inputs": [
        {
          "indexed": false,
          "internalType": "uint256",
          "name": "oldLockTime",
          "type": "uint256"
        },
        {
          "indexed": false,
          "internalType": "uint256",
          "name": "newLockTime",
          "type": "uint256"
        }
      ],
      "name": "LockTimeUpdated",
      "type": "event"
    },
    {
      "anonymous": false,
      "inputs": [
        {
          "indexed": true,
          "internalType": "address",
          "name": "previousOwner",
          "type": "address"
        },
        {
          "indexed": true,
          "internalType": "address",
          "name": "newOwner",
          "type": "address"
        }
      ],
      "name": "OwnershipTransferred",
      "type": "event"
    },
    {
      "anonymous": false,
      "inputs": [
        {
          "indexed": true,
          "internalType": "address",
          "name": "provider",
          "type": "address"
        },
        {
          "indexed": false,
          "internalType": "uint256",
          "name": "amount",
          "type": "uint256"
        }
      ],
      "name": "ProviderStakeReturned",
      "type": "event"
    },
    {
      "anonymous": false,
      "inputs": [
        {
          "indexed": true,
          "internalType": "address",
          "name": "provider",
          "type": "address"
        },
        {
          "indexed": false,
          "internalType": "uint256",
          "name": "amount",
          "type": "uint256"
        }
      ],
      "name": "ProviderStaked",
      "type": "event"
    },
    {
      "anonymous": false,
      "inputs": [
        {
          "indexed": true,
          "internalType": "address",
          "name": "provider",
          "type": "address"
        },
        {
          "indexed": true,
          "internalType": "address",
          "name": "teeSignerAddress",
          "type": "address"
        },
        {
          "indexed": false,
          "internalType": "bool",
          "name": "acknowledged",
          "type": "bool"
        }
      ],
      "name": "ProviderTEESignerAcknowledged",
      "type": "event"
    },
    {
      "anonymous": false,
      "inputs": [
        {
          "indexed": true,
          "internalType": "address",
          "name": "user",
          "type": "address"
        },
        {
          "indexed": true,
          "internalType": "address",
          "name": "provider",
          "type": "address"
        },
        {
          "indexed": true,
          "internalType": "uint256",
          "name": "index",
          "type": "uint256"
        },
        {
          "indexed": false,
          "internalType": "uint256",
          "name": "timestamp",
          "type": "uint256"
        }
      ],
      "name": "RefundRequested",
      "type": "event"
    },
    {
      "anonymous": false,
      "inputs": [
        {
          "indexed": true,
          "internalType": "address",
          "name": "service",
          "type": "address"
        }
      ],
      "name": "ServiceRemoved",
      "type": "event"
    },
    {
      "anonymous": false,
      "inputs": [
        {
          "indexed": true,
          "internalType": "address",
          "name": "service",
          "type": "address"
        },
        {
          "indexed": false,
          "internalType": "string",
          "name": "serviceType",
          "type": "string"
        },
        {
          "indexed": false,
          "internalType": "string",
          "name": "url",
          "type": "string"
        },
        {
          "indexed": false,
          "internalType": "uint256",
          "name": "inputPrice",
          "type": "uint256"
        },
        {
          "indexed": false,
          "internalType": "uint256",
          "name": "outputPrice",
          "type": "uint256"
        },
        {
          "indexed": false,
          "internalType": "uint256",
          "name": "updatedAt",
          "type": "uint256"
        },
        {
          "indexed": false,
          "internalType": "string",
          "name": "model",
          "type": "string"
        },
        {
          "indexed": false,
          "internalType": "string",
          "name": "verifiability",
          "type": "string"
        }
      ],
      "name": "ServiceUpdated",
      "type": "event"
    },
    {
      "anonymous": false,
      "inputs": [
        {
          "indexed": true,
          "internalType": "address",
          "name": "user",
          "type": "address"
        },
        {
          "indexed": false,
          "internalType": "enum SettlementStatus",
          "name": "status",
          "type": "uint8"
        },
        {
          "indexed": false,
          "internalType": "uint256",
          "name": "unsettledAmount",
          "type": "uint256"
        }
      ],
      "name": "TEESettlementResult",
      "type": "event"
    },
    {
      "anonymous": false,
      "inputs": [
        {
          "indexed": true,
          "internalType": "address",
          "name": "user",
          "type": "address"
        },
        {
          "indexed": true,
          "internalType": "address",
          "name": "provider",
          "type": "address"
        },
        {
          "indexed": false,
          "internalType": "uint8",
          "name": "tokenId",
          "type": "uint8"
        }
      ],
      "name": "TokenRevoked",
      "type": "event"
    },
    {
      "anonymous": false,
      "inputs": [
        {
          "indexed": true,
          "internalType": "address",
          "name": "user",
          "type": "address"
        },
        {
          "indexed": true,
          "internalType": "address",
          "name": "provider",
          "type": "address"
        },
        {
          "indexed": false,
          "internalType": "uint8[]",
          "name": "tokenIds",
          "type": "uint8[]"
        }
      ],
      "name": "TokensRevoked",
      "type": "event"
    },
    {
      "inputs": [],
      "name": "MAX_LOCKTIME",
      "outputs": [
        {
          "internalType": "uint256",
          "name": "",
          "type": "uint256"
        }
      ],
      "stateMutability": "view",
      "type": "function"
    },
    {
      "inputs": [],
      "name": "MIN_LOCKTIME",
      "outputs": [
        {
          "internalType": "uint256",
          "name": "",
          "type": "uint256"
        }
      ],
      "stateMutability": "view",
      "type": "function"
    },
    {
      "inputs": [],
      "name": "MIN_PROVIDER_STAKE",
      "outputs": [
        {
          "internalType": "uint256",
          "name": "",
          "type": "uint256"
        }
      ],
      "stateMutability": "view",
      "type": "function"
    },
    {
      "inputs": [
        {
          "internalType": "address",
          "name": "user",
          "type": "address"
        },
        {
          "internalType": "address",
          "name": "provider",
          "type": "address"
        }
      ],
      "name": "accountExists",
      "outputs": [
        {
          "internalType": "bool",
          "name": "",
          "type": "bool"
        }
      ],
      "stateMutability": "view",
      "type": "function"
    },
    {
      "inputs": [
        {
          "internalType": "address",
          "name": "provider",
          "type": "address"
        },
        {
          "internalType": "bool",
          "name": "acknowledged",
          "type": "bool"
        }
      ],
      "name": "acknowledgeTEESigner",
      "outputs": [],
      "stateMutability": "nonpayable",
      "type": "function"
    },
    {
      "inputs": [
        {
          "internalType": "address",
          "name": "provider",
          "type": "address"
        }
      ],
      "name": "acknowledgeTEESignerByOwner",
      "outputs": [],
      "stateMutability": "nonpayable",
      "type": "function"
    },
    {
      "inputs": [
        {
          "internalType": "address",
          "name": "user",
          "type": "address"
        },
        {
          "internalType": "address",
          "name": "provider",
          "type": "address"
        },
        {
          "internalType": "string",
          "name": "additionalInfo",
          "type": "string"
        }
      ],
      "name": "addAccount",
      "outputs": [],
      "stateMutability": "payable",
      "type": "function"
    },
    {
      "inputs": [
        {
          "components": [
            {
              "internalType": "string",
              "name": "serviceType",
              "type": "string"
            },
            {
              "internalType": "string",
              "name": "url",
              "type": "string"
            },
            {
              "internalType": "string",
              "name": "model",
              "type": "string"
            },
            {
              "internalType": "string",
              "name": "verifiability",
              "type": "string"
            },
            {
              "internalType": "uint256",
              "name": "inputPrice",
              "type": "uint256"
            },
            {
              "internalType": "uint256",
              "name": "outputPrice",
              "type": "uint256"
            },
            {
              "internalType": "string",
              "name": "additionalInfo",
              "type": "string"
            },
            {
              "internalType": "address",
              "name": "teeSignerAddress",
              "type": "address"
            }
          ],
          "internalType": "struct ServiceParams",
          "name": "params",
          "type": "tuple"
        }
      ],
      "name": "addOrUpdateService",
      "outputs": [],
      "stateMutability": "payable",
      "type": "function"
    },
    {
      "inputs": [
        {
          "internalType": "address",
          "name": "user",
          "type": "address"
        },
        {
          "internalType": "address",
          "name": "provider",
          "type": "address"
        }
      ],
      "name": "deleteAccount",
      "outputs": [],
      "stateMutability": "nonpayable",
      "type": "function"
    },
    {
      "inputs": [
        {
          "internalType": "address",
          "name": "user",
          "type": "address"
        },
        {
          "internalType": "address",
          "name": "provider",
          "type": "address"
        },
        {
          "internalType": "uint256",
          "name": "cancelRetrievingAmount",
          "type": "uint256"
        }
      ],
      "name": "depositFund",
      "outputs": [],
      "stateMutability": "payable",
      "type": "function"
    },
    {
      "inputs": [
        {
          "internalType": "address",
          "name": "user",
          "type": "address"
        },
        {
          "internalType": "address",
          "name": "provider",
          "type": "address"
        }
      ],
      "name": "getAccount",
      "outputs": [
        {
          "components": [
            {
              "internalType": "address",
              "name": "user",
              "type": "address"
            },
            {
              "internalType": "address",
              "name": "provider",
              "type": "address"
            },
            {
              "internalType": "uint256",
              "name": "nonce",
              "type": "uint256"
            },
            {
              "internalType": "uint256",
              "name": "balance",
              "type": "uint256"
            },
            {
              "internalType": "uint256",
              "name": "pendingRefund",
              "type": "uint256"
            },
            {
              "components": [
                {
                  "internalType": "uint256",
                  "name": "index",
                  "type": "uint256"
                },
                {
                  "internalType": "uint256",
                  "name": "amount",
                  "type": "uint256"
                },
                {
                  "internalType": "uint256",
                  "name": "createdAt",
                  "type": "uint256"
                },
                {
                  "internalType": "bool",
                  "name": "processed",
                  "type": "bool"
                }
              ],
              "internalType": "struct Refund[]",
              "name": "refunds",
              "type": "tuple[]"
            },
            {
              "internalType": "string",
              "name": "additionalInfo",
              "type": "string"
            },
            {
              "internalType": "bool",
              "name": "acknowledged",
              "type": "bool"
            },
            {
              "internalType": "uint256",
              "name": "validRefundsLength",
              "type": "uint256"
            },
            {
              "internalType": "uint256",
              "name": "generation",
              "type": "uint256"
            },
            {
              "internalType": "uint256",
              "name": "revokedBitmap",
              "type": "uint256"
            }
          ],
          "internalType": "struct Account",
          "name": "",
          "type": "tuple"
        }
      ],
      "stateMutability": "view",
      "type": "function"
    },
    {
      "inputs": [
        {
          "internalType": "address",
          "name": "provider",
          "type": "address"
        },
        {
          "internalType": "uint256",
          "name": "offset",
          "type": "uint256"
        },
        {
          "internalType": "uint256",
          "name": "limit",
          "type": "uint256"
        }
      ],
      "name": "getAccountsByProvider",
      "outputs": [
        {
          "components": [
            {
              "internalType": "address",
              "name": "user",
              "type": "address"
            },
            {
              "internalType": "address",
              "name": "provider",
              "type": "address"
            },
            {
              "internalType": "uint256",
              "name": "nonce",
              "type": "uint256"
            },
            {
              "internalType": "uint256",
              "name": "balance",
              "type": "uint256"
            },
            {
              "internalType": "uint256",
              "name": "pendingRefund",
              "type": "uint256"
            },
            {
              "components": [
                {
                  "internalType": "uint256",
                  "name": "index",
                  "type": "uint256"
                },
                {
                  "internalType": "uint256",
                  "name": "amount",
                  "type": "uint256"
                },
                {
                  "internalType": "uint256",
                  "name": "createdAt",
                  "type": "uint256"
                },
                {
                  "internalType": "bool",
                  "name": "processed",
                  "type": "bool"
                }
              ],
              "internalType": "struct Refund[]",
              "name": "refunds",
              "type": "tuple[]"
            },
            {
              "internalType": "string",
              "name": "additionalInfo",
              "type": "string"
            },
            {
              "internalType": "bool",
              "name": "acknowledged",
              "type": "bool"
            },
            {
              "internalType": "uint256",
              "name": "validRefundsLength",
              "type": "uint256"
            },
            {
              "internalType": "uint256",
              "name": "generation",
              "type": "uint256"
            },
            {
              "internalType": "uint256",
              "name": "revokedBitmap",
              "type": "uint256"
            }
          ],
          "internalType": "struct Account[]",
          "name": "accounts",
          "type": "tuple[]"
        },
        {
          "internalType": "uint256",
          "name": "total",
          "type": "uint256"
        }
      ],
      "stateMutability": "view",
      "type": "function"
    },
    {
      "inputs": [
        {
          "internalType": "address",
          "name": "user",
          "type": "address"
        },
        {
          "internalType": "uint256",
          "name": "offset",
          "type": "uint256"
        },
        {
          "internalType": "uint256",
          "name": "limit",
          "type": "uint256"
        }
      ],
      "name": "getAccountsByUser",
      "outputs": [
        {
          "components": [
            {
              "internalType": "address",
              "name": "user",
              "type": "address"
            },
            {
              "internalType": "address",
              "name": "provider",
              "type": "address"
            },
            {
              "internalType": "uint256",
              "name": "nonce",
              "type": "uint256"
            },
            {
              "internalType": "uint256",
              "name": "balance",
              "type": "uint256"
            },
            {
              "internalType": "uint256",
              "name": "pendingRefund",
              "type": "uint256"
            },
            {
              "components": [
                {
                  "internalType": "uint256",
                  "name": "index",
                  "type": "uint256"
                },
                {
                  "internalType": "uint256",
                  "name": "amount",
                  "type": "uint256"
                },
                {
                  "internalType": "uint256",
                  "name": "createdAt",
                  "type": "uint256"
                },
                {
                  "internalType": "bool",
                  "name": "processed",
                  "type": "bool"
                }
              ],
              "internalType": "struct Refund[]",
              "name": "refunds",
              "type": "tuple[]"
            },
            {
              "internalType": "string",
              "name": "additionalInfo",
              "type": "string"
            },
            {
              "internalType": "bool",
              "name": "acknowledged",
              "type": "bool"
            },
            {
              "internalType": "uint256",
              "name": "validRefundsLength",
              "type": "uint256"
            },
            {
              "internalType": "uint256",
              "name": "generation",
              "type": "uint256"
            },
            {
              "internalType": "uint256",
              "name": "revokedBitmap",
              "type": "uint256"
            }
          ],
          "internalType": "struct Account[]",
          "name": "accounts",
          "type": "tuple[]"
        },
        {
          "internalType": "uint256",
          "name": "total",
          "type": "uint256"
        }
      ],
      "stateMutability": "view",
      "type": "function"
    },
    {
      "inputs": [
        {
          "internalType": "uint256",
          "name": "offset",
          "type": "uint256"
        },
        {
          "internalType": "uint256",
          "name": "limit",
          "type": "uint256"
        }
      ],
      "name": "getAllAccounts",
      "outputs": [
        {
          "components": [
            {
              "internalType": "address",
              "name": "user",
              "type": "address"
            },
            {
              "internalType": "address",
              "name": "provider",
              "type": "address"
            },
            {
              "internalType": "uint256",
              "name": "nonce",
              "type": "uint256"
            },
            {
              "internalType": "uint256",
              "name": "balance",
              "type": "uint256"
            },
            {
              "internalType": "uint256",
              "name": "pendingRefund",
              "type": "uint256"
            },
            {
              "components": [
                {
                  "internalType": "uint256",
                  "name": "index",
                  "type": "uint256"
                },
                {
                  "internalType": "uint256",
                  "name": "amount",
                  "type": "uint256"
                },
                {
                  "internalType": "uint256",
                  "name": "createdAt",
                  "type": "uint256"
                },
                {
                  "internalType": "bool",
                  "name": "processed",
                  "type": "bool"
                }
              ],
              "internalType": "struct Refund[]",
              "name": "refunds",
              "type": "tuple[]"
            },
            {
              "internalType": "string",
              "name": "additionalInfo",
              "type": "string"
            },
            {
              "internalType": "bool",
              "name": "acknowledged",
              "type": "bool"
            },
            {
              "internalType": "uint256",
              "name": "validRefundsLength",
              "type": "uint256"
            },
            {
              "internalType": "uint256",
              "name": "generation",
              "type": "uint256"
            },
            {
              "internalType": "uint256",
              "name": "revokedBitmap",
              "type": "uint256"
            }
          ],
          "internalType": "struct Account[]",
          "name": "accounts",
          "type": "tuple[]"
        },
        {
          "internalType": "uint256",
          "name": "total",
          "type": "uint256"
        }
      ],
      "stateMutability": "view",
      "type": "function"
    },
    {
      "inputs": [
        {
          "internalType": "uint256",
          "name": "offset",
          "type": "uint256"
        },
        {
          "internalType": "uint256",
          "name": "limit",
          "type": "uint256"
        }
      ],
      "name": "getAllServices",
      "outputs": [
        {
          "components": [
            {
              "internalType": "address",
              "name": "provider",
              "type": "address"
            },
            {
              "internalType": "string",
              "name": "serviceType",
              "type": "string"
            },
            {
              "internalType": "string",
              "name": "url",
              "type": "string"
            },
            {
              "internalType": "uint256",
              "name": "inputPrice",
              "type": "uint256"
            },
            {
              "internalType": "uint256",
              "name": "outputPrice",
              "type": "uint256"
            },
            {
              "internalType": "uint256",
              "name": "updatedAt",
              "type": "uint256"
            },
            {
              "internalType": "string",
              "name": "model",
              "type": "string"
            },
            {
              "internalType": "string",
              "name": "verifiability",
              "type": "string"
            },
            {
              "internalType": "string",
              "name": "additionalInfo",
              "type": "string"
            },
            {
              "internalType": "address",
              "name": "teeSignerAddress",
              "type": "address"
            },
            {
              "internalType": "bool",
              "name": "teeSignerAcknowledged",
              "type": "bool"
            }
          ],
          "internalType": "struct Service[]",
          "name": "services",
          "type": "tuple[]"
        },
        {
          "internalType": "uint256",
          "name": "total",
          "type": "uint256"
        }
      ],
      "stateMutability": "view",
      "type": "function"
    },
    {
      "inputs": [
        {
          "internalType": "address[]",
          "name": "users",
          "type": "address[]"
        }
      ],
      "name": "getBatchAccountsByUsers",
      "outputs": [
        {
          "components": [
            {
              "internalType": "address",
              "name": "user",
              "type": "address"
            },
            {
              "internalType": "address",
              "name": "provider",
              "type": "address"
            },
            {
              "internalType": "uint256",
              "name": "nonce",
              "type": "uint256"
            },
            {
              "internalType": "uint256",
              "name": "balance",
              "type": "uint256"
            },
            {
              "internalType": "uint256",
              "name": "pendingRefund",
              "type": "uint256"
            },
            {
              "components": [
                {
                  "internalType": "uint256",
                  "name": "index",
                  "type": "uint256"
                },
                {
                  "internalType": "uint256",
                  "name": "amount",
                  "type": "uint256"
                },
                {
                  "internalType": "uint256",
                  "name": "createdAt",
                  "type": "uint256"
                },
                {
                  "internalType": "bool",
                  "name": "processed",
                  "type": "bool"
                }
              ],
              "internalType": "struct Refund[]",
              "name": "refunds",
              "type": "tuple[]"
            },
            {
              "internalType": "string",
              "name": "additionalInfo",
              "type": "string"
            },
            {
              "internalType": "bool",
              "name": "acknowledged",
              "type": "bool"
            },
            {
              "internalType": "uint256",
              "name": "validRefundsLength",
              "type": "uint256"
            },
            {
              "internalType": "uint256",
              "name": "generation",
              "type": "uint256"
            },
            {
              "internalType": "uint256",
              "name": "revokedBitmap",
              "type": "uint256"
            }
          ],
          "internalType": "struct Account[]",
          "name": "accounts",
          "type": "tuple[]"
        }
      ],
      "stateMutability": "view",
      "type": "function"
    },
    {
      "inputs": [
        {
          "internalType": "address",
          "name": "user",
          "type": "address"
        },
        {
          "internalType": "address",
          "name": "provider",
          "type": "address"
        }
      ],
      "name": "getPendingRefund",
      "outputs": [
        {
          "internalType": "uint256",
          "name": "",
          "type": "uint256"
        }
      ],
      "stateMutability": "view",
      "type": "function"
    },
    {
      "inputs": [
        {
          "internalType": "address",
          "name": "provider",
          "type": "address"
        }
      ],
      "name": "getService",
      "outputs": [
        {
          "components": [
            {
              "internalType": "address",
              "name": "provider",
              "type": "address"
            },
            {
              "internalType": "string",
              "name": "serviceType",
              "type": "string"
            },
            {
              "internalType": "string",
              "name": "url",
              "type": "string"
            },
            {
              "internalType": "uint256",
              "name": "inputPrice",
              "type": "uint256"
            },
            {
              "internalType": "uint256",
              "name": "outputPrice",
              "type": "uint256"
            },
            {
              "internalType": "uint256",
              "name": "updatedAt",
              "type": "uint256"
            },
            {
              "internalType": "string",
              "name": "model",
              "type": "string"
            },
            {
              "internalType": "string",
              "name": "verifiability",
              "type": "string"
            },
            {
              "internalType": "string",
              "name": "additionalInfo",
              "type": "string"
            },
            {
              "internalType": "address",
              "name": "teeSignerAddress",
              "type": "address"
            },
            {
              "internalType": "bool",
              "name": "teeSignerAcknowledged",
              "type": "bool"
            }
          ],
          "internalType": "struct Service",
          "name": "service",
          "type": "tuple"
        }
      ],
      "stateMutability": "view",
      "type": "function"
    },
    {
      "inputs": [
        {
          "internalType": "uint256",
          "name": "_locktime",
          "type": "uint256"
        },
        {
          "internalType": "address",
          "name": "_ledgerAddress",
          "type": "address"
        },
        {
          "internalType": "address",
          "name": "owner",
          "type": "address"
        }
      ],
      "name": "initialize",
      "outputs": [],
      "stateMutability": "nonpayable",
      "type": "function"
    },
    {
      "inputs": [],
      "name": "initialized",
      "outputs": [
        {
          "internalType": "bool",
          "name": "",
          "type": "bool"
        }
      ],
      "stateMutability": "view",
      "type": "function"
    },
    {
      "inputs": [
        {
          "internalType": "address",
          "name": "user",
          "type": "address"
        },
        {
          "internalType": "address",
          "name": "provider",
          "type": "address"
        },
        {
          "internalType": "uint8",
          "name": "tokenId",
          "type": "uint8"
        }
      ],
      "name": "isTokenRevoked",
      "outputs": [
        {
          "internalType": "bool",
          "name": "",
          "type": "bool"
        }
      ],
      "stateMutability": "view",
      "type": "function"
    },
    {
      "inputs": [],
      "name": "ledgerAddress",
      "outputs": [
        {
          "internalType": "address",
          "name": "",
          "type": "address"
        }
      ],
      "stateMutability": "view",
      "type": "function"
    },
    {
      "inputs": [],
      "name": "lockTime",
      "outputs": [
        {
          "internalType": "uint256",
          "name": "",
          "type": "uint256"
        }
      ],
      "stateMutability": "view",
      "type": "function"
    },
    {
      "inputs": [],
      "name": "owner",
      "outputs": [
        {
          "internalType": "address",
          "name": "",
          "type": "address"
        }
      ],
      "stateMutability": "view",
      "type": "function"
    },
    {
      "inputs": [
        {
          "components": [
            {
              "internalType": "address",
              "name": "user",
              "type": "address"
            },
            {
              "internalType": "address",
              "name": "provider",
              "type": "address"
            },
            {
              "internalType": "uint256",
              "name": "totalFee",
              "type": "uint256"
            },
            {
              "internalType": "bytes32",
              "name": "requestsHash",
              "type": "bytes32"
            },
            {
              "internalType": "uint256",
              "name": "nonce",
              "type": "uint256"
            },
            {
              "internalType": "bytes",
              "name": "signature",
              "type": "bytes"
            }
          ],
          "internalType": "struct TEESettlementData[]",
          "name": "settlements",
          "type": "tuple[]"
        }
      ],
      "name": "previewSettlementResults",
      "outputs": [
        {
          "internalType": "address[]",
          "name": "failedUsers",
          "type": "address[]"
        },
        {
          "internalType": "enum SettlementStatus[]",
          "name": "failureReasons",
          "type": "uint8[]"
        },
        {
          "internalType": "address[]",
          "name": "partialUsers",
          "type": "address[]"
        },
        {
          "internalType": "uint256[]",
          "name": "partialAmounts",
          "type": "uint256[]"
        }
      ],
      "stateMutability": "view",
      "type": "function"
    },
    {
      "inputs": [
        {
          "internalType": "address",
          "name": "user",
          "type": "address"
        },
        {
          "internalType": "address",
          "name": "provider",
          "type": "address"
        }
      ],
      "name": "processRefund",
      "outputs": [
        {
          "internalType": "uint256",
          "name": "totalAmount",
          "type": "uint256"
        },
        {
          "internalType": "uint256",
          "name": "balance",
          "type": "uint256"
        },
        {
          "internalType": "uint256",
          "name": "pendingRefund",
          "type": "uint256"
        }
      ],
      "stateMutability": "nonpayable",
      "type": "function"
    },
    {
      "inputs": [],
      "name": "removeService",
      "outputs": [],
      "stateMutability": "nonpayable",
      "type": "function"
    },
    {
      "inputs": [],
      "name": "renounceOwnership",
      "outputs": [],
      "stateMutability": "nonpayable",
      "type": "function"
    },
    {
      "inputs": [
        {
          "internalType": "address",
          "name": "user",
          "type": "address"
        },
        {
          "internalType": "address",
          "name": "provider",
          "type": "address"
        }
      ],
      "name": "requestRefundAll",
      "outputs": [],
      "stateMutability": "nonpayable",
      "type": "function"
    },
    {
      "inputs": [
        {
          "internalType": "address",
          "name": "provider",
          "type": "address"
        }
      ],
      "name": "revokeAllTokens",
      "outputs": [],
      "stateMutability": "nonpayable",
      "type": "function"
    },
    {
      "inputs": [
        {
          "internalType": "address",
          "name": "provider",
          "type": "address"
        }
      ],
      "name": "revokeTEESignerAcknowledgement",
      "outputs": [],
      "stateMutability": "nonpayable",
      "type": "function"
    },
    {
      "inputs": [
        {
          "internalType": "address",
          "name": "provider",
          "type": "address"
        },
        {
          "internalType": "uint8",
          "name": "tokenId",
          "type": "uint8"
        }
      ],
      "name": "revokeToken",
      "outputs": [],
      "stateMutability": "nonpayable",
      "type": "function"
    },
    {
      "inputs": [
        {
          "internalType": "address",
          "name": "provider",
          "type": "address"
        },
        {
          "internalType": "uint8[]",
          "name": "tokenIds",
          "type": "uint8[]"
        }
      ],
      "name": "revokeTokens",
      "outputs": [],
      "stateMutability": "nonpayable",
      "type": "function"
    },
    {
      "inputs": [
        {
          "internalType": "address",
          "name": "provider",
          "type": "address"
        }
      ],
      "name": "serviceExists",
      "outputs": [
        {
          "internalType": "bool",
          "name": "",
          "type": "bool"
        }
      ],
      "stateMutability": "view",
      "type": "function"
    },
    {
      "inputs": [
        {
          "components": [
            {
              "internalType": "address",
              "name": "user",
              "type": "address"
            },
            {
              "internalType": "address",
              "name": "provider",
              "type": "address"
            },
            {
              "internalType": "uint256",
              "name": "totalFee",
              "type": "uint256"
            },
            {
              "internalType": "bytes32",
              "name": "requestsHash",
              "type": "bytes32"
            },
            {
              "internalType": "uint256",
              "name": "nonce",
              "type": "uint256"
            },
            {
              "internalType": "bytes",
              "name": "signature",
              "type": "bytes"
            }
          ],
          "internalType": "struct TEESettlementData[]",
          "name": "settlements",
          "type": "tuple[]"
        }
      ],
      "name": "settleFeesWithTEE",
      "outputs": [
        {
          "internalType": "uint8[]",
          "name": "statuses",
          "type": "uint8[]"
        }
      ],
      "stateMutability": "nonpayable",
      "type": "function"
    },
    {
      "inputs": [
        {
          "internalType": "bytes4",
          "name": "interfaceId",
          "type": "bytes4"
        }
      ],
      "name": "supportsInterface",
      "outputs": [
        {
          "internalType": "bool",
          "name": "",
          "type": "bool"
        }
      ],
      "stateMutability": "view",
      "type": "function"
    },
    {
      "inputs": [
        {
          "internalType": "address",
          "name": "newOwner",
          "type": "address"
        }
      ],
      "name": "transferOwnership",
      "outputs": [],
      "stateMutability": "nonpayable",
      "type": "function"
    },
    {
      "inputs": [
        {
          "internalType": "uint256",
          "name": "_locktime",
          "type": "uint256"
        }
      ],
      "name": "updateLockTime",
      "outputs": [],
      "stateMutability": "nonpayable",
      "type": "function"
    },
    {
      "stateMutability": "payable",
      "type": "receive"
    }
  ],
  "transactionHash": "0x881d355621dfb9e1176182fe38ebeb5e6711dc1d85934c0ec8a3e521fc265eb0",
  "args": [],
  "numDeployments": 7,
  "solcInputHash": "cbac190a867214b42bf537015d4ac7f7",
  "bytecode": "0x60808060405234620000c45760008054336001600160a01b031982168117808455919260ff9291906001600160a01b038516907f8be0079c531659141344cd1fd0a4f28419497f9722a3daafe3b4186f6b6457e09080a36001805560a81c161562000075575b6040516149ee9081620000ca8239f35b600161ff0160a01b0319163360ff60a81b191617600160a81b1760005560ff81527f7f26b83ff96e1f2b6a682f133852f6798a09c465da95921460cefb384740249890602090a1388062000065565b600080fdfe6080604052600436101561001e575b361561001957600080fd5b61265a565b60003560e01c806301ffc9a71461027e5780630a2a8f88146102795780630d66808714610274578063147500e31461026f578063158ef93e1461026a57806315a523021461026557806317c30a03146102605780631d07cb971461025b5780631d73b9f514610256578063264173d61461025157806328b604761461024c578063398c8e4e146102475780633ea527cb14610242578063405a85e81461023d5780634e3c4f22146102385780634fe63f4d146102335780635bd7ace21461022e578063650190e7146102295780636c79158d14610224578063715018a61461021f578063745e87f71461021a5780637ff6fc1c146102155780638be74119146102105780638da5cb5b1461020b5780639721672514610206578063a09cfca914610201578063ad6dca3f146101fc578063b2394d09146101f7578063b4988fd0146101f2578063ba16a750146101ed578063bbee42d9146101e8578063cab33d8f146101e3578063d1d20056146101de578063ddf96abd146101d9578063e50688f9146101d4578063f2fde38b146101cf578063fbfa4e11146101ca5763fd5908470361000e57611f88565b611ec8565b611e37565b611cf1565b611b3e565b611b08565b611a8d565b6119ad565b6118dc565b611736565b6116a7565b61168a565b6115d8565b61156c565b611543565b6113b8565b6112d9565b6111b5565b611157565b61101e565b610ffa565b610f91565b610f50565b610e66565b610e11565b610df3565b610c7b565b610b02565b610998565b610927565b61071b565b610619565b6104f7565b6103bd565b61039c565b610349565b6102ea565b346102d45760203660031901126102d45760043563ffffffff60e01b81168091036102d45760209063160841b160e01b81149081156102c3575b506040519015158152f35b6301ffc9a760e01b149050386102b8565b600080fd5b6001600160a01b038116036102d457565b346102d45760203660031901126102d457602061033461031460043561030f816102d9565b613afc565b600052600080516020614979833981519152602052604060002054151590565b6040519015158152f35b60009103126102d457565b346102d45760003660031901126102d457602060008051602061491983398151915254604051908152f35b60409060031901126102d45760043561038c816102d9565b90602435610399816102d9565b90565b346102d45760206103346103b86103b236610374565b90613b24565b6147f6565b346102d45760003660031901126102d457602060ff60005460a01c166040519015158152f35b919082519283825260005b84811061040f575050826000602080949584010152601f8019910116010190565b6020818301810151848301820152016103ee565b80516001600160a01b0316825290610399906104c36104af61049d61046d61045b6101606020890151908060208901528701906103e3565b604088015186820360408801526103e3565b606087015160608601526080870151608086015260a087015160a086015260c087015185820360c08701526103e3565b60e086015184820360e08601526103e3565b6101008086015190848303908501526103e3565b610120808501516001600160a01b03169083015292610140908101511515910152565b906020610399928181520190610423565b346102d45760203660031901126102d4576105e561052860043561051a816102d9565b61052261205a565b50613b4f565b6105d960ff6009610537611c83565b84546001600160a01b0316815293610551600182016120e7565b6020860152610562600282016120e7565b60408601526003810154606086015260048101546080860152600581015460a0860152610591600682016120e7565b60c08601526105a2600782016120e7565b60e08601526105b3600882016120e7565b61010086015201546001600160a01b03811661012085015260a01c161515610140830152565b604051918291826104e6565b0390f35b9181601f840112156102d4578235916001600160401b0383116102d4576020808501948460051b0101116102d457565b346102d45760403660031901126102d457600435610636816102d9565b6024356001600160401b0381116102d4576106559036906004016105e9565b916106608133613b94565b600a0160005b8481106106e8575050604051926020908060208601602087525260408501939160005b8281106106c3576001600160a01b038516337f70147140547b3e1660123a6725577c5574b4d40747abe6ff7c458f449e18b84f8989038aa3005b90919294828060019260ff89356106d981610710565b16815201960193929101610689565b80600160ff6106f98294898961266c565b3561070381610710565b161b835417835501610666565b60ff8116036102d457565b346102d45760403660031901126102d457600435610738816102d9565b6024359061074582610710565b600a60ff6107538333613b94565b931692016001831b815417905560405191825260018060a01b0316907fcf558f061a5a4e28657b8e5c662b95b8258d880896e7a859299457be036ed4a460203392a3005b60609060031901126102d4576004356107af816102d9565b906024359060443590565b90815180825260208080930193019160005b8281106107da575050505090565b835180518652808301518684015260408082015190870152606090810151151590860152608090940193928101926001016107cc565b80516001600160a01b031682529061087e61086c6101606020858101516001600160a01b03169085015260408501516040850152606085015160608501526080850151608085015260a0850151908060a08601528401906107ba565b60c084015183820360c08501526103e3565b60e08084015115159083015291610100808201519083015261012080820151908301526101408091015191015290565b90808251908181526020809101926020808460051b8301019501936000915b8483106108dd5750505050505090565b90919293949584806108fb600193601f198682030187528a51610810565b98019301930191949392906108cd565b9291906109226020916040865260408601906108ae565b930152565b346102d45761093536610797565b9190821580158061098e575b61096e5761095893901561096857506032916126df565b906105e56040519283928361090b565b916126df565b60405163062ba4db60e01b81526004810185905260326024820152604490fd5b5060328411610941565b346102d457602060046109b36109ad36610374565b90613b94565b0154604051908152f35b60206003198201126102d457600435906001600160401b0382116102d4576109e7916004016105e9565b9091565b90815180825260208080930193019160005b828110610a0b575050505090565b83516001600160a01b0316855293810193928101926001016109fd565b634e487b7160e01b600052602160045260246000fd5b60061115610a4857565b610a28565b906006821015610a485752565b9190610a6e906080845260808401906109eb565b926020938381038585015284808451928381520193019060005b818110610ade5750505090610aa49183820360408501526109eb565b90606081830391015281808451928381520193019160005b828110610aca575050505090565b835185529381019392810192600101610abc565b909193868082610af4600194899b9a9b51610a4d565b979897019501929101610a88565b346102d457610b10366109bd565b8015610c695760328111610c4857610b2781612253565b610b3082612253565b91610b3a81612253565b610b4382612253565b9160008091815b818110610b6e57505080855285528082528252604051945084936105e59385610a5a565b610b7981838b61229b565b9233610b96610b8a602087016122c2565b6001600160a01b031690565b03610c2657610ba4846127f1565b610baf829392610a3e565b8215610c1a57610bbe83610a3e565b60018314610bef575060019291610be991610be1610bdb826122e2565b976122c2565b908c8c6127d7565b01610b4a565b600193925086610c0d610c07610c15949899926122e2565b986122c2565b908a8a612931565b610be9565b50935050600190610be9565b90610c1582610c40610c3a600195926122e2565b966122c2565b908b8b6127b0565b60405163f1c82a5760e01b8152600481019190915260326024820152604490fd5b60405163192912c960e01b8152600490fd5b6003196020368201126102d4576004356001600160401b0381116102d457610100816004019282360301126102d457610cb3336122f6565b5415610d5c5734610d4a577f30ecc203691b2d18e17ee75d47caf34a3fb9f86e855f7e0414d3cec26d0c424b905b610ceb8333612a99565b610d27610d45610cfb85806123a1565b9093610d0a60248201886123a1565b949097610d1a60448401826123a1565b92909160648501906123a1565b949093604051988998339c4294608460a4860135950135938c6123f4565b0390a2005b6040516396ab6ec560e01b8152600490fd5b68056bc75e2d631000003410610dcc577f30ecc203691b2d18e17ee75d47caf34a3fb9f86e855f7e0414d3cec26d0c424b9034610d98336122f6565b5560405134815233907fcd6dbb0e62eeb71e114bae8b2e2547921dd19209bebf32b595be3e7d247dbbb490602090a2610ce1565b6040516322df051360e11b815234600482015268056bc75e2d631000006024820152604490fd5b346102d45760003660031901126102d457602060405162093a808152f35b346102d45760603660031901126102d4576020600435610e30816102d9565b600a610e53602435610e41816102d9565b60443593610e4e85610710565b613b94565b0154600160ff60405193161b1615158152f35b346102d457610e7436610374565b6000805160206148b9833981519152546001600160a01b03929083163303610f3857610eb0600080516020614919833981519152548383612e7f565b929193909484610edf575b5050506105e590604051938493846040919493926060820195825260208201520152565b604080518781526020810186905292821693909116916000805160206148d98339815191529190a3600080808085335af1610f18612452565b5015610f2657388080610ebb565b6040516312171d8360e31b8152600490fd5b6040516352446b8760e01b8152336004820152602490fd5b346102d457610f5e36610797565b91908215801580610f87575b61096e57610958939015610f815750603291612f71565b91612f71565b5060328411610f6a565b346102d45760403660031901126102d4576024358015801580610ff0575b610fd05715610fc7575061095860325b600435613008565b61095890610fbf565b60405163062ba4db60e01b81526004810183905260326024820152604490fd5b5060328211610faf565b346102d45760003660031901126102d457602060405168056bc75e2d631000008152f35b346102d45761102c36610374565b6000805160206148b9833981519152546001600160a01b0392919083163303610f38576110598183613114565b6110638183613b94565b61106b611c83565b81546001600160a01b0316815260018201546001600160a01b031660208201526002820154604082015260038201546060820152600482015460808201526110b560058301612482565b60a08201526110c6600683016120e7565b60c08201526110e56110dc600784015460ff1690565b151560e0830152565b610140600a60088401549384610100850152600981015461012085015201549101528061110e57005b6111387f54377dfdebf06f6df53fbda737d2dcd7e141f95bbfb0c1223437e856b9de3ac3916125af565b938060405193169316918061115242829190602083019252565b0390a4005b346102d4576000806003193601126111b257611171613202565b80546001600160a01b03198116825581906001600160a01b03167f8be0079c531659141344cd1fd0a4f28419497f9722a3daafe3b4186f6b6457e08280a380f35b80fd5b60603660031901126102d4576004356111cd816102d9565b6024356111d9816102d9565b6000805160206148b9833981519152546001600160a01b03919082163303610f38578183169182156112b857811692831561129757838314611285576000805160206148d9833981519152916112333460443583856132ae565b92909161125461125060076112488486613b94565b015460ff1690565b1590565b611275575b505060408051918252602082019290925290819081015b0390a3005b61127e916133b5565b3880611259565b60405163133db0fb60e31b8152600490fd5b604051634726455360e11b81526001600160a01b0383166004820152602490fd5b604051634726455360e11b81526001600160a01b0385166004820152602490fd5b346102d45760403660031901126102d4576004356112f6816102d9565b6024358015801582036102d45761130d8333613b94565b600781019160ff8354169081611371575b50611337575b815460ff191660ff84151516178255005b005b600301549283156113245760405163faa2387760e01b81523360048201526001600160a01b03909116602482015260448101849052606490fd5b90503861131e565b602090602060408183019282815285518094520193019160005b8281106113a1575050505090565b835160ff1685529381019392810192600101611393565b346102d4576113c6366109bd565b6113ce613428565b8015610c695760328111610c48576113e581612253565b9160009160005b8181106114325750505080611415575b6105e58261140960018055565b60405191829182611379565b600080808093335af1611426612452565b5015610f2657386113fc565b8461143e82848661229b565b943361144f610b8a602089016122c2565b036114d3577f1f69e5b87fd0ce34b3760ba6e5d8aa95a36e316c3ba44e1e65a9d0eb9e96d0bf83926114b9610b8a6114b36001976114a6966114ae6114938e61347e565b94829b91996114a184610a3e565b6125cb565b9060ff169052565b6125f8565b996122c2565b926114c9604051928392836125df565b0390a25b016113ec565b946114ea6114e484600195946125cb565b60029052565b7f1f69e5b87fd0ce34b3760ba6e5d8aa95a36e316c3ba44e1e65a9d0eb9e96d0bf611514826122c2565b60409061153b8251928392888060a01b031695013582919060206040840193600281520152565b0390a26114cd565b346102d45760003660031901126102d4576000546040516001600160a01b039091168152602090f35b346102d45761157a36610374565b6000805160206148b9833981519152546001600160a01b039081163303610f38576020817f342d961f860d5b1c27877a790eff2b213c020d1955a4903d6a9bf3ed590b7cd7926115ca85876136a5565b9460405195865216941692a3005b346102d45760403660031901126102d4576024358015801580611680575b610fd05715611677575061160e60325b6004356137a9565b906040519060408201926040835281518094526060830160608560051b850101926020809101916000905b87821061164d578680878760208301520390f35b909192948380611669600193605f198b82030186528951610423565b970192019201909291611639565b61160e90611606565b50603282116115f6565b346102d45760003660031901126102d4576020604051610e108152f35b346102d45760203660031901126102d45760096004356116c6816102d9565b6116ce613202565b7f4909107c46469d21135443e891c6ecae55b5baa31b338d50f391935308b08f8960206116fa83613b4f565b8461170485613b4f565b01805460ff60a01b1916600160a01b17905590930154604051600181526001600160a01b0391821694939091169290a3005b346102d45760603660031901126102d457602435600435611756826102d9565b60443591611763836102d9565b60005460ff8160a01c1680156118be575b6118ad5760ff60a01b1916600160a01b176000556117918361325a565b610e109283831080156118a1575b61187a57907f9e1c480deaf2caaa9170098a3275b53d208beaeb277601363025975cf8274eb6916117dc8460008051602061491983398151915255565b6000805160206148b983398151915280546001600160a01b039384166001600160a01b031991821681179092557fdfd123095cdedb1cecbc229b30f7cf8745fb3d3951645ac4a8fa4c0895f89502805490911682179055604080519586526020860191909152911692a2604051600181527f7f26b83ff96e1f2b6a682f133852f6798a09c465da95921460cefb38474024989080602081015b0390a1005b60648385604051916329cc3d9d60e21b83526004830152602482015262093a806044820152fd5b5062093a80831161179f565b60405162dc149f60e41b8152600490fd5b5060ff8160a81c16611774565b9060206103999281815201906108ae565b346102d4576118ea366109bd565b6101f480821161199057506118fe8161268f565b9160005b82811061191757604051806105e586826118cb565b6001906119363361193161192c84888861266c565b6122c2565b613b24565b61193f816147f6565b61194b575b5001611902565b61196f611974916000526000805160206148f9833981519152602052604060002090565b612509565b61197e82876125cb565b5261198981866125cb565b5038611944565b604492506040519162ef8cfb60e11b835260048301526024820152fd5b346102d4576000806003193601126111b2576119c7613428565b6119d03361384c565b806119da336122f6565b548015611a615781808092816119ef336122f6565b5560405181815233907f17f7db034d4b59fadec3e44a684cb4396ca10fd036c4e4f718bf06e99371588290602090a2337f29d546abb6e94f4f04d5bdccb6682316f597d43776078f47e273f000e77b2a918380a2335af1611a4e612452565b5015610f26575b611a5e60018055565b80f35b5050337f29d546abb6e94f4f04d5bdccb6682316f597d43776078f47e273f000e77b2a918280a2611a55565b346102d45760203660031901126102d457600435611aaa816102d9565b611ab48133613b94565b906000600a6009840193611ac885546122e2565b9485905501556040519182526001600160a01b03169033907f989726e0ba0fa7747d8a6618329b929bfcc4f3ac46de5930a368310944f7554790602090a3005b346102d45760003660031901126102d4576000805160206148b9833981519152546040516001600160a01b039091168152602090f35b346102d45760203660031901126102d4576009600435611b5d816102d9565b611b65613202565b7f4909107c46469d21135443e891c6ecae55b5baa31b338d50f391935308b08f896020611b9183613b4f565b84611b9b85613b4f565b01805460ff60a01b1916905590930154604051600081526001600160a01b0391821694939091169290a3005b634e487b7160e01b600052604160045260246000fd5b61016081019081106001600160401b03821117611bf957604052565b611bc7565b608081019081106001600160401b03821117611bf957604052565b6001600160401b038111611bf957604052565b602081019081106001600160401b03821117611bf957604052565b604081019081106001600160401b03821117611bf957604052565b90601f801991011681019081106001600160401b03821117611bf957604052565b60405190611c9082611bdd565b565b60405190611c9082611bfe565b6001600160401b038111611bf957601f01601f191660200190565b929192611cc682611c9f565b91611cd46040519384611c62565b8294818452818301116102d4578281602093846000960137010152565b60603660031901126102d45760048035611d0a816102d9565b602435611d16816102d9565b6044356001600160401b0381116102d457366023820112156102d457611d459036906024818701359101611cba565b6000805160206148b9833981519152546001600160a01b0393919084163303611e2057838216938415611dfa578316948515611dd357858514611dc4575090611dab611da36000805160206148d9833981519152949334858561391b565b9390926133b5565b6040805191825260208201929092529081908101611270565b60405163133db0fb60e31b8152fd5b604051634726455360e11b81526001600160a01b0385169181019182529081906020010390fd5b604051634726455360e11b81526001600160a01b03841681880190815281906020010390fd5b6040516352446b8760e01b81523381870152602490fd5b346102d45760203660031901126102d457600435611e54816102d9565b611e5c613202565b6001600160a01b03811615611e74576113359061325a565b60405162461bcd60e51b815260206004820152602660248201527f4f776e61626c653a206e6577206f776e657220697320746865207a65726f206160448201526564647265737360d01b6064820152608490fd5b346102d45760203660031901126102d457600435611ee4613202565b610e10908181108015611f6b575b611f45576000805160206149198339815191528054908290556040805191825260208201929092527f5707a70527b6cbb892bfe5d8739a8f0643d3212d9b1139bc31c742e731c652709181908101611875565b606491604051916329cc3d9d60e21b83526004830152602482015262093a806044820152fd5b5062093a808111611ef2565b906020610399928181520190610810565b346102d4576105e5611fab611f9c36610374565b90611fa5612605565b50613b94565b600a611fb5611c83565b82546001600160a01b031681529160018101546001600160a01b0316602084015260028101546040840152600381015460608401526004810154608084015261200060058201612482565b60a0840152612011600682016120e7565b60c0840152612030612027600783015460ff1690565b151560e0850152565b60088101546101008401526009810154610120840152015461014082015260405191829182611f77565b6040519061206782611bdd565b81610140600091828152606080602083015280604083015283818301528360808301528360a08301528060c08301528060e0830152610100820152826101208201520152565b90600182811c921680156120dd575b60208310146120c757565b634e487b7160e01b600052602260045260246000fd5b91607f16916120bc565b906040519182600082546120fa816120ad565b908184526020946001916001811690816000146121685750600114612129575b505050611c9092500383611c62565b600090815285812095935091905b818310612150575050611c90935082010138808061211a565b85548884018501529485019487945091830191612137565b92505050611c9094925060ff191682840152151560051b82010138808061211a565b90611c9060ff600961219a611c83565b85546001600160a01b03168152946121b4600182016120e7565b60208701526121c5600282016120e7565b60408701526003810154606087015260048101546080870152600581015460a08701526121f4600682016120e7565b60c0870152612205600782016120e7565b60e0870152612216600882016120e7565b61010087015201546001600160a01b03811661012086015260a01c161515610140840152565b6001600160401b038111611bf95760051b60200190565b9061225d8261223c565b61226a6040519182611c62565b828152809261227b601f199161223c565b0190602036910137565b634e487b7160e01b600052603260045260246000fd5b91908110156122bd5760051b8101359060be19813603018212156102d4570190565b612285565b35610399816102d9565b634e487b7160e01b600052601160045260246000fd5b60001981146122f15760010190565b6122cc565b6001600160a01b031660009081527fdfd123095cdedb1cecbc229b30f7cf8745fb3d3951645ac4a8fa4c0895f8950b6020526040902090565b6001600160a01b031660009081527fdfd123095cdedb1cecbc229b30f7cf8745fb3d3951645ac4a8fa4c0895f895066020526040902090565b6001600160a01b031660009081527fdfd123095cdedb1cecbc229b30f7cf8745fb3d3951645ac4a8fa4c0895f895076020526040902090565b903590601e19813603018212156102d457018035906001600160401b0382116102d4576020019181360383136102d457565b908060209392818452848401376000828201840152601f01601f1916010190565b999793926124449793612419612427936103999e9c98999560e08f81815201916123d3565b8c810360208e0152916123d3565b9460408a01526060890152608088015286830360a08801526123d3565b9260c08185039101526123d3565b3d1561247d573d9061246382611c9f565b916124716040519384611c62565b82523d6000602084013e565b606090565b90815461248e8161223c565b9260409361249f6040519182611c62565b82815280946020809201926000526020600020906000935b8585106124c657505050505050565b60048460019284516124d781611bfe565b86548152848701548382015260028701548682015260ff600388015416151560608201528152019301940193916124b7565b90600a612514611c83565b83546001600160a01b031681529260018101546001600160a01b0316602085015260028101546040850152600381015460608501526004810154608085015261255f60058201612482565b60a0850152612570600682016120e7565b60c085015261258f612586600783015460ff1690565b151560e0860152565b600881015461010085015260098101546101208501520154610140830152565b6000198101919082116122f157565b919082039182116122f157565b80518210156122bd5760209160051b010190565b602090939291936125f4816040810196610a4d565b0152565b919082018092116122f157565b6040519061261282611bdd565b81610140600091828152826020820152826040820152826060820152826080820152606060a0820152606060c08201528260e082015282610100820152826101208201520152565b604051630799a15f60e11b8152600490fd5b91908110156122bd5760051b0190565b60405161268881611c2c565b6000815290565b906126998261223c565b6126a66040519182611c62565b82815280926126b7601f199161223c565b019060005b8281106126c857505050565b6020906126d3612605565b828285010152016126bc565b6126eb9093929361232f565b80549384831015612799578061278a5750835b82858211612782575b612710916125be565b9061271a8261268f565b9260005b83811061272d57505050509190565b8061276661196f612749612743600195876125f8565b87614248565b6000526000805160206148f9833981519152602052604060002090565b61277082886125cb565b5261277b81876125cb565b500161271e565b859150612707565b8201808311156126fe576122cc565b5050506040516127a881611c2c565b600081529190565b906002936127c2846127d495946125cb565b6001600160a01b0390911690526125cb565b52565b926127c2836127e5956125cb565b6006821015610a485752565b61280a6112506103b8612803846122c2565b3390613b24565b6129265761281d61125061031433613afc565b61291b5761282e33610e4e836122c2565b61283733613b4f565b612848611250600784015460ff1690565b8015612902575b80156128ed575b6128e0576002820154608084013511156128d3576009015461288590611250906001600160a01b031684613c13565b6128c75760036040910154910135908082116000146128bd576128a7916125be565b905b81156128b55760019190565b600091508190565b50506000906128a9565b50906040600592013590565b5050906040600492013590565b5050906040600392013590565b5060098101546001600160a01b031615612856565b5060098101546129169060a01c60ff161590565b61284f565b906040600292013590565b906040600592013590565b926127c2836127d4956125cb565b634e487b7160e01b600052600060045260246000fd5b9161296f9183549060031b91821b91600019901b19161790565b9055565b81811061297e575050565b60008155600101612973565b9190601f811161299957505050565b611c90926000526020600020906020601f840160051c830193106129c5575b601f0160051c0190612973565b90915081906129b8565b9092916001600160401b038111611bf9576129f4816129ee84546120ad565b8461298a565b6000601f8211600114612a3157819061296f939495600092612a26575b50508160011b916000199060031b1c19161790565b013590503880612a11565b601f19821694612a4684600052602060002090565b91805b878110612a81575083600195969710612a67575b505050811b019055565b0135600019600384901b60f8161c19169055388080612a5d565b90926020600181928686013581550194019101612a49565b60c0820190611000612aab83856123a1565b905011612e0557612abb81613afc565b612ae261125082600052600080516020614979833981519152602052604060002054151590565b612d0b5750612af090613b4f565b916001830191612aff836120e7565b8051602080920120612b1b612b1485806123a1565b3691611cba565b8281519101201493841594612cd9575b8415612ca7575b8415612c74575b858515612c1a575b5083612bdf612bd5600995612b95612b8b612be597612b6f60e098612b6989612c069e6123a1565b916129cf565b608087013560038e015560a087013560048e01558601866123a1565b9060028d016129cf565b4260058b0155612bb5612bab60408601866123a1565b9060068d016129cf565b612bcf612bc560608601866123a1565b9060078d016129cf565b836123a1565b9060088a016129cf565b016122c2565b930180546001600160a01b0319166001600160a01b03909416939093178355565b612c0d5750565b805460ff60a01b19169055565b60e091955093612bdf612bd5600995612b95612b8b612be597612b6f612c456008612c069d016120e7565b828151910120612c58612b14878b6123a1565b83815191012014159c9850509750505095505050935085612b41565b60098601549094506001600160a01b0316612c94610b8a60e086016122c2565b6001600160a01b03909116141593612b39565b9350612cb5600786016120e7565b818151910120612ccb612b1460608601866123a1565b828151910120141593612b32565b9350612ce7600686016120e7565b818151910120612cfd612b1460408601866123a1565b828151910120141593612b2b565b929091612d1882806123a1565b929091612d2860208301836123a1565b92612d3660408201826123a1565b9091612d4560608201826123a1565b949095612d5290836123a1565b97909860e08401612d62906122c2565b9a612d6b611c83565b6001600160a01b03909d168d523690612d8392611cba565b60208c01523690612d9392611cba565b60408a0152608081013560608a015260a0013560808901524260a08901523690612dbc92611cba565b60c08701523690612dcc92611cba565b60e08501523690612ddc92611cba565b6101008301526001600160a01b03166101208201526000610140820152612e0291613df6565b50565b60405163ef54fd9d60e01b8152600490fd5b80548210156122bd5760005260206000209060021b0190600090565b90612e7a57818103612e43575050565b600360ff8184611c9095548555600181015460018601556002810154600286015501541691019060ff801983541691151516179055565b61293f565b90612e8991613b94565b906008820192835415612f5e576000939284918291600581019190835b8754861015612f3a57612eb98685612e17565b50612ec88860028301546125f8565b4210612ee75760019182612ede920154906125f8565b955b0194612ea6565b986001919695612efe612f0d92848d0154906125f8565b9a818803612f13575b506122e2565b94612ee0565b612f2790612f218389612e17565b90612e33565b80612f328188612e17565b505538612f07565b9795509350949050558160046003830192612f568785546125be565b809455015591565b6003830154600490930154600094509150565b612f7d90939293612368565b805493848310156127995780612ff95750835b82858211612ff1575b612fa2916125be565b90612fac8261268f565b9260005b838110612fbf57505050509190565b80612fd561196f612749612743600195876125f8565b612fdf82886125cb565b52612fea81876125cb565b5001612fb0565b859150612f99565b820180831115612f90576122cc565b9160008051602061495983398151915254918284101561309f57806130905750815b828111613089575b8381039081116122f1576130458161268f565b9360005b82811061305557505050565b8061306d61196f613068600194866125f8565b613f0f565b61307782896125cb565b5261308281886125cb565b5001613049565b5081613032565b83018084111561302a576122cc565b509091506130ab61267c565b9190565b90612e7a576003606083611c909451845560208101516001850155604081015160028501550151151591019060ff801983541691151516179055565b90815491600160401b831015611bf9578261310e916001611c9095018155612e17565b906130af565b91906131208184613b94565b9260038401549161313760048601938454906125be565b9182156131fa57600886019182549160058310156131d1575050600561296f9495960181815411156000146131a1579061318e91613173611c92565b918252846020830152426040830152600060608301526130eb565b61319881546122e2565b905582546125f8565b61310e6131cc926131b0611c92565b9281845286602085015242604085015260006060850152612e17565b61318e565b604051639edd285f60e01b81526001600160a01b03918216600482015291166024820152604490fd5b505050509050565b6000546001600160a01b0316330361321657565b606460405162461bcd60e51b815260206004820152602060248201527f4f776e61626c653a2063616c6c6572206973206e6f7420746865206f776e65726044820152fd5b600080546001600160a01b039283166001600160a01b03198216811783559216907f8be0079c531659141344cd1fd0a4f28419497f9722a3daafe3b4186f6b6457e09080a3565b80156122f1576000190190565b906132bb91949394613b94565b90801515806133a8575b6132e5575b50806132dd6003600493019485546125f8565b809455015490565b600093929391600091946008820194855491829360058101945b8015158061339f575b1561337c576000190193600161331e8688612e17565b500180549097908b811161335b5750908861334861334f936133428b5480926125f8565b9d6125be565b98556132a1565b975b97939895986132ff565b9a61336d81613373939c9a949c6125f8565b9b6125be565b90558695613351565b509493509590965060049450556133978383019182546125be565b9055906132ca565b50891515613308565b50600882015415156132c5565b906133c08183613b94565b90600782019283549260ff841680613420575b6133e6575b50505060ff19166001179055565b600301549081156133d85760405163faa2387760e01b81526001600160a01b03918216600482015292166024830152604482015260649150fd5b5060006133d3565b600260015414613439576002600155565b60405162461bcd60e51b815260206004820152601f60248201527f5265656e7472616e637947756172643a207265656e7472616e742063616c6c006044820152606490fd5b6134906112506103b8612803846122c2565b6135f0576134a361125061031433613afc565b6135e2576134b433610e4e836122c2565b916134be33613b4f565b6134cf611250600786015460ff1690565b80156135c9575b80156135b4575b6135a35760028401805491608085013580931015613590576009015461351090611250906001600160a01b031686613c13565b61357e57556040600384015492013582811192836000146135775780935b1561356d5761353c916125be565b925b828061355d575b50508215613554576001929190565b60009250829190565b61356691613fc9565b3882613545565b505060009261353e565b819361352e565b50509091506040600592013590600090565b5050509091506040600492013590600090565b509091506040600392013590600090565b5060098101546001600160a01b0316156134dd565b5060098101546135dd9060a01c60ff161590565b6134d6565b906040600292013590600090565b906040600592013590600090565b8054906000908181558261361157505050565b6002906001600160fe1b03841684036122f1578252602082209260021b8301925b83811061363f5750505050565b808360049255836001820155838382015583600382015501613632565b61366681546120ad565b9081613670575050565b81601f60009311600114613682575055565b9080839182526136a1601f60208420940160051c840160018501612973565b5555565b9190916136b28382613b24565b906136bc826147f6565b15613751578190816000958187526000805160206148f983398151915260205260408720600381019780895499558060048301556007820160ff198154169055806008830155600a82015560058101613714906135fe565b6006016137209061365c565b6137299061232f565b90613733916145cc565b5061373d90612368565b90613747916145cc565b50612e029061445f565b506000925050565b906137638261223c565b6137706040519182611c62565b8281528092613781601f199161223c565b019060005b82811061379257505050565b60209061379d61205a565b82828501015201613786565b9160008051602061493983398151915254918284101561309f578084018085116122f157901583828215613842575b505061383b575b8381039081116122f1576137f281613759565b9360005b82811061380257505050565b8061381f61381a613815600194866125f8565b613f66565b61218a565b61382982896125cb565b5261383481886125cb565b50016137f6565b50816137df565b11905083386137d8565b61385581613afc565b9061387a82600052600080516020614979833981519152602052604060002054151590565b156138f95750612e029060008181526000805160206149998339815191526020526009604082208281556138b06001820161365c565b6138bc6002820161365c565b8260038201558260048201558260058201556138da6006820161365c565b6138e66007820161365c565b6138f26008820161365c565b015561451f565b6040516304c76d3f60e11b81526001600160a01b039091166004820152602490fd5b9392936139288282613b24565b91613932836147f6565b613ad35760008381526000805160206148f98339815191526020908152604082206003810187905580546001600160a01b0319166001600160a01b03861617815591979190600182810180546001600160a01b0319166001600160a01b0387161790559260068301918151916001600160401b038311611bf9578b956139c2846139bc87546120ad565b8761298a565b602092601f8511600114613a39575050946008613a23958a999795613a0a86613a1e97613a1e9c97613a299f9a8892613a2e5750508160011b916000199060031b1c19161790565b90555b0155613a1883614675565b5061232f565b614785565b50612368565b509190565b015190503880612a11565b929190601f19851690613a5187600052602060002090565b9489915b838310613aa957505050958a99979295600186613a1e9b96613a299e99600896613a1e9a613a239d10613a90575b505050811b019055613a0d565b015160001960f88460031b161c19169055388080613a83565b9195859798999a5082829495969183928801518155019701950190918f9998979695949392613a55565b604051632cf0675960e21b81526001600160a01b03928316600482015291166024820152604490fd5b6040516001600160a01b039091166020808301918252825290613b1e81611c47565b51902090565b604080516001600160a01b039283166020820190815293909216828201528152613b1e606082611c62565b613b5881613afc565b600052600080516020614999833981519152602052604060002090600080516020614979833981519152602052604060002054156138f9575090565b90613b9f8183613b24565b918260005260008051602061489983398151915260205260406000205415613be05750506000526000805160206148f9833981519152602052604060002090565b60405163023280eb60e21b81526001600160a01b03918216600482015291166024820152604490fd5b60051115610a4857565b613d1090613d0a612b14613ca8613cf0613cfc613c32602087016122c2565b613c3b876122c2565b604080517f6e525043a6c7323bdf60ce222f35127cdd9d8e867ec6350c83fcc254ed18b756602082019081526060808c0135838501526080808d0135918401919091526001600160a01b03958616908301529390921660a083015288013560c082015293849060e0820190565b0393613cbc601f1995868101835282611c62565b51902092613cc861425c565b93604051938491602083019687909160429261190160f01b8352600283015260228201520190565b03908101835282611c62565b5190209260a08101906123a1565b90614347565b613d1981613c09565b159182613d2557505090565b6001600160a01b03918216911614919050565b91909182516001600160401b038111611bf957613d59816129ee84546120ad565b602080601f8311600114613d8c5750819061296f939495600092613a2e5750508160011b916000199060031b1c19161790565b90601f19831695613da285600052602060002090565b926000905b888210613dde57505083600195969710613dc557505050811b019055565b015160001960f88460031b161c19169055388080612a5d565b80600185968294968601518155019501930190613da7565b613f0a6103999282600052600080516020614999833981519152602052613ef061014060096040600020613e4f613e33865160018060a01b031690565b82546001600160a01b0319166001600160a01b03909116178255565b613e60602086015160018301613d38565b613e71604086015160028301613d38565b606085015160038201556080850151600482015560a08501516005820155613ea060c086015160068301613d38565b613eb160e086015160078301613d38565b613ec361010086015160088301613d38565b610120850151910180546001600160a01b0319166001600160a01b03909216919091178155920151151590565b815460ff60a01b191690151560a01b60ff60a01b16179055565b6146fd565b600080516020614959833981519152548110156122bd577fa543db6724dca3e06c9a739e16672b6894bb866e0b44759e50bc403282ce062701546000526000805160206148f9833981519152602052604060002090565b600080516020614939833981519152548110156122bd577f94ce1cc9f419dbfb0d7a61a6415af9981ee3d1c02ba0de79a3c180abfae2b4010154600052600080516020614999833981519152602052604060002090565b6040513d6000823e3d90fd5b9060038201918254916004820192835490613fe482826125be565b83116140f1575b5050613ff88185546125be565b84557fdfd123095cdedb1cecbc229b30f7cf8745fb3d3951645ac4a8fa4c0895f895025461402e906001600160a01b0316610b8a565b82549091906001600160a01b031690823b156102d457604051631bb1482360e31b81526001600160a01b039290921660048301526024820152906000908290604490829084905af180156140ec576000805160206148d9833981519152926140ce926140a7926140d3575b50546001600160a01b031690565b9354925460408051948552602085019190915233946001600160a01b031693918291820190565b0390a3565b806140e06140e692611c19565b8061033e565b38614099565b613fbd565b61410b9161410591979396979594956125be565b856125be565b9485926008850195865494855b801515806141a1575b15614183576000190195600161413a8860058b01612e17565b50018054909a9081811161416b575090600061415b614162938d54906125be565b9b556132a1565b975b9795614118565b90614179919b929a9b6125be565b9055600098614164565b509195949093975061419892965584546125be565b83553880613feb565b50891515614121565b60008051602061495983398151915280548210156122bd576000527fa543db6724dca3e06c9a739e16672b6894bb866e0b44759e50bc403282ce06270190600090565b60008051602061493983398151915280548210156122bd576000527f94ce1cc9f419dbfb0d7a61a6415af9981ee3d1c02ba0de79a3c180abfae2b4010190600090565b80548210156122bd5760005260206000200190600090565b9061425291614230565b90549060031b1c90565b73304720496e666572656e63652053657276696e6760601b602060405161428281611c47565b601481520152603160f81b602060405161429b81611c47565b60018152015260405160208101907f8b73c3c69bb8fe3d512ecc4cf759cc79239f7b179b0ffacaa9a75d522b39400f82527f2f4ba393a20b900f9f0a8fdd993b162f640c29a02a710d04f515521a29be839b60408201527fc89efdaa54c0f20c7adf612882df0950f5a951637e0307cdcb4c672f298b8bc660608201524660808201523060a082015260a0815260c081018181106001600160401b03821117611bf95760405251902090565b906041815114600014614371576109e7916020820151906060604084015193015160001a90614816565b5050600090600290565b60008051602061495983398151915280549081156143cd57600019820191808310156122bd577fa543db6724dca3e06c9a739e16672b6894bb866e0b44759e50bc403282ce0626600091838352015555565b634e487b7160e01b600052603160045260246000fd5b60008051602061493983398151915280549081156143cd57600019820191808310156122bd577f94ce1cc9f419dbfb0d7a61a6415af9981ee3d1c02ba0de79a3c180abfae2b400600091838352015555565b80549081156143cd576000199182019161444f8383614230565b909182549160031b1b1916905555565b6000818152600080516020614899833981519152602052604090205480156145185760001991818301918083116122f157600080516020614959833981519152549384019384116122f15783836144e194600096036144e7575b5050506144c461437b565b600052600080516020614899833981519152602052604060002090565b55600190565b6144c4614509916144fa61450f946141aa565b90549060031b1c9283916141aa565b90612955565b553880806144b9565b5050600090565b6000818152600080516020614979833981519152602052604090205480156145185760001991818301918083116122f157600080516020614939833981519152549384019384116122f15783836144e194600096036145a1575b5050506145846143e3565b600052600080516020614979833981519152602052604060002090565b614584614509916145b46145c3946141ed565b90549060031b1c9283916141ed565b55388080614579565b600181019180600052826020526040600020549283151560001461466c5760001992848401908582116122f15780549485019485116122f1576000958583614620946144e1980361462f575b505050614435565b90600052602052604060002090565b614653614509916146436146639487614230565b90549060031b1c92839187614230565b8590600052602052604060002090565b55388080614618565b50505050600090565b806000526000805160206148998339815191528060205260406000205415600014614518576000805160206149598339815191528054600160401b811015611bf957600181018083558110156122bd5783907fa543db6724dca3e06c9a739e16672b6894bb866e0b44759e50bc403282ce062701555491600052602052604060002055600190565b806000526000805160206149798339815191528060205260406000205415600014614518576000805160206149398339815191528054600160401b811015611bf957600181018083558110156122bd5783907f94ce1cc9f419dbfb0d7a61a6415af9981ee3d1c02ba0de79a3c180abfae2b40101555491600052602052604060002055600190565b60018101908260005281602052604060002054156000146147ee578054600160401b811015611bf9576147d96147c2826001879401855584614230565b819391549060031b91821b91600019901b19161790565b90555491600052602052604060002055600190565b505050600090565b600052600080516020614899833981519152602052604060002054151590565b9291907f7fffffffffffffffffffffffffffffff5d576e7357a4501ddfe92f46681b20a0831161488c5791608094939160ff602094604051948552168484015260408301526060820152600093849182805260015afa156140ec5781516001600160a01b03811615614886579190565b50600190565b5050505060009060039056fedfd123095cdedb1cecbc229b30f7cf8745fb3d3951645ac4a8fa4c0895f89504dfd123095cdedb1cecbc229b30f7cf8745fb3d3951645ac4a8fa4c0895f89501526824944047da5b81071fb6349412005c5da81380b336103fbe5dd34556c776dfd123095cdedb1cecbc229b30f7cf8745fb3d3951645ac4a8fa4c0895f89505dfd123095cdedb1cecbc229b30f7cf8745fb3d3951645ac4a8fa4c0895f89500dfd123095cdedb1cecbc229b30f7cf8745fb3d3951645ac4a8fa4c0895f89508dfd123095cdedb1cecbc229b30f7cf8745fb3d3951645ac4a8fa4c0895f89503dfd123095cdedb1cecbc229b30f7cf8745fb3d3951645ac4a8fa4c0895f89509dfd123095cdedb1cecbc229b30f7cf8745fb3d3951645ac4a8fa4c0895f8950aa264697066735822122039d498a7befc0c11a5282c2bca779651ec21721f42c748db5e05902701a851fd64736f6c63430008160033",
  "devdoc": {
    "errors": {
      "AlreadyInitialized()": [
        {
          "details": "Emitted when attempting to initialize an already initialized or locked contract."
        }
      ]
    },
    "events": {
      "Initialized(uint8)": {
        "details": "Triggered when the contract has been initialized or reinitialized."
      }
    },
    "kind": "dev",
    "methods": {
      "constructor": {
        "custom:oz-upgrades-unsafe-allow": "constructor"
      },
      "owner()": {
        "details": "Returns the address of the current owner."
      },
      "previewSettlementResults((address,address,uint256,bytes32,uint256,bytes)[])": {
        "details": "WARNING: If the same user appears multiple times in the batch,      only the first occurrence will show accurate preview results.      Subsequent occurrences will use stale balance/nonce values since      this is a view function that cannot simulate state changes.      For accurate preview of batches with duplicate users, call this      function separately for each unique user.",
        "params": {
          "settlements": "Array of settlement data to preview"
        },
        "returns": {
          "failedUsers": "Array of user addresses that failed validation",
          "failureReasons": "Array of failure reasons corresponding to failedUsers",
          "partialAmounts": "Array of unsettled amounts corresponding to partialUsers",
          "partialUsers": "Array of user addresses with insufficient balance"
        }
      },
      "renounceOwnership()": {
        "details": "Leaves the contract without owner. It will not be possible to call `onlyOwner` functions anymore. Can only be called by the current owner. NOTE: Renouncing ownership will leave the contract without an owner, thereby removing any functionality that is only available to the owner."
      },
      "settleFeesWithTEE((address,address,uint256,bytes32,uint256,bytes)[])": {
        "details": "Status codes: 0=SUCCESS, 1=PARTIAL_SETTLEMENT, 2=PROVIDER_MISMATCH, 3=NO_TEE_SIGNER, 4=INVALID_NONCE, 5=INVALID_SIGNATUREStatuses array has same length as input, with statuses[i] corresponding to settlements[i]All settlement details are emitted via TEESettlementResult events",
        "params": {
          "settlements": "Array of settlement data to process"
        },
        "returns": {
          "statuses": "Array of settlement statuses (uint8), preserving one-to-one correspondence with input"
        }
      },
      "supportsInterface(bytes4)": {
        "details": "See {IERC165-supportsInterface}."
      },
      "transferOwnership(address)": {
        "details": "Transfers ownership of the contract to a new account (`newOwner`). Can only be called by the current owner."
      }
    },
    "version": 1
  },
  "userdoc": {
    "kind": "user",
    "methods": {
      "previewSettlementResults((address,address,uint256,bytes32,uint256,bytes)[])": {
        "notice": "Preview settlement results for a batch of settlements without state changes"
      },
      "settleFeesWithTEE((address,address,uint256,bytes32,uint256,bytes)[])": {
        "notice": "Settle fees with TEE-signed settlement data"
      }
    },
    "version": 1
  },
  "storageLayout": {
    "storage": [
      {
        "astId": 7,
        "contract": "contracts/inference/InferenceServing.sol:InferenceServing",
        "label": "_owner",
        "offset": 0,
        "slot": "0",
        "type": "t_address"
      },
      {
        "astId": 15199,
        "contract": "contracts/inference/InferenceServing.sol:InferenceServing",
        "label": "initialized",
        "offset": 20,
        "slot": "0",
        "type": "t_bool"
      },
      {
        "astId": 15202,
        "contract": "contracts/inference/InferenceServing.sol:InferenceServing",
        "label": "_initializationLocked",
        "offset": 21,
        "slot": "0",
        "type": "t_bool"
      },
      {
        "astId": 123,
        "contract": "contracts/inference/InferenceServing.sol:InferenceServing",
        "label": "_status",
        "offset": 0,
        "slot": "1",
        "type": "t_uint256"
      }
    ],
    "types": {
      "t_address": {
        "encoding": "inplace",
        "label": "address",
        "numberOfBytes": "20"
      },
      "t_bool": {
        "encoding": "inplace",
        "label": "bool",
        "numberOfBytes": "1"
      },
      "t_uint256": {
        "encoding": "inplace",
        "label": "uint256",
        "numberOfBytes": "32"
      }
    }
  }
}