{
  "address": "0x71BC400e0545cD0f5C137563b49dF64e75bF19d0",
  "abi": [
    {
      "inputs": [],
      "stateMutability": "nonpayable",
      "type": "constructor"
    },
    {
      "inputs": [
        {
          "internalType": "uint256",
          "name": "length",
          "type": "uint256"
        },
        {
          "internalType": "uint256",
          "name": "max",
          "type": "uint256"
        }
      ],
      "name": "AdditionalInfoTooLong",
      "type": "error"
    },
    {
      "inputs": [],
      "name": "AlreadyInitialized",
      "type": "error"
    },
    {
      "inputs": [],
      "name": "CallFailed",
      "type": "error"
    },
    {
      "inputs": [
        {
          "internalType": "address",
          "name": "caller",
          "type": "address"
        }
      ],
      "name": "CallerNotRegisteredService",
      "type": "error"
    },
    {
      "inputs": [],
      "name": "DirectDepositsDisabled",
      "type": "error"
    },
    {
      "inputs": [
        {
          "internalType": "uint256",
          "name": "available",
          "type": "uint256"
        },
        {
          "internalType": "uint256",
          "name": "required",
          "type": "uint256"
        }
      ],
      "name": "InsufficientAvailableBalance",
      "type": "error"
    },
    {
      "inputs": [
        {
          "internalType": "address",
          "name": "user",
          "type": "address"
        }
      ],
      "name": "InsufficientBalance",
      "type": "error"
    },
    {
      "inputs": [
        {
          "internalType": "address",
          "name": "serviceAddress",
          "type": "address"
        }
      ],
      "name": "InvalidServiceAddress",
      "type": "error"
    },
    {
      "inputs": [
        {
          "internalType": "string",
          "name": "serviceType",
          "type": "string"
        }
      ],
      "name": "InvalidServiceType",
      "type": "error"
    },
    {
      "inputs": [
        {
          "internalType": "address",
          "name": "user",
          "type": "address"
        }
      ],
      "name": "LedgerExists",
      "type": "error"
    },
    {
      "inputs": [],
      "name": "LedgerLocked",
      "type": "error"
    },
    {
      "inputs": [
        {
          "internalType": "address",
          "name": "user",
          "type": "address"
        }
      ],
      "name": "LedgerNotExists",
      "type": "error"
    },
    {
      "inputs": [
        {
          "internalType": "uint256",
          "name": "provided",
          "type": "uint256"
        },
        {
          "internalType": "uint256",
          "name": "required",
          "type": "uint256"
        }
      ],
      "name": "MinimumDepositRequired",
      "type": "error"
    },
    {
      "inputs": [
        {
          "internalType": "uint256",
          "name": "remainingBalance",
          "type": "uint256"
        }
      ],
      "name": "MustWithdrawAllFundsFirst",
      "type": "error"
    },
    {
      "inputs": [
        {
          "internalType": "string",
          "name": "serviceType",
          "type": "string"
        }
      ],
      "name": "NoRecommendedService",
      "type": "error"
    },
    {
      "inputs": [
        {
          "internalType": "address",
          "name": "serviceAddress",
          "type": "address"
        }
      ],
      "name": "ServiceAlreadyRegistered",
      "type": "error"
    },
    {
      "inputs": [
        {
          "internalType": "address",
          "name": "serviceAddress",
          "type": "address"
        }
      ],
      "name": "ServiceMustImplementIServing",
      "type": "error"
    },
    {
      "inputs": [
        {
          "internalType": "string",
          "name": "serviceName",
          "type": "string"
        }
      ],
      "name": "ServiceNameExists",
      "type": "error"
    },
    {
      "inputs": [
        {
          "internalType": "address",
          "name": "serviceAddress",
          "type": "address"
        }
      ],
      "name": "ServiceNotFound",
      "type": "error"
    },
    {
      "inputs": [
        {
          "internalType": "address",
          "name": "serviceAddress",
          "type": "address"
        }
      ],
      "name": "ServiceNotRegistered",
      "type": "error"
    },
    {
      "inputs": [
        {
          "internalType": "uint256",
          "name": "limit",
          "type": "uint256"
        }
      ],
      "name": "ServiceRegistryLimitReached",
      "type": "error"
    },
    {
      "inputs": [],
      "name": "ServiceTypeRequired",
      "type": "error"
    },
    {
      "inputs": [
        {
          "internalType": "uint256",
          "name": "requested",
          "type": "uint256"
        },
        {
          "internalType": "uint256",
          "name": "maximum",
          "type": "uint256"
        }
      ],
      "name": "TooManyProviders",
      "type": "error"
    },
    {
      "inputs": [
        {
          "internalType": "uint256",
          "name": "current",
          "type": "uint256"
        },
        {
          "internalType": "uint256",
          "name": "maximum",
          "type": "uint256"
        }
      ],
      "name": "TooManyProvidersForService",
      "type": "error"
    },
    {
      "inputs": [],
      "name": "TransferFailed",
      "type": "error"
    },
    {
      "inputs": [],
      "name": "VersionRequired",
      "type": "error"
    },
    {
      "inputs": [],
      "name": "ZeroAddressNotAllowed",
      "type": "error"
    },
    {
      "inputs": [],
      "name": "ZeroAmountNotAllowed",
      "type": "error"
    },
    {
      "anonymous": false,
      "inputs": [
        {
          "indexed": true,
          "internalType": "address",
          "name": "user",
          "type": "address"
        },
        {
          "indexed": true,
          "internalType": "address",
          "name": "service",
          "type": "address"
        },
        {
          "indexed": false,
          "internalType": "uint256",
          "name": "amount",
          "type": "uint256"
        }
      ],
      "name": "FundSpent",
      "type": "event"
    },
    {
      "anonymous": false,
      "inputs": [
        {
          "indexed": false,
          "internalType": "uint8",
          "name": "version",
          "type": "uint8"
        }
      ],
      "name": "Initialized",
      "type": "event"
    },
    {
      "anonymous": false,
      "inputs": [
        {
          "indexed": true,
          "internalType": "address",
          "name": "user",
          "type": "address"
        },
        {
          "indexed": false,
          "internalType": "string",
          "name": "additionalInfo",
          "type": "string"
        }
      ],
      "name": "LedgerInfoUpdated",
      "type": "event"
    },
    {
      "anonymous": false,
      "inputs": [
        {
          "indexed": true,
          "internalType": "address",
          "name": "previousOwner",
          "type": "address"
        },
        {
          "indexed": true,
          "internalType": "address",
          "name": "newOwner",
          "type": "address"
        }
      ],
      "name": "OwnershipTransferred",
      "type": "event"
    },
    {
      "anonymous": false,
      "inputs": [
        {
          "indexed": false,
          "internalType": "string",
          "name": "serviceType",
          "type": "string"
        },
        {
          "indexed": false,
          "internalType": "string",
          "name": "version",
          "type": "string"
        },
        {
          "indexed": false,
          "internalType": "address",
          "name": "serviceAddress",
          "type": "address"
        }
      ],
      "name": "RecommendedServiceUpdated",
      "type": "event"
    },
    {
      "anonymous": false,
      "inputs": [
        {
          "indexed": true,
          "internalType": "address",
          "name": "serviceAddress",
          "type": "address"
        },
        {
          "indexed": false,
          "internalType": "string",
          "name": "serviceName",
          "type": "string"
        }
      ],
      "name": "ServiceRegistered",
      "type": "event"
    },
    {
      "inputs": [],
      "name": "MAX_ADDITIONAL_INFO_LENGTH",
      "outputs": [
        {
          "internalType": "uint256",
          "name": "",
          "type": "uint256"
        }
      ],
      "stateMutability": "view",
      "type": "function"
    },
    {
      "inputs": [],
      "name": "MAX_PROVIDERS_PER_BATCH",
      "outputs": [
        {
          "internalType": "uint256",
          "name": "",
          "type": "uint256"
        }
      ],
      "stateMutability": "view",
      "type": "function"
    },
    {
      "inputs": [],
      "name": "MAX_PROVIDERS_PER_USER_PER_SERVICE",
      "outputs": [
        {
          "internalType": "uint256",
          "name": "",
          "type": "uint256"
        }
      ],
      "stateMutability": "view",
      "type": "function"
    },
    {
      "inputs": [],
      "name": "MAX_SERVICES",
      "outputs": [
        {
          "internalType": "uint256",
          "name": "",
          "type": "uint256"
        }
      ],
      "stateMutability": "view",
      "type": "function"
    },
    {
      "inputs": [],
      "name": "MIN_ACCOUNT_BALANCE",
      "outputs": [
        {
          "internalType": "uint256",
          "name": "",
          "type": "uint256"
        }
      ],
      "stateMutability": "view",
      "type": "function"
    },
    {
      "inputs": [],
      "name": "MIN_TRANSFER_AMOUNT",
      "outputs": [
        {
          "internalType": "uint256",
          "name": "",
          "type": "uint256"
        }
      ],
      "stateMutability": "view",
      "type": "function"
    },
    {
      "inputs": [
        {
          "internalType": "string",
          "name": "additionalInfo",
          "type": "string"
        }
      ],
      "name": "addLedger",
      "outputs": [
        {
          "internalType": "uint256",
          "name": "",
          "type": "uint256"
        },
        {
          "internalType": "uint256",
          "name": "",
          "type": "uint256"
        }
      ],
      "stateMutability": "payable",
      "type": "function"
    },
    {
      "inputs": [],
      "name": "deleteLedger",
      "outputs": [],
      "stateMutability": "nonpayable",
      "type": "function"
    },
    {
      "inputs": [],
      "name": "depositFund",
      "outputs": [],
      "stateMutability": "payable",
      "type": "function"
    },
    {
      "inputs": [
        {
          "internalType": "address",
          "name": "recipient",
          "type": "address"
        }
      ],
      "name": "depositFundFor",
      "outputs": [],
      "stateMutability": "payable",
      "type": "function"
    },
    {
      "inputs": [],
      "name": "getAllActiveServices",
      "outputs": [
        {
          "components": [
            {
              "internalType": "address",
              "name": "serviceAddress",
              "type": "address"
            },
            {
              "internalType": "contract IServing",
              "name": "serviceContract",
              "type": "address"
            },
            {
              "internalType": "string",
              "name": "serviceType",
              "type": "string"
            },
            {
              "internalType": "string",
              "name": "version",
              "type": "string"
            },
            {
              "internalType": "string",
              "name": "fullName",
              "type": "string"
            },
            {
              "internalType": "string",
              "name": "description",
              "type": "string"
            },
            {
              "internalType": "bool",
              "name": "isRecommended",
              "type": "bool"
            },
            {
              "internalType": "uint256",
              "name": "registeredAt",
              "type": "uint256"
            }
          ],
          "internalType": "struct ServiceInfo[]",
          "name": "",
          "type": "tuple[]"
        }
      ],
      "stateMutability": "view",
      "type": "function"
    },
    {
      "inputs": [
        {
          "internalType": "uint256",
          "name": "offset",
          "type": "uint256"
        },
        {
          "internalType": "uint256",
          "name": "limit",
          "type": "uint256"
        }
      ],
      "name": "getAllLedgers",
      "outputs": [
        {
          "components": [
            {
              "internalType": "address",
              "name": "user",
              "type": "address"
            },
            {
              "internalType": "uint256",
              "name": "availableBalance",
              "type": "uint256"
            },
            {
              "internalType": "uint256",
              "name": "totalBalance",
              "type": "uint256"
            },
            {
              "internalType": "string",
              "name": "additionalInfo",
              "type": "string"
            }
          ],
          "internalType": "struct Ledger[]",
          "name": "ledgers",
          "type": "tuple[]"
        },
        {
          "internalType": "uint256",
          "name": "total",
          "type": "uint256"
        }
      ],
      "stateMutability": "view",
      "type": "function"
    },
    {
      "inputs": [
        {
          "internalType": "string",
          "name": "serviceType",
          "type": "string"
        }
      ],
      "name": "getAllVersions",
      "outputs": [
        {
          "internalType": "string[]",
          "name": "versions",
          "type": "string[]"
        },
        {
          "internalType": "address[]",
          "name": "addresses",
          "type": "address[]"
        },
        {
          "internalType": "bool[]",
          "name": "isRecommendedFlags",
          "type": "bool[]"
        }
      ],
      "stateMutability": "view",
      "type": "function"
    },
    {
      "inputs": [
        {
          "internalType": "address",
          "name": "user",
          "type": "address"
        }
      ],
      "name": "getLedger",
      "outputs": [
        {
          "components": [
            {
              "internalType": "address",
              "name": "user",
              "type": "address"
            },
            {
              "internalType": "uint256",
              "name": "availableBalance",
              "type": "uint256"
            },
            {
              "internalType": "uint256",
              "name": "totalBalance",
              "type": "uint256"
            },
            {
              "internalType": "string",
              "name": "additionalInfo",
              "type": "string"
            }
          ],
          "internalType": "struct Ledger",
          "name": "",
          "type": "tuple"
        }
      ],
      "stateMutability": "view",
      "type": "function"
    },
    {
      "inputs": [
        {
          "internalType": "address",
          "name": "user",
          "type": "address"
        },
        {
          "internalType": "string",
          "name": "serviceName",
          "type": "string"
        }
      ],
      "name": "getLedgerProviders",
      "outputs": [
        {
          "internalType": "address[]",
          "name": "",
          "type": "address[]"
        }
      ],
      "stateMutability": "view",
      "type": "function"
    },
    {
      "inputs": [
        {
          "internalType": "string",
          "name": "serviceType",
          "type": "string"
        }
      ],
      "name": "getRecommendedService",
      "outputs": [
        {
          "internalType": "string",
          "name": "version",
          "type": "string"
        },
        {
          "internalType": "address",
          "name": "serviceAddress",
          "type": "address"
        }
      ],
      "stateMutability": "view",
      "type": "function"
    },
    {
      "inputs": [
        {
          "internalType": "string",
          "name": "serviceName",
          "type": "string"
        }
      ],
      "name": "getServiceAddressByName",
      "outputs": [
        {
          "internalType": "address",
          "name": "",
          "type": "address"
        }
      ],
      "stateMutability": "view",
      "type": "function"
    },
    {
      "inputs": [
        {
          "internalType": "address",
          "name": "serviceAddress",
          "type": "address"
        }
      ],
      "name": "getServiceInfo",
      "outputs": [
        {
          "components": [
            {
              "internalType": "address",
              "name": "serviceAddress",
              "type": "address"
            },
            {
              "internalType": "contract IServing",
              "name": "serviceContract",
              "type": "address"
            },
            {
              "internalType": "string",
              "name": "serviceType",
              "type": "string"
            },
            {
              "internalType": "string",
              "name": "version",
              "type": "string"
            },
            {
              "internalType": "string",
              "name": "fullName",
              "type": "string"
            },
            {
              "internalType": "string",
              "name": "description",
              "type": "string"
            },
            {
              "internalType": "bool",
              "name": "isRecommended",
              "type": "bool"
            },
            {
              "internalType": "uint256",
              "name": "registeredAt",
              "type": "uint256"
            }
          ],
          "internalType": "struct ServiceInfo",
          "name": "",
          "type": "tuple"
        }
      ],
      "stateMutability": "view",
      "type": "function"
    },
    {
      "inputs": [
        {
          "internalType": "address",
          "name": "owner",
          "type": "address"
        }
      ],
      "name": "initialize",
      "outputs": [],
      "stateMutability": "nonpayable",
      "type": "function"
    },
    {
      "inputs": [],
      "name": "initialized",
      "outputs": [
        {
          "internalType": "bool",
          "name": "",
          "type": "bool"
        }
      ],
      "stateMutability": "view",
      "type": "function"
    },
    {
      "inputs": [
        {
          "internalType": "string",
          "name": "serviceType",
          "type": "string"
        },
        {
          "internalType": "string",
          "name": "version",
          "type": "string"
        }
      ],
      "name": "isRecommendedVersion",
      "outputs": [
        {
          "internalType": "bool",
          "name": "",
          "type": "bool"
        }
      ],
      "stateMutability": "view",
      "type": "function"
    },
    {
      "inputs": [],
      "name": "owner",
      "outputs": [
        {
          "internalType": "address",
          "name": "",
          "type": "address"
        }
      ],
      "stateMutability": "view",
      "type": "function"
    },
    {
      "inputs": [
        {
          "internalType": "uint256",
          "name": "amount",
          "type": "uint256"
        }
      ],
      "name": "refund",
      "outputs": [],
      "stateMutability": "nonpayable",
      "type": "function"
    },
    {
      "inputs": [
        {
          "internalType": "string",
          "name": "serviceType",
          "type": "string"
        },
        {
          "internalType": "string",
          "name": "version",
          "type": "string"
        },
        {
          "internalType": "address",
          "name": "serviceAddress",
          "type": "address"
        },
        {
          "internalType": "string",
          "name": "description",
          "type": "string"
        }
      ],
      "name": "registerService",
      "outputs": [],
      "stateMutability": "nonpayable",
      "type": "function"
    },
    {
      "inputs": [],
      "name": "renounceOwnership",
      "outputs": [],
      "stateMutability": "nonpayable",
      "type": "function"
    },
    {
      "inputs": [
        {
          "internalType": "address[]",
          "name": "providers",
          "type": "address[]"
        },
        {
          "internalType": "string",
          "name": "serviceName",
          "type": "string"
        }
      ],
      "name": "retrieveFund",
      "outputs": [],
      "stateMutability": "nonpayable",
      "type": "function"
    },
    {
      "inputs": [
        {
          "internalType": "string",
          "name": "serviceType",
          "type": "string"
        },
        {
          "internalType": "string",
          "name": "version",
          "type": "string"
        }
      ],
      "name": "setRecommendedService",
      "outputs": [],
      "stateMutability": "nonpayable",
      "type": "function"
    },
    {
      "inputs": [
        {
          "internalType": "address",
          "name": "user",
          "type": "address"
        },
        {
          "internalType": "uint256",
          "name": "amount",
          "type": "uint256"
        }
      ],
      "name": "spendFund",
      "outputs": [],
      "stateMutability": "nonpayable",
      "type": "function"
    },
    {
      "inputs": [
        {
          "internalType": "address",
          "name": "provider",
          "type": "address"
        },
        {
          "internalType": "string",
          "name": "serviceName",
          "type": "string"
        },
        {
          "internalType": "uint256",
          "name": "amount",
          "type": "uint256"
        }
      ],
      "name": "transferFund",
      "outputs": [],
      "stateMutability": "nonpayable",
      "type": "function"
    },
    {
      "inputs": [
        {
          "internalType": "address",
          "name": "newOwner",
          "type": "address"
        }
      ],
      "name": "transferOwnership",
      "outputs": [],
      "stateMutability": "nonpayable",
      "type": "function"
    },
    {
      "inputs": [
        {
          "internalType": "string",
          "name": "additionalInfo",
          "type": "string"
        }
      ],
      "name": "updateAdditionalInfo",
      "outputs": [],
      "stateMutability": "nonpayable",
      "type": "function"
    },
    {
      "stateMutability": "payable",
      "type": "receive"
    }
  ],
  "transactionHash": "0x48c1a306a0f7f961d9a05d76111ed65d391b49d0419effd68c5d2415155ee99c",
  "args": [],
  "numDeployments": 7,
  "solcInputHash": "7ee176d2e9e1474933dc70e720f8a087",
  "bytecode": "0x608080604052346100c15760008054336001600160a01b031982168117808455919260ff9291906001600160a01b038516907f8be0079c531659141344cd1fd0a4f28419497f9722a3daafe3b4186f6b6457e09080a36001805560a81c1615610073575b60405161390e9081620000c78239f35b600161ff0160a01b0319163360ff60a81b191617600160a81b1760005560ff81527f7f26b83ff96e1f2b6a682f133852f6798a09c465da95921460cefb384740249890602090a13880610063565b600080fdfe60806040526004361015610023575b361561001957600080fd5b610021612d77565b005b60003560e01c806307940ea2146102135780630e8641741461020e578063158ef93e146102095780631ef4dc4414610204578063278ecde1146101ff5780632ba43b82146101fa57806331404a19146101f55780633c3dbbc7146101f0578063410b3815146101eb578063715018a6146101e657806373ef900f146101e15780638158c9e5146101dc5780638d0d8cb6146101d75780638da5cb5b146101d25780639449fe17146101cd578063987086f0146101c85780639ade3972146101c3578063a2610565146101be578063ac30b622146101b9578063aef42173146101b4578063b8d5e581146101af578063c4d66de8146101aa578063c5e53f7e146101a5578063d4dca96d146101a0578063dd8a41181461019b578063e032f73214610196578063e374248d14610191578063f2fde38b1461018c578063f585f3ea14610187578063f7cd6af9146101825763ffc22b5f0361000e57611a55565b6119ce565b61187d565b6117f0565b6117d3565b6116ed565b611619565b61145f565b611283565b6111ee565b6111c9565b6110b6565b611045565b611022565b610f55565b610dd7565b610d82565b610d59565b610c1b565b610a33565b6109d4565b610979565b6108b7565b610895565b6107eb565b61072b565b610594565b610516565b6104c6565b610404565b610228565b600091031261022357565b600080fd5b346102235760003660031901126102235760206040516101f48152f35b634e487b7160e01b600052604160045260246000fd5b608081019081106001600160401b0382111761027657604052565b610245565b6001600160401b03811161027657604052565b602081019081106001600160401b0382111761027657604052565b606081019081106001600160401b0382111761027657604052565b90601f801991011681019081106001600160401b0382111761027657604052565b6040519061010082018281106001600160401b0382111761027657604052565b6001600160401b03811161027657601f01601f191660200190565b81601f820112156102235780359061033782610305565b9261034560405194856102c4565b8284526020838301011161022357816000926020809301838601378301015290565b602060031982011261022357600435906001600160401b0382116102235761039191600401610320565b90565b60005b8381106103a75750506000910152565b8181015183820152602001610397565b906020916103d081518092818552858086019101610394565b601f01601f1916010190565b906103f46020919493946040845260408401906103b7565b6001600160a01b03909416910152565b346102235761041236610367565b604051602081019061043c602082855161042f8187858a01610394565b81010380845201826102c4565b51902060009081527f0bb5d42557ea6926c17416c5b1c1c29c28d9006d6f713295a2d385f07156ed0460205260409020546001600160a01b03169081156104a55750610492600361048c83611c46565b01611d3d565b6104a1604051928392836103dc565b0390f35b6040516316fab7f360e21b81529081906104c29060048301611c35565b0390fd5b3461022357600036600319011261022357602060ff60005460a01c166040519015158152f35b600435906001600160a01b038216820361022357565b35906001600160a01b038216820361022357565b34610223576080366003190112610223576001600160401b0360043581811161022357610547903690600401610320565b6024358281116102235761055f903690600401610320565b604435906001600160a01b0382168203610223576064359384116102235761058e610021943690600401610320565b92611d5a565b34610223576020366003190112610223576004356105b133612eeb565b600091818352600080516020613839833981519152908160205260409160ff838620541661071a57838552602052818420805460ff191660011790556105f633612f20565b6001810180548381106107035761060d84826121d1565b801515806106f2575b6106cb5750836002889594869594610630879687966121d1565b90550161063e8282546121d1565b80915515610682575b335af1610652612252565b5015610672575061066561066f91611c18565b805460ff19169055565b80f35b516312171d8360e31b8152600490fd5b6106bd6106b861069133612eeb565b61069a81613652565b506000526000805160206138b9833981519152602052604060002090565b6121e3565b6106c633612f8b565b610647565b85516315110fb160e21b8152600481019190915267016345785d8a00006024820152604490fd5b5067016345785d8a00008110610616565b845163112fed8b60e31b8152336004820152602490fd5b825163344f180560e11b8152600490fd5b34610223576060366003190112610223576107446104ec565b6024356001600160401b03811161022357610763903690600401610320565b9061076d33612eeb565b916000928084526000805160206138398339815191528060205260ff6040862054166107c25761066f93610665936107bd9284885260205260408720600160ff19825416179055604435916122de565b611c18565b60405163344f180560e11b8152600490fd5b6001600160401b0381116102765760051b60200190565b34610223576040366003190112610223576001600160401b036004358181116102235736602382011215610223578060040135610827816107d4565b9161083560405193846102c4565b8183526020916024602085019160051b8301019136831161022357602401905b82821061087e576024358587821161022357610878610021923690600401610320565b90612561565b83809161088a84610502565b815201910190610855565b34610223576000366003190112610223576020604051662386f26fc100008152f35b3461022357600080600319360112610976576002600154146109315760026001556108e133612eeb565b8082526000805160206138398339815191528060205260ff6040842054166107c25781835260205260408220805460ff1916600117905561092890610665906107bd61286f565b61066f60018055565b60405162461bcd60e51b815260206004820152601f60248201527f5265656e7472616e637947756172643a207265656e7472616e742063616c6c006044820152606490fd5b80fd5b346102235760008060031936011261097657610993612db3565b80546001600160a01b03198116825581906001600160a01b03167f8be0079c531659141344cd1fd0a4f28419497f9722a3daafe3b4186f6b6457e08280a380f35b3461022357600036600319011261022357602060405160328152f35b906040600319830112610223576001600160401b036004358181116102235783610a1c91600401610320565b926024359182116102235761039191600401610320565b3461022357610a41366109f0565b610a49612db3565b60405191610aa0610a9384610a7a610a74610a676020840187611c01565b602d60f81b815260010190565b86611c01565b0394610a8e601f19968781018352826102c4565b611f72565b546001600160a01b031690565b926001600160a01b03808516918215610bfa5785610b84610bcb947f22cc4700d5c4d3ff57ddfb4bb70d5a0e1bed5c060482e8eeeb8672d4471ad5e2989487610ba395610b056040519182610af9602082018096611c01565b039081018352826102c4565b51902091610b3f610a93846000527f0bb5d42557ea6926c17416c5b1c1c29c28d9006d6f713295a2d385f07156ed04602052604060002090565b918216908115159182610bef575b5050610bd0575b506000527f0bb5d42557ea6926c17416c5b1c1c29c28d9006d6f713295a2d385f07156ed04602052604060002090565b80546001600160a01b0319166001600160a01b03909216919091179055565b610bbf6006610bb183611c46565b01805460ff19166001179055565b604051938493846128d8565b0390a1005b6006610bde610be992611c46565b01805460ff19169055565b38610b54565b141590503880610b4d565b60405163b536580760e01b81526001600160a01b0387166004820152602490fd5b60008060031936011261097657610c3133612eeb565b8082526000805160206138398339815191528060205260ff6040842054166107c25781835260205260408220805460ff191660011790553415610d4757610c7733612eeb565b610ca2610c9e82600052600080516020613859833981519152602052604060002054151590565b1590565b15610cf95767016345785d8a00003410610cd35761066f916107bd61066592610cc961223f565b9034903390613243565b6040516315110fb160e21b815234600482015267016345785d8a00006024820152604490fd5b61066f916002610d23610665936000526000805160206138b9833981519152602052604060002090565b60018101610d32348254612862565b905501610d40348254612862565b9055611c18565b6040516307a1cab560e11b8152600490fd5b34610223576000366003190112610223576000546040516001600160a01b039091168152602090f35b3461022357600036600319011261022357602060405160148152f35b90608060606103919360018060a01b038151168452602081015160208501526040810151604085015201519181606082015201906103b7565b3461022357604036600319011261022357610df66024356004356129ca565b906040519060408201926040835281518094526060830160608560051b850101926020809101916000905b878210610e35578680878760208301520390f35b909192948380610e51600193605f198b82030186528951610d9e565b970192019201909291610e21565b80516001600160a01b031682529060e080610edc610eca610eb8610ea66101006020898101516001600160a01b0316908901526040890151908060408a01528801906103b7565b606088015187820360608901526103b7565b608087015186820360808801526103b7565b60a086015185820360a08701526103b7565b60c08086015115159085015293015191015290565b6020808201906020835283518092526040830192602060408460051b8301019501936000915b848310610f275750505050505090565b9091929394958480610f45600193603f198682030187528a51610e5f565b9801930193019194939290610f17565b346102235760003660031901126102235760008051602061381983398151915254610f7f816107d4565b90610f8d60405192836102c4565b808252601f19610f9c826107d4565b0160005b81811061100b57505060005b818110610fc157604051806104a18582610ef1565b80610fef610fea610fe5610fd9610fd96001966137cd565b6001600160a01b031690565b611c46565b612ac9565b610ff9828661282e565b52611004818561282e565b5001610fac565b602090611016612a78565b82828701015201610fa0565b3461022357602061103b611035366109f0565b90612b5c565b6040519015158152f35b3461022357600036600319011261022357602060405167016345785d8a00008152f35b90815180825260208080930193019160005b828110611088575050505090565b83516001600160a01b03168552938101939281019260010161107a565b906020610391928181520190611068565b34610223576040366003190112610223576110cf6104ec565b6024356001600160401b038111610223576001600160a01b03906110fb90610a8e903690600401610320565b541680156111b1576111416111589260018060a01b03166000527f0bb5d42557ea6926c17416c5b1c1c29c28d9006d6f713295a2d385f07156ed0a602052604060002090565b9060018060a01b0316600052602052604060002090565b805461116381612bdc565b9160005b82811061117c57604051806104a186826110a5565b806111ab611192610fd9610fd96001958761380e565b61119c838861282e565b6001600160a01b039091169052565b01611167565b6024906040519063b536580760e01b82526004820152fd5b346102235760206001600160a01b036111e4610a8e36610367565b5416604051908152f35b34610223576020366003190112610223576112076104ec565b6000549060ff8260a01c168015611276575b6112655760ff60a01b19909116600160a01b17600055611238906131a5565b7f7f26b83ff96e1f2b6a682f133852f6798a09c465da95921460cefb3847402498602060405160018152a1005b60405162dc149f60e41b8152600490fd5b5060ff8260a81c16611219565b61128c36610367565b61129533612eeb565b80600052600080516020613839833981519152918260205260409260ff84600020541661139e578260005260205282600020600160ff1982541617905567016345785d8a0000341061137957805161100080821161135c5750506112f833612eeb565b9161131d83600052600080516020613859833981519152602052604060002054151590565b611345576107bd610665926113359434903390613243565b5134815260006020820152604090f35b835163cde58aa160e01b8152336004820152602490fd5b60449250845191631a78290b60e21b835260048301526024820152fd5b82516315110fb160e21b815234600482015267016345785d8a00006024820152604490fd5b835163344f180560e11b8152600490fd5b909160608201906060835283518092526080830160808360051b850101926020809601916000905b82821061142f5750505050906113f39183820385850152611068565b90604081830391015281808451928381520193019160005b828110611419575050505090565b835115158552938101939281019260010161140b565b90919294878061144e600193607f9b9a9b198c820301865289516103b7565b9701920192019092919695966113d7565b346102235761146d36610367565b60008051602061381983398151915254600091825b82811061159d575061149383612ca1565b916114a66114a085612bdc565b94612bdc565b91600090815b8381106114c357604051806104a1878a8a846113af565b6114d2610fd9610fd9836137cd565b6114db81611c46565b908888604080516020611520818301836114f88260028c01612c0e565b039361150c601f19958681018352826102c4565b51902093519182019282610af9858d611c01565b51902014611535575b505050506001016114ac565b600684611575899561119c8761158e9761156f60019c9e61157d9961155f60036115939f01611d3d565b611569838361282e565b5261282e565b5061282e565b015460ff1690565b611587838a61282e565b9015159052565b612c92565b9290388888611529565b60026115b1610fe5610fd9610fd9856137cd565b016040908151906115f4602091836115cc8482018093612c0e565b03936115e0601f19958681018352826102c4565b51902093519182019282610af98589611c01565b51902014611605575b600101611482565b92611611600191612c92565b9390506115fd565b3461022357604080600319360112610223576116336104ec565b33600090815260008051602061387983398151915260205282812054909291906001600160a01b0316156116c55761166a81612eeb565b918284526000805160206138398339815191528060205260ff82862054166116b4578385526020528320805460ff1916600117905561066f91610665916107bd9060243590612ceb565b815163344f180560e11b8152600490fd5b8151631b8815cf60e01b8152336004820152602490fd5b906020610391928181520190610e5f565b34610223576020366003190112610223576117066104ec565b61170e612a78565b506001600160a01b03166000908152600080516020613879833981519152602052604090206104a19060076117416102e5565b82546001600160a01b031681529160018101546001600160a01b0316602084015261176e60028201611d3d565b604084015261177f60038201611d3d565b606084015261179060048201611d3d565b60808401526117a160058201611d3d565b60a08401526117c06117b7600683015460ff1690565b151560c0850152565b015460e0820152604051918291826116dc565b346102235760003660031901126102235760206040516110008152f35b34610223576020366003190112610223576118096104ec565b611811612db3565b6001600160a01b0381161561182957610021906131a5565b60405162461bcd60e51b815260206004820152602660248201527f4f776e61626c653a206e6577206f776e657220697320746865207a65726f206160448201526564647265737360d01b6064820152608490fd5b6020366003190112610223576118916104ec565b61189a81612eeb565b6000918183526000805160206138398339815191528060205260409060ff82862054166116b457838552602052808420805460ff191660011790556001600160a01b038216156119ad57341561199d576118f382612eeb565b9061191b610c9e83600052600080516020613859833981519152602052604060002054151590565b156119705767016345785d8a0000341061194c5750916107bd6106659261066f9461194461223f565b913491613243565b516315110fb160e21b815234600482015267016345785d8a00006024820152604490fd5b506106659150916002610d2361066f946000526000805160206138b9833981519152602052604060002090565b516307a1cab560e11b8152600490fd5b516342bcdf7f60e11b8152600490fd5b906020610391928181520190610d9e565b34610223576020366003190112610223576104a16119fb6119ed6104ec565b6119f5612902565b50612f20565b6003611a4460405192611a0d8461025b565b60018060a01b0381541684526001810154602085015260028101546040850152611a3d6040518094819301611ca7565b03826102c4565b6060820152604051918291826119bd565b3461022357611a6336610367565b611a6c33612eeb565b6000918183526000805160206138398339815191526020908060205260ff6040862054166107c25783855260205260408420600190600160ff198254161790558251611000808211611be35750506003611ac533612f20565b01918351916001600160401b03831161027657611aec83611ae68654611c6d565b86611fec565b602091601f8411600114611b6c57505091611b2682610665959361066f97958991611b61575b508160011b916000199060031b1c19161790565b90555b7f12d213c9bc59dc8d250f0d6aba2d21e4e500a72a76621a44600697a285833fb160405180611b59339482611c35565b0390a2611c18565b905084015138611b12565b9190601f19841690611b8386600052602060002090565b9389915b838310611bcc575050509261066f96949260019282610665989610611bb3575b5050811b019055611b29565b85015160001960f88460031b161c191690553880611ba7565b888501518655948501949381019391810191611b87565b6044925060405191631a78290b60e21b835260048301526024820152fd5b90611c1460209282815194859201610394565b0190565b600052600080516020613839833981519152602052604060002090565b9060206103919281815201906103b7565b6001600160a01b031660009081526000805160206138798339815191526020526040902090565b90600182811c92168015611c9d575b6020831014611c8757565b634e487b7160e01b600052602260045260246000fd5b91607f1691611c7c565b805460009392611cb682611c6d565b91828252602093600191600181169081600014611d1e5750600114611cdd575b5050505050565b90939495506000929192528360002092846000945b838610611d0a57505050500101903880808080611cd6565b805485870183015294019385908201611cf2565b60ff19168685015250505090151560051b010191503880808080611cd6565b90611d58611d519260405193848092611ca7565b03836102c4565b565b929091611d65612db3565b6001600160a01b038116938415611f5157805115611f3f57835115611f2d57611d93610fd9610a9384611c46565b611f0c57604092835194611dc886611dba611db4610a676020840188611c01565b84611c01565b03601f1981018852876102c4565b611dd7610fd9610a9388611f72565b611ef257611de7610c9e85612e0b565b611ed257611df7610c9e85612e8e565b611ed2576101f4600080516020613819833981519152541015611eb95792611e97611eb49593611ea0937f4c76643f3c678c590db6e8ad9fe0bb6e75d36cb853c3bd06c487607ff35e6f719896611e4c6102e5565b6001600160a01b0386168152926001600160a01b038c16602085015287840152606083015286608083015260a0820152600060c08201524260e0820152611e9283611c46565b612102565b610b8484611f72565b611ea985613426565b505191829182611c35565b0390a2565b845163f1d44a5160e01b81526101f46004820152602490fd5b84516316219dbf60e11b81526001600160a01b0385166004820152602490fd5b845163057f36eb60e21b8152806104c28860048301611c35565b6040516353752f3960e11b81526001600160a01b0383166004820152602490fd5b604051630e84c45560e31b8152600490fd5b604051638dfa0f6f60e01b8152600490fd5b6040516364db873d60e11b81526001600160a01b0383166004820152602490fd5b6020611f8b918160405193828580945193849201610394565b81017f0bb5d42557ea6926c17416c5b1c1c29c28d9006d6f713295a2d385f07156ed0181520301902090565b91611fd19183549060031b91821b91600019901b19161790565b9055565b818110611fe0575050565b60008155600101611fd5565b9190601f8111611ffb57505050565b611d58926000526020600020906020601f840160051c83019310612027575b601f0160051c0190611fd5565b909150819061201a565b91909182516001600160401b03811161027657612058816120528454611c6d565b84611fec565b602080601f831160011461209757508190611fd193949560009261208c575b50508160011b916000199060031b1c19161790565b015190503880612077565b90601f198316956120ad85600052602060002090565b926000905b8882106120ea575050836001959697106120d1575b505050811b019055565b015160001960f88460031b161c191690553880806120c7565b806001859682949686015181550195019301906120b2565b815181546001600160a01b0319166001600160a01b039091161781559060079060e09060208101516001850180546001600160a01b0319166001600160a01b0390921691909117905561215c604082015160028601612031565b61216d606082015160038601612031565b61217e608082015160048601612031565b61218f60a082015160058601612031565b6121b461219f60c0830151151590565b600686019060ff801983541691151516179055565b0151910155565b634e487b7160e01b600052601160045260246000fd5b919082039182116121de57565b6121bb565b6003600091828155826001820155826002820155016122028154611c6d565b8061220c57505050565b82601f821160011461221d57505055565b909180825261223b601f60208420940160051c840160018501611fd5565b5555565b6040519061224c8261028e565b60008252565b3d1561227d573d9061226382610305565b9161227160405193846102c4565b82523d6000602084013e565b606090565b90816020910312610223575180151581036102235790565b6040513d6000823e3d90fd5b6001600160a01b0391821681529116602082015260606040820181905261039192910190611ca7565b90816020910312610223575190565b916122f4610a936122ee33612f20565b93611f72565b926001600160a01b03808516156125405761230e85611c46565b80546001909101546040805163147500e360e01b81523360048201526001600160a01b038681166024830152919893821696602095909316909116929082908581604481885afa90811561249b57600091612513575b50156124a05750508651631320b9eb60e11b81523360048201526001600160a01b0385166024820152918390839060449082905afa91821561249b576123c36123bc6001946124069360009161246e575b5084613193565b80936121d1565b885163745e87f760e01b868201523360248201526001600160a01b039096166044870152606486019290925290939081608481015b03601f1981018352826102c4565b945b01805483811061244e57918391612424600097958897956121d1565b905583519301915af1612435612252565b501561243e5750565b51633204506f60e01b8152600490fd5b865163adb9e04360e01b8152600481019190915260248101849052604490fd5b61248e9150873d8911612494575b61248681836102c4565b8101906122cf565b386123b5565b503d61247c565b61229a565b949190969250662386f26fc1000081106124ed5750865163e50688f960e01b84820152600192916124e8916124e1816123f8600387018533602485016122a6565b973361310c565b612408565b87516315110fb160e21b81526004810191909152662386f26fc100006024820152604490fd5b6125339150863d8811612539575b61252b81836102c4565b810190612282565b38612364565b503d612521565b60405163b536580760e01b81526001600160a01b0386166004820152602490fd5b919061256c33612eeb565b906000908282526000805160206138398339815191529060208260205260409260ff848620541661139e5785855260205282842091600192600160ff198254161790558751601481116127f85750610a936125c691611f72565b6001600160a01b039490858116156127d6576125f860016125ea8693959495611c46565b01546001600160a01b031690565b9861260233612f20565b998497859116925b61262e575b505050505050509061066591610d406001611d58959601918254612862565b81518110156127d157612651612644828461282e565b516001600160a01b031690565b875163147500e360e01b8152336004808301919091526001600160a01b039290921660248201528581604481885afa90811561249b5787916127b4575b5061269d575b5085018561260a565b976126ab612644838561282e565b885163271e279160e11b8152338b82019081526001600160a01b039092166020830152606092909183908390819060400103818b8a5af191821561249b576126fb938993612783575b5050612862565b97612709612644838561282e565b90843b1561277f578851636c79158d60e01b8152339181019182526001600160a01b03909216602082015290959493929190859087908190604001038183875af190811561249b5787968792612766575b50919293949550612694565b806127736127799261027b565b80610218565b3861275a565b8680fd5b6127a3929350803d106127ad575b61279b81836102c4565b810190612847565b50509038806126f4565b503d612791565b6127cb9150863d88116125395761252b81836102c4565b3861268e565b61260f565b845163b536580760e01b81526001600160a01b03919091166004820152602490fd5b845163414f261960e11b8152600481019190915260146024820152604490fd5b634e487b7160e01b600052603260045260246000fd5b80518210156128425760209160051b010190565b612818565b90816060910312610223578051916040602083015192015190565b919082018092116121de57565b600261287a33612f20565b0154806128c0575061288b33612f8b565b61289433612eeb565b61289d81613652565b506000526000805160206138b9833981519152602052611d5860406000206121e3565b6024906040519063f6ba0ebf60e01b82526004820152fd5b916103f4906128f46040939695966060865260608601906103b7565b9084820360208601526103b7565b6040519061290f8261025b565b606080836000815260006020820152600060408201520152565b90612933826107d4565b61294060405191826102c4565b8281528092612951601f19916107d4565b019060005b82811061296257505050565b60209061296d612902565b82828501015201612956565b906003606060405161298a8161025b565b6129c6819560018060a01b03815416835260018101546020840152600281015460408401526129bf6040518096819301611ca7565b03846102c4565b0152565b60008051602061389983398151915254929183821015612a625780612a5d575060325b81018082116121de5781612a0485612a0993613193565b6121d1565b612a1281612929565b9160005b828110612a24575050509190565b80612a41612a3c612a3760019486612862565b6131ec565b612979565b612a4b828761282e565b52612a56818661282e565b5001612a16565b6129ed565b5050604051612a708161028e565b600081529190565b6040519061010082018281106001600160401b0382111761027657604052600060e0838281528260208201526060604082015260608082015260606080820152606060a08201528260c08201520152565b906007612ad46102e5565b83546001600160a01b031681529260018101546001600160a01b03166020850152612b0160028201611d3d565b6040850152612b1260038201611d3d565b6060850152612b2360048201611d3d565b6080850152612b3460058201611d3d565b60a0850152612b53612b4a600683015460ff1690565b151560c0860152565b015460e0830152565b6021612ba9916040519381612b7b869351809260208087019101610394565b8201602d60f81b6020820152612b9a8251809360208785019101610394565b010360018101845201826102c4565b6001600160a01b0390612bbb90611f72565b54168015612bd6576006612bd060ff92611c46565b01541690565b50600090565b90612be6826107d4565b612bf360405191826102c4565b8281528092612c04601f19916107d4565b0190602036910137565b600092918154612c1d81611c6d565b92600191808316908115612c775750600114612c3a575b50505050565b9091929394506000526020906020600020906000915b858310612c665750505050019038808080612c34565b805485840152918301918101612c50565b60ff1916845250505081151590910201915038808080612c34565b60001981146121de5760010190565b90612cab826107d4565b612cb860405191826102c4565b8281528092612cc9601f19916107d4565b019060005b828110612cda57505050565b806060602080938501015201612cce565b90612cf582612f20565b600281016001815492015482038281116121de57838110612d5657508282039182116121de575560405190815233916001600160a01b0316907f6f81b9cf4ed9328799879be7651da4420ab1bc260b34ea71f72e9659aa548e6890602090a3565b60405163adb9e04360e01b8152600481019190915260248101849052604490fd5b33600090815260008051602061387983398151915260205260409020546001600160a01b0316611d5857604051630799a15f60e11b8152600490fd5b6000546001600160a01b03163303612dc757565b606460405162461bcd60e51b815260206004820152602060248201527f4f776e61626c653a2063616c6c6572206973206e6f7420746865206f776e65726044820152fd5b612e1481613372565b9081612e7c575b81612e24575090565b60209150600090604051838101906301ffc9a760e01b808352602482015260248152612e4f816102a9565b5191617530fa6000513d82612e70575b5081612e69575090565b9050151590565b60201115915038612e5f565b9050612e878161339b565b1590612e1b565b612e9781613372565b9081612ed9575b81612ea7575090565b60209150600090604051838101906301ffc9a760e01b825263160841b160e01b602482015260248152612e4f816102a9565b9050612ee48161339b565b1590612e9e565b604051602081019160018060a01b0316825260208152604081018181106001600160401b038211176102765760405251902090565b612f2981612eeb565b908160005260008051602061385983398151915260205260406000205415612f6957506000526000805160206138b9833981519152602052604060002090565b604051637d2d536b60e01b81526001600160a01b039091166004820152602490fd5b6000805160206138198339815191525460005b818110612faa57505050565b612fb9610fd9610fd9836137cd565b613004612fc582611c46565b6001600160a01b03861660009081527f0bb5d42557ea6926c17416c5b1c1c29c28d9006d6f713295a2d385f07156ed0a60205260409020909290611141565b80549061301082612bdc565b9160005b8181106130f057505081519160006001809501905b84811061303e57505050505050600101612f9e565b8154613052906001600160a01b0316610fd9565b90613060612644828661282e565b823b1561022357604051639721672560e01b81526001600160a01b038c8116600483015291909116602482015287926000908290604490829084905af190816130dd575b506130c7576130bf6130b9612644838761282e565b866137ba565b505b01613029565b6130d76130b9612644838761282e565b506130c1565b806127736130ea9261027b565b386130a4565b80613106611192610fd9610fd96001958861380e565b01613014565b6001600160a01b0390811660009081527f0bb5d42557ea6926c17416c5b1c1c29c28d9006d6f713295a2d385f07156ed0a6020908152604080832094841683529390529190912091929190815493603285101561317357613170939450169061354f565b50565b60405163e949933760e01b81526004810186905260326024820152604490fd5b90808210156131a0575090565b905090565b600080546001600160a01b039283166001600160a01b03198216811783559216907f8be0079c531659141344cd1fd0a4f28419497f9722a3daafe3b4186f6b6457e09080a3565b60008051602061389983398151915254811015612842577fb41db55c7d24928028896a7eb7f5b05917c002e0088f26af95b1bfac47132b5301546000526000805160206138b9833981519152602052604060002090565b91909392938260005260036020916000805160206138b983398151915260205261329c6040600020916001958060018501556002840155829060018060a01b03166bffffffffffffffffffffffff60a01b825416179055565b01918551916001600160401b038311610276576132bd83611ae68654611c6d565b602091601f84116001146132fb57505090806132f492613170969760009261208c5750508160011b916000199060031b1c19161790565b90556134c7565b96601f9291921984169761331486600052602060002090565b936000915b8a831061335b5750505090839291600194613170989910613342575b505050811b0190556134c7565b015160001960f88460031b161c19169055388080613335565b838501518655948501949381019391810191613319565b6000602091604051838101906301ffc9a760e01b808352602482015260248152612e4f816102a9565b6000602091604051838101906301ffc9a760e01b825263ffffffff60e01b602482015260248152612e4f816102a9565b6000805160206138998339815191528054821015612842576000527fb41db55c7d24928028896a7eb7f5b05917c002e0088f26af95b1bfac47132b530190600090565b80548210156128425760005260206000200190600090565b806000527f0bb5d42557ea6926c17416c5b1c1c29c28d9006d6f713295a2d385f07156ed0380602052604060002054156000146134c0576000805160206138198339815191528054600160401b81101561027657600181018083558110156128425783907f10f78b23dc0eb204a6d6fa9709ff7d389ae78db91903b42d2351233e11ab5ab801555491600052602052604060002055600190565b5050600090565b8060005260008051602061385983398151915280602052604060002054156000146134c0576000805160206138998339815191528054600160401b81101561027657600181018083558110156128425783907fb41db55c7d24928028896a7eb7f5b05917c002e0088f26af95b1bfac47132b5301555491600052602052604060002055600190565b60018101908260005281602052604060002054156000146135b8578054600160401b811015610276576135a361358c82600187940185558461340e565b819391549060031b91821b91600019901b19161790565b90555491600052602052604060002055600190565b505050600090565b60008051602061389983398151915280549081156136125760001982019180831015612842577fb41db55c7d24928028896a7eb7f5b05917c002e0088f26af95b1bfac47132b52600091838352015555565b634e487b7160e01b600052603160045260246000fd5b80549081156136125760001991820191613642838361340e565b909182549160031b1b1916905555565b6000818152600080516020613859833981519152602052604090205480156134c05760001991818301918083116121de57600080516020613899833981519152549384019384116121de5783836136d494600096036136da575b5050506136b76135c0565b600052600080516020613859833981519152602052604060002090565b55600190565b6136b7613702916136fa6136f0613708956133cb565b90549060031b1c90565b9283916133cb565b90611fb7565b553880806136ac565b60018101918060005282602052604060002054928315156000146137b15760001992848401908582116121de5780549485019485116121de576000958583613765946136d49803613774575b505050613628565b90600052602052604060002090565b613798613702916137886137a8948761340e565b90549060031b1c9283918761340e565b8590600052602052604060002090565b5538808061375d565b50505050600090565b610391916001600160a01b031690613711565b6000805160206138198339815191528054821015612842576000527f10f78b23dc0eb204a6d6fa9709ff7d389ae78db91903b42d2351233e11ab5ab8015490565b906136f09161340e56fe0bb5d42557ea6926c17416c5b1c1c29c28d9006d6f713295a2d385f07156ed020bb5d42557ea6926c17416c5b1c1c29c28d9006d6f713295a2d385f07156ed080bb5d42557ea6926c17416c5b1c1c29c28d9006d6f713295a2d385f07156ed060bb5d42557ea6926c17416c5b1c1c29c28d9006d6f713295a2d385f07156ed000bb5d42557ea6926c17416c5b1c1c29c28d9006d6f713295a2d385f07156ed050bb5d42557ea6926c17416c5b1c1c29c28d9006d6f713295a2d385f07156ed07a2646970667358221220149d9b3314fd64cc9fc2caadd705e19253cf7a1cf435ab620ab2883b50cb519e64736f6c63430008160033",
  "devdoc": {
    "errors": {
      "AlreadyInitialized()": [
        {
          "details": "Emitted when attempting to initialize an already initialized or locked contract."
        }
      ]
    },
    "events": {
      "Initialized(uint8)": {
        "details": "Triggered when the contract has been initialized or reinitialized."
      }
    },
    "kind": "dev",
    "methods": {
      "constructor": {
        "custom:oz-upgrades-unsafe-allow": "constructor"
      },
      "owner()": {
        "details": "Returns the address of the current owner."
      },
      "renounceOwnership()": {
        "details": "Leaves the contract without owner. It will not be possible to call `onlyOwner` functions anymore. Can only be called by the current owner. NOTE: Renouncing ownership will leave the contract without an owner, thereby removing any functionality that is only available to the owner."
      },
      "transferOwnership(address)": {
        "details": "Transfers ownership of the contract to a new account (`newOwner`). Can only be called by the current owner."
      },
      "updateAdditionalInfo(string)": {
        "params": {
          "additionalInfo": "New additional info (max 4KB)"
        }
      }
    },
    "version": 1
  },
  "userdoc": {
    "kind": "user",
    "methods": {
      "updateAdditionalInfo(string)": {
        "notice": "Update additional info for an existing ledger"
      }
    },
    "version": 1
  },
  "storageLayout": {
    "storage": [
      {
        "astId": 7,
        "contract": "contracts/ledger/LedgerManager.sol:LedgerManager",
        "label": "_owner",
        "offset": 0,
        "slot": "0",
        "type": "t_address"
      },
      {
        "astId": 15727,
        "contract": "contracts/ledger/LedgerManager.sol:LedgerManager",
        "label": "initialized",
        "offset": 20,
        "slot": "0",
        "type": "t_bool"
      },
      {
        "astId": 15730,
        "contract": "contracts/ledger/LedgerManager.sol:LedgerManager",
        "label": "_initializationLocked",
        "offset": 21,
        "slot": "0",
        "type": "t_bool"
      },
      {
        "astId": 123,
        "contract": "contracts/ledger/LedgerManager.sol:LedgerManager",
        "label": "_status",
        "offset": 0,
        "slot": "1",
        "type": "t_uint256"
      }
    ],
    "types": {
      "t_address": {
        "encoding": "inplace",
        "label": "address",
        "numberOfBytes": "20"
      },
      "t_bool": {
        "encoding": "inplace",
        "label": "bool",
        "numberOfBytes": "1"
      },
      "t_uint256": {
        "encoding": "inplace",
        "label": "uint256",
        "numberOfBytes": "32"
      }
    }
  }
}