{
  "address": "0xe45B6ec6756192E3a58B3F0B1bEC02348F8664eF",
  "abi": [
    {
      "inputs": [
        {
          "internalType": "address",
          "name": "user",
          "type": "address"
        },
        {
          "internalType": "address",
          "name": "provider",
          "type": "address"
        }
      ],
      "name": "AccountExists",
      "type": "error"
    },
    {
      "inputs": [
        {
          "internalType": "address",
          "name": "user",
          "type": "address"
        },
        {
          "internalType": "address",
          "name": "provider",
          "type": "address"
        }
      ],
      "name": "AccountNotExists",
      "type": "error"
    },
    {
      "inputs": [],
      "name": "AdditionalInfoTooLong",
      "type": "error"
    },
    {
      "inputs": [],
      "name": "AlreadyInitialized",
      "type": "error"
    },
    {
      "inputs": [
        {
          "internalType": "uint256",
          "name": "size",
          "type": "uint256"
        },
        {
          "internalType": "uint256",
          "name": "maxSize",
          "type": "uint256"
        }
      ],
      "name": "BatchSizeTooLarge",
      "type": "error"
    },
    {
      "inputs": [],
      "name": "CallerNotLedger",
      "type": "error"
    },
    {
      "inputs": [
        {
          "internalType": "string",
          "name": "id",
          "type": "string"
        }
      ],
      "name": "CannotAbandonSettledDeliverable",
      "type": "error"
    },
    {
      "inputs": [
        {
          "internalType": "string",
          "name": "id",
          "type": "string"
        }
      ],
      "name": "CannotAcknowledgeSettledDeliverable",
      "type": "error"
    },
    {
      "inputs": [],
      "name": "CannotAddStakeWhenUpdating",
      "type": "error"
    },
    {
      "inputs": [
        {
          "internalType": "string",
          "name": "id",
          "type": "string"
        }
      ],
      "name": "CannotEvictUnsettledDeliverable",
      "type": "error"
    },
    {
      "inputs": [
        {
          "internalType": "address",
          "name": "user",
          "type": "address"
        },
        {
          "internalType": "address",
          "name": "provider",
          "type": "address"
        },
        {
          "internalType": "uint256",
          "name": "balance",
          "type": "uint256"
        }
      ],
      "name": "CannotRevokeWithNonZeroBalance",
      "type": "error"
    },
    {
      "inputs": [
        {
          "internalType": "string",
          "name": "id",
          "type": "string"
        }
      ],
      "name": "DeliverableAlreadyExists",
      "type": "error"
    },
    {
      "inputs": [
        {
          "internalType": "string",
          "name": "id",
          "type": "string"
        }
      ],
      "name": "DeliverableAlreadySettled",
      "type": "error"
    },
    {
      "inputs": [
        {
          "internalType": "uint256",
          "name": "length",
          "type": "uint256"
        }
      ],
      "name": "DeliverableIdInvalidLength",
      "type": "error"
    },
    {
      "inputs": [
        {
          "internalType": "string",
          "name": "id",
          "type": "string"
        }
      ],
      "name": "DeliverableNotExists",
      "type": "error"
    },
    {
      "inputs": [],
      "name": "DirectDepositsDisabled",
      "type": "error"
    },
    {
      "inputs": [],
      "name": "ETHTransferFailed",
      "type": "error"
    },
    {
      "inputs": [
        {
          "internalType": "uint256",
          "name": "provided",
          "type": "uint256"
        },
        {
          "internalType": "uint256",
          "name": "required",
          "type": "uint256"
        }
      ],
      "name": "InsufficientStake",
      "type": "error"
    },
    {
      "inputs": [],
      "name": "InvalidLedgerAddress",
      "type": "error"
    },
    {
      "inputs": [
        {
          "internalType": "string",
          "name": "reason",
          "type": "string"
        }
      ],
      "name": "InvalidVerifierInput",
      "type": "error"
    },
    {
      "inputs": [
        {
          "internalType": "uint256",
          "name": "limit",
          "type": "uint256"
        }
      ],
      "name": "LimitTooLarge",
      "type": "error"
    },
    {
      "inputs": [
        {
          "internalType": "uint256",
          "name": "lockTime",
          "type": "uint256"
        }
      ],
      "name": "LockTimeOutOfRange",
      "type": "error"
    },
    {
      "inputs": [
        {
          "internalType": "uint256",
          "name": "percentage",
          "type": "uint256"
        }
      ],
      "name": "PenaltyPercentageTooHigh",
      "type": "error"
    },
    {
      "inputs": [
        {
          "internalType": "string",
          "name": "id",
          "type": "string"
        }
      ],
      "name": "PreviousDeliverableNotAcknowledged",
      "type": "error"
    },
    {
      "inputs": [],
      "name": "SecretShouldBeEmpty",
      "type": "error"
    },
    {
      "inputs": [],
      "name": "SecretShouldNotBeEmpty",
      "type": "error"
    },
    {
      "inputs": [
        {
          "internalType": "address",
          "name": "provider",
          "type": "address"
        }
      ],
      "name": "ServiceNotExist",
      "type": "error"
    },
    {
      "inputs": [
        {
          "internalType": "address",
          "name": "user",
          "type": "address"
        },
        {
          "internalType": "address",
          "name": "provider",
          "type": "address"
        }
      ],
      "name": "TooManyRefunds",
      "type": "error"
    },
    {
      "inputs": [],
      "name": "TransferToLedgerFailed",
      "type": "error"
    },
    {
      "anonymous": false,
      "inputs": [
        {
          "indexed": true,
          "internalType": "address",
          "name": "user",
          "type": "address"
        },
        {
          "indexed": true,
          "internalType": "address",
          "name": "provider",
          "type": "address"
        },
        {
          "indexed": false,
          "internalType": "uint256",
          "name": "refundedAmount",
          "type": "uint256"
        }
      ],
      "name": "AccountDeleted",
      "type": "event"
    },
    {
      "anonymous": false,
      "inputs": [
        {
          "indexed": true,
          "internalType": "address",
          "name": "user",
          "type": "address"
        },
        {
          "indexed": true,
          "internalType": "address",
          "name": "provider",
          "type": "address"
        },
        {
          "indexed": false,
          "internalType": "uint256",
          "name": "amount",
          "type": "uint256"
        },
        {
          "indexed": false,
          "internalType": "uint256",
          "name": "pendingRefund",
          "type": "uint256"
        }
      ],
      "name": "BalanceUpdated",
      "type": "event"
    },
    {
      "anonymous": false,
      "inputs": [
        {
          "indexed": true,
          "internalType": "address",
          "name": "user",
          "type": "address"
        },
        {
          "indexed": true,
          "internalType": "address",
          "name": "provider",
          "type": "address"
        },
        {
          "indexed": false,
          "internalType": "string",
          "name": "deliverableId",
          "type": "string"
        },
        {
          "indexed": false,
          "internalType": "uint256",
          "name": "timestamp",
          "type": "uint256"
        }
      ],
      "name": "DeliverableAbandoned",
      "type": "event"
    },
    {
      "anonymous": false,
      "inputs": [
        {
          "indexed": true,
          "internalType": "address",
          "name": "user",
          "type": "address"
        },
        {
          "indexed": true,
          "internalType": "address",
          "name": "provider",
          "type": "address"
        },
        {
          "indexed": false,
          "internalType": "string",
          "name": "deliverableId",
          "type": "string"
        },
        {
          "indexed": false,
          "internalType": "uint256",
          "name": "timestamp",
          "type": "uint256"
        }
      ],
      "name": "DeliverableAcknowledged",
      "type": "event"
    },
    {
      "anonymous": false,
      "inputs": [
        {
          "indexed": true,
          "internalType": "address",
          "name": "user",
          "type": "address"
        },
        {
          "indexed": true,
          "internalType": "address",
          "name": "provider",
          "type": "address"
        },
        {
          "indexed": false,
          "internalType": "string",
          "name": "deliverableId",
          "type": "string"
        },
        {
          "indexed": false,
          "internalType": "bytes",
          "name": "modelRootHash",
          "type": "bytes"
        },
        {
          "indexed": false,
          "internalType": "uint256",
          "name": "timestamp",
          "type": "uint256"
        }
      ],
      "name": "DeliverableAdded",
      "type": "event"
    },
    {
      "anonymous": false,
      "inputs": [
        {
          "indexed": true,
          "internalType": "address",
          "name": "provider",
          "type": "address"
        },
        {
          "indexed": true,
          "internalType": "address",
          "name": "user",
          "type": "address"
        },
        {
          "indexed": false,
          "internalType": "string",
          "name": "evictedDeliverableId",
          "type": "string"
        },
        {
          "indexed": false,
          "internalType": "string",
          "name": "newDeliverableId",
          "type": "string"
        },
        {
          "indexed": false,
          "internalType": "uint256",
          "name": "timestamp",
          "type": "uint256"
        }
      ],
      "name": "DeliverableEvicted",
      "type": "event"
    },
    {
      "anonymous": false,
      "inputs": [
        {
          "indexed": true,
          "internalType": "address",
          "name": "user",
          "type": "address"
        },
        {
          "indexed": true,
          "internalType": "address",
          "name": "provider",
          "type": "address"
        },
        {
          "indexed": false,
          "internalType": "string",
          "name": "deliverableId",
          "type": "string"
        },
        {
          "indexed": false,
          "internalType": "uint256",
          "name": "fee",
          "type": "uint256"
        },
        {
          "indexed": false,
          "internalType": "bool",
          "name": "acknowledged",
          "type": "bool"
        },
        {
          "indexed": false,
          "internalType": "uint256",
          "name": "nonce",
          "type": "uint256"
        }
      ],
      "name": "FeesSettled",
      "type": "event"
    },
    {
      "anonymous": false,
      "inputs": [
        {
          "indexed": false,
          "internalType": "uint8",
          "name": "version",
          "type": "uint8"
        }
      ],
      "name": "Initialized",
      "type": "event"
    },
    {
      "anonymous": false,
      "inputs": [
        {
          "indexed": false,
          "internalType": "uint256",
          "name": "oldLockTime",
          "type": "uint256"
        },
        {
          "indexed": false,
          "internalType": "uint256",
          "name": "newLockTime",
          "type": "uint256"
        }
      ],
      "name": "LockTimeUpdated",
      "type": "event"
    },
    {
      "anonymous": false,
      "inputs": [
        {
          "indexed": true,
          "internalType": "address",
          "name": "previousOwner",
          "type": "address"
        },
        {
          "indexed": true,
          "internalType": "address",
          "name": "newOwner",
          "type": "address"
        }
      ],
      "name": "OwnershipTransferred",
      "type": "event"
    },
    {
      "anonymous": false,
      "inputs": [
        {
          "indexed": true,
          "internalType": "address",
          "name": "provider",
          "type": "address"
        },
        {
          "indexed": false,
          "internalType": "uint256",
          "name": "amount",
          "type": "uint256"
        }
      ],
      "name": "ProviderStakeReturned",
      "type": "event"
    },
    {
      "anonymous": false,
      "inputs": [
        {
          "indexed": true,
          "internalType": "address",
          "name": "provider",
          "type": "address"
        },
        {
          "indexed": false,
          "internalType": "uint256",
          "name": "amount",
          "type": "uint256"
        }
      ],
      "name": "ProviderStaked",
      "type": "event"
    },
    {
      "anonymous": false,
      "inputs": [
        {
          "indexed": true,
          "internalType": "address",
          "name": "provider",
          "type": "address"
        },
        {
          "indexed": true,
          "internalType": "address",
          "name": "teeSignerAddress",
          "type": "address"
        },
        {
          "indexed": false,
          "internalType": "bool",
          "name": "acknowledged",
          "type": "bool"
        }
      ],
      "name": "ProviderTEESignerAcknowledged",
      "type": "event"
    },
    {
      "anonymous": false,
      "inputs": [
        {
          "indexed": true,
          "internalType": "address",
          "name": "user",
          "type": "address"
        },
        {
          "indexed": true,
          "internalType": "address",
          "name": "provider",
          "type": "address"
        },
        {
          "indexed": true,
          "internalType": "uint256",
          "name": "index",
          "type": "uint256"
        },
        {
          "indexed": false,
          "internalType": "uint256",
          "name": "timestamp",
          "type": "uint256"
        }
      ],
      "name": "RefundRequested",
      "type": "event"
    },
    {
      "anonymous": false,
      "inputs": [
        {
          "indexed": true,
          "internalType": "address",
          "name": "provider",
          "type": "address"
        }
      ],
      "name": "ServiceRemoved",
      "type": "event"
    },
    {
      "anonymous": false,
      "inputs": [
        {
          "indexed": true,
          "internalType": "address",
          "name": "provider",
          "type": "address"
        },
        {
          "indexed": false,
          "internalType": "string",
          "name": "url",
          "type": "string"
        },
        {
          "components": [
            {
              "internalType": "uint256",
              "name": "cpuCount",
              "type": "uint256"
            },
            {
              "internalType": "uint256",
              "name": "nodeMemory",
              "type": "uint256"
            },
            {
              "internalType": "uint256",
              "name": "gpuCount",
              "type": "uint256"
            },
            {
              "internalType": "uint256",
              "name": "nodeStorage",
              "type": "uint256"
            },
            {
              "internalType": "string",
              "name": "gpuType",
              "type": "string"
            }
          ],
          "indexed": false,
          "internalType": "struct Quota",
          "name": "quota",
          "type": "tuple"
        },
        {
          "indexed": false,
          "internalType": "uint256",
          "name": "pricePerToken",
          "type": "uint256"
        },
        {
          "indexed": false,
          "internalType": "address",
          "name": "teeSignerAddress",
          "type": "address"
        },
        {
          "indexed": false,
          "internalType": "bool",
          "name": "occupied",
          "type": "bool"
        }
      ],
      "name": "ServiceUpdated",
      "type": "event"
    },
    {
      "inputs": [],
      "name": "MAX_LOCKTIME",
      "outputs": [
        {
          "internalType": "uint256",
          "name": "",
          "type": "uint256"
        }
      ],
      "stateMutability": "view",
      "type": "function"
    },
    {
      "inputs": [],
      "name": "MIN_LOCKTIME",
      "outputs": [
        {
          "internalType": "uint256",
          "name": "",
          "type": "uint256"
        }
      ],
      "stateMutability": "view",
      "type": "function"
    },
    {
      "inputs": [],
      "name": "MIN_PROVIDER_STAKE",
      "outputs": [
        {
          "internalType": "uint256",
          "name": "",
          "type": "uint256"
        }
      ],
      "stateMutability": "view",
      "type": "function"
    },
    {
      "inputs": [
        {
          "internalType": "address",
          "name": "user",
          "type": "address"
        },
        {
          "internalType": "string",
          "name": "id",
          "type": "string"
        }
      ],
      "name": "abandonDeliverable",
      "outputs": [],
      "stateMutability": "nonpayable",
      "type": "function"
    },
    {
      "inputs": [
        {
          "internalType": "address",
          "name": "user",
          "type": "address"
        },
        {
          "internalType": "address",
          "name": "provider",
          "type": "address"
        }
      ],
      "name": "accountExists",
      "outputs": [
        {
          "internalType": "bool",
          "name": "",
          "type": "bool"
        }
      ],
      "stateMutability": "view",
      "type": "function"
    },
    {
      "inputs": [
        {
          "internalType": "address",
          "name": "provider",
          "type": "address"
        },
        {
          "internalType": "string",
          "name": "id",
          "type": "string"
        }
      ],
      "name": "acknowledgeDeliverable",
      "outputs": [],
      "stateMutability": "nonpayable",
      "type": "function"
    },
    {
      "inputs": [
        {
          "internalType": "address",
          "name": "provider",
          "type": "address"
        },
        {
          "internalType": "bool",
          "name": "acknowledged",
          "type": "bool"
        }
      ],
      "name": "acknowledgeTEESigner",
      "outputs": [],
      "stateMutability": "nonpayable",
      "type": "function"
    },
    {
      "inputs": [
        {
          "internalType": "address",
          "name": "provider",
          "type": "address"
        }
      ],
      "name": "acknowledgeTEESignerByOwner",
      "outputs": [],
      "stateMutability": "nonpayable",
      "type": "function"
    },
    {
      "inputs": [
        {
          "internalType": "address",
          "name": "user",
          "type": "address"
        },
        {
          "internalType": "address",
          "name": "provider",
          "type": "address"
        },
        {
          "internalType": "string",
          "name": "additionalInfo",
          "type": "string"
        }
      ],
      "name": "addAccount",
      "outputs": [],
      "stateMutability": "payable",
      "type": "function"
    },
    {
      "inputs": [
        {
          "internalType": "address",
          "name": "user",
          "type": "address"
        },
        {
          "internalType": "string",
          "name": "id",
          "type": "string"
        },
        {
          "internalType": "bytes",
          "name": "modelRootHash",
          "type": "bytes"
        }
      ],
      "name": "addDeliverable",
      "outputs": [],
      "stateMutability": "nonpayable",
      "type": "function"
    },
    {
      "inputs": [
        {
          "internalType": "string",
          "name": "url",
          "type": "string"
        },
        {
          "components": [
            {
              "internalType": "uint256",
              "name": "cpuCount",
              "type": "uint256"
            },
            {
              "internalType": "uint256",
              "name": "nodeMemory",
              "type": "uint256"
            },
            {
              "internalType": "uint256",
              "name": "gpuCount",
              "type": "uint256"
            },
            {
              "internalType": "uint256",
              "name": "nodeStorage",
              "type": "uint256"
            },
            {
              "internalType": "string",
              "name": "gpuType",
              "type": "string"
            }
          ],
          "internalType": "struct Quota",
          "name": "quota",
          "type": "tuple"
        },
        {
          "internalType": "uint256",
          "name": "pricePerToken",
          "type": "uint256"
        },
        {
          "internalType": "bool",
          "name": "occupied",
          "type": "bool"
        },
        {
          "internalType": "string[]",
          "name": "models",
          "type": "string[]"
        },
        {
          "internalType": "address",
          "name": "teeSignerAddress",
          "type": "address"
        }
      ],
      "name": "addOrUpdateService",
      "outputs": [],
      "stateMutability": "payable",
      "type": "function"
    },
    {
      "inputs": [
        {
          "internalType": "address",
          "name": "user",
          "type": "address"
        },
        {
          "internalType": "address",
          "name": "provider",
          "type": "address"
        }
      ],
      "name": "deleteAccount",
      "outputs": [],
      "stateMutability": "nonpayable",
      "type": "function"
    },
    {
      "inputs": [
        {
          "internalType": "address",
          "name": "user",
          "type": "address"
        },
        {
          "internalType": "address",
          "name": "provider",
          "type": "address"
        },
        {
          "internalType": "uint256",
          "name": "cancelRetrievingAmount",
          "type": "uint256"
        }
      ],
      "name": "depositFund",
      "outputs": [],
      "stateMutability": "payable",
      "type": "function"
    },
    {
      "inputs": [
        {
          "internalType": "address",
          "name": "user",
          "type": "address"
        },
        {
          "internalType": "address",
          "name": "provider",
          "type": "address"
        }
      ],
      "name": "getAccount",
      "outputs": [
        {
          "components": [
            {
              "internalType": "address",
              "name": "user",
              "type": "address"
            },
            {
              "internalType": "address",
              "name": "provider",
              "type": "address"
            },
            {
              "internalType": "uint256",
              "name": "nonce",
              "type": "uint256"
            },
            {
              "internalType": "uint256",
              "name": "balance",
              "type": "uint256"
            },
            {
              "internalType": "uint256",
              "name": "pendingRefund",
              "type": "uint256"
            },
            {
              "components": [
                {
                  "internalType": "uint256",
                  "name": "index",
                  "type": "uint256"
                },
                {
                  "internalType": "uint256",
                  "name": "amount",
                  "type": "uint256"
                },
                {
                  "internalType": "uint256",
                  "name": "createdAt",
                  "type": "uint256"
                },
                {
                  "internalType": "bool",
                  "name": "_deprecated_processed",
                  "type": "bool"
                }
              ],
              "internalType": "struct Refund[]",
              "name": "refunds",
              "type": "tuple[]"
            },
            {
              "internalType": "string",
              "name": "additionalInfo",
              "type": "string"
            },
            {
              "components": [
                {
                  "internalType": "string",
                  "name": "id",
                  "type": "string"
                },
                {
                  "internalType": "bytes",
                  "name": "modelRootHash",
                  "type": "bytes"
                },
                {
                  "internalType": "bytes",
                  "name": "encryptedSecret",
                  "type": "bytes"
                },
                {
                  "internalType": "bool",
                  "name": "acknowledged",
                  "type": "bool"
                },
                {
                  "internalType": "uint248",
                  "name": "timestamp",
                  "type": "uint248"
                },
                {
                  "internalType": "bool",
                  "name": "settled",
                  "type": "bool"
                }
              ],
              "internalType": "struct Deliverable[]",
              "name": "deliverables",
              "type": "tuple[]"
            },
            {
              "internalType": "uint256",
              "name": "validRefundsLength",
              "type": "uint256"
            },
            {
              "internalType": "uint256",
              "name": "deliverablesHead",
              "type": "uint256"
            },
            {
              "internalType": "uint256",
              "name": "deliverablesCount",
              "type": "uint256"
            },
            {
              "internalType": "bool",
              "name": "acknowledged",
              "type": "bool"
            }
          ],
          "internalType": "struct AccountDetails",
          "name": "",
          "type": "tuple"
        }
      ],
      "stateMutability": "view",
      "type": "function"
    },
    {
      "inputs": [
        {
          "internalType": "address",
          "name": "provider",
          "type": "address"
        },
        {
          "internalType": "uint256",
          "name": "offset",
          "type": "uint256"
        },
        {
          "internalType": "uint256",
          "name": "limit",
          "type": "uint256"
        }
      ],
      "name": "getAccountsByProvider",
      "outputs": [
        {
          "components": [
            {
              "internalType": "address",
              "name": "user",
              "type": "address"
            },
            {
              "internalType": "address",
              "name": "provider",
              "type": "address"
            },
            {
              "internalType": "uint256",
              "name": "nonce",
              "type": "uint256"
            },
            {
              "internalType": "uint256",
              "name": "balance",
              "type": "uint256"
            },
            {
              "internalType": "uint256",
              "name": "pendingRefund",
              "type": "uint256"
            },
            {
              "internalType": "string",
              "name": "additionalInfo",
              "type": "string"
            },
            {
              "internalType": "uint256",
              "name": "validRefundsLength",
              "type": "uint256"
            },
            {
              "internalType": "uint256",
              "name": "deliverablesCount",
              "type": "uint256"
            },
            {
              "internalType": "bool",
              "name": "acknowledged",
              "type": "bool"
            }
          ],
          "internalType": "struct AccountSummary[]",
          "name": "accounts",
          "type": "tuple[]"
        },
        {
          "internalType": "uint256",
          "name": "total",
          "type": "uint256"
        }
      ],
      "stateMutability": "view",
      "type": "function"
    },
    {
      "inputs": [
        {
          "internalType": "address",
          "name": "user",
          "type": "address"
        },
        {
          "internalType": "uint256",
          "name": "offset",
          "type": "uint256"
        },
        {
          "internalType": "uint256",
          "name": "limit",
          "type": "uint256"
        }
      ],
      "name": "getAccountsByUser",
      "outputs": [
        {
          "components": [
            {
              "internalType": "address",
              "name": "user",
              "type": "address"
            },
            {
              "internalType": "address",
              "name": "provider",
              "type": "address"
            },
            {
              "internalType": "uint256",
              "name": "nonce",
              "type": "uint256"
            },
            {
              "internalType": "uint256",
              "name": "balance",
              "type": "uint256"
            },
            {
              "internalType": "uint256",
              "name": "pendingRefund",
              "type": "uint256"
            },
            {
              "internalType": "string",
              "name": "additionalInfo",
              "type": "string"
            },
            {
              "internalType": "uint256",
              "name": "validRefundsLength",
              "type": "uint256"
            },
            {
              "internalType": "uint256",
              "name": "deliverablesCount",
              "type": "uint256"
            },
            {
              "internalType": "bool",
              "name": "acknowledged",
              "type": "bool"
            }
          ],
          "internalType": "struct AccountSummary[]",
          "name": "accounts",
          "type": "tuple[]"
        },
        {
          "internalType": "uint256",
          "name": "total",
          "type": "uint256"
        }
      ],
      "stateMutability": "view",
      "type": "function"
    },
    {
      "inputs": [
        {
          "internalType": "uint256",
          "name": "offset",
          "type": "uint256"
        },
        {
          "internalType": "uint256",
          "name": "limit",
          "type": "uint256"
        }
      ],
      "name": "getAllAccounts",
      "outputs": [
        {
          "components": [
            {
              "internalType": "address",
              "name": "user",
              "type": "address"
            },
            {
              "internalType": "address",
              "name": "provider",
              "type": "address"
            },
            {
              "internalType": "uint256",
              "name": "nonce",
              "type": "uint256"
            },
            {
              "internalType": "uint256",
              "name": "balance",
              "type": "uint256"
            },
            {
              "internalType": "uint256",
              "name": "pendingRefund",
              "type": "uint256"
            },
            {
              "internalType": "string",
              "name": "additionalInfo",
              "type": "string"
            },
            {
              "internalType": "uint256",
              "name": "validRefundsLength",
              "type": "uint256"
            },
            {
              "internalType": "uint256",
              "name": "deliverablesCount",
              "type": "uint256"
            },
            {
              "internalType": "bool",
              "name": "acknowledged",
              "type": "bool"
            }
          ],
          "internalType": "struct AccountSummary[]",
          "name": "accounts",
          "type": "tuple[]"
        },
        {
          "internalType": "uint256",
          "name": "total",
          "type": "uint256"
        }
      ],
      "stateMutability": "view",
      "type": "function"
    },
    {
      "inputs": [],
      "name": "getAllServices",
      "outputs": [
        {
          "components": [
            {
              "internalType": "address",
              "name": "provider",
              "type": "address"
            },
            {
              "internalType": "string",
              "name": "url",
              "type": "string"
            },
            {
              "components": [
                {
                  "internalType": "uint256",
                  "name": "cpuCount",
                  "type": "uint256"
                },
                {
                  "internalType": "uint256",
                  "name": "nodeMemory",
                  "type": "uint256"
                },
                {
                  "internalType": "uint256",
                  "name": "gpuCount",
                  "type": "uint256"
                },
                {
                  "internalType": "uint256",
                  "name": "nodeStorage",
                  "type": "uint256"
                },
                {
                  "internalType": "string",
                  "name": "gpuType",
                  "type": "string"
                }
              ],
              "internalType": "struct Quota",
              "name": "quota",
              "type": "tuple"
            },
            {
              "internalType": "uint256",
              "name": "pricePerToken",
              "type": "uint256"
            },
            {
              "internalType": "bool",
              "name": "occupied",
              "type": "bool"
            },
            {
              "internalType": "string[]",
              "name": "models",
              "type": "string[]"
            },
            {
              "internalType": "address",
              "name": "teeSignerAddress",
              "type": "address"
            },
            {
              "internalType": "bool",
              "name": "teeSignerAcknowledged",
              "type": "bool"
            }
          ],
          "internalType": "struct Service[]",
          "name": "services",
          "type": "tuple[]"
        }
      ],
      "stateMutability": "view",
      "type": "function"
    },
    {
      "inputs": [
        {
          "internalType": "address[]",
          "name": "users",
          "type": "address[]"
        }
      ],
      "name": "getBatchAccountsByUsers",
      "outputs": [
        {
          "components": [
            {
              "internalType": "address",
              "name": "user",
              "type": "address"
            },
            {
              "internalType": "address",
              "name": "provider",
              "type": "address"
            },
            {
              "internalType": "uint256",
              "name": "nonce",
              "type": "uint256"
            },
            {
              "internalType": "uint256",
              "name": "balance",
              "type": "uint256"
            },
            {
              "internalType": "uint256",
              "name": "pendingRefund",
              "type": "uint256"
            },
            {
              "internalType": "string",
              "name": "additionalInfo",
              "type": "string"
            },
            {
              "internalType": "uint256",
              "name": "validRefundsLength",
              "type": "uint256"
            },
            {
              "internalType": "uint256",
              "name": "deliverablesCount",
              "type": "uint256"
            },
            {
              "internalType": "bool",
              "name": "acknowledged",
              "type": "bool"
            }
          ],
          "internalType": "struct AccountSummary[]",
          "name": "accounts",
          "type": "tuple[]"
        }
      ],
      "stateMutability": "view",
      "type": "function"
    },
    {
      "inputs": [
        {
          "internalType": "address",
          "name": "user",
          "type": "address"
        },
        {
          "internalType": "address",
          "name": "provider",
          "type": "address"
        },
        {
          "internalType": "string",
          "name": "id",
          "type": "string"
        }
      ],
      "name": "getDeliverable",
      "outputs": [
        {
          "components": [
            {
              "internalType": "string",
              "name": "id",
              "type": "string"
            },
            {
              "internalType": "bytes",
              "name": "modelRootHash",
              "type": "bytes"
            },
            {
              "internalType": "bytes",
              "name": "encryptedSecret",
              "type": "bytes"
            },
            {
              "internalType": "bool",
              "name": "acknowledged",
              "type": "bool"
            },
            {
              "internalType": "uint248",
              "name": "timestamp",
              "type": "uint248"
            },
            {
              "internalType": "bool",
              "name": "settled",
              "type": "bool"
            }
          ],
          "internalType": "struct Deliverable",
          "name": "",
          "type": "tuple"
        }
      ],
      "stateMutability": "view",
      "type": "function"
    },
    {
      "inputs": [
        {
          "internalType": "address",
          "name": "user",
          "type": "address"
        },
        {
          "internalType": "address",
          "name": "provider",
          "type": "address"
        }
      ],
      "name": "getDeliverables",
      "outputs": [
        {
          "components": [
            {
              "internalType": "string",
              "name": "id",
              "type": "string"
            },
            {
              "internalType": "bytes",
              "name": "modelRootHash",
              "type": "bytes"
            },
            {
              "internalType": "bytes",
              "name": "encryptedSecret",
              "type": "bytes"
            },
            {
              "internalType": "bool",
              "name": "acknowledged",
              "type": "bool"
            },
            {
              "internalType": "uint248",
              "name": "timestamp",
              "type": "uint248"
            },
            {
              "internalType": "bool",
              "name": "settled",
              "type": "bool"
            }
          ],
          "internalType": "struct Deliverable[]",
          "name": "",
          "type": "tuple[]"
        }
      ],
      "stateMutability": "view",
      "type": "function"
    },
    {
      "inputs": [
        {
          "internalType": "address",
          "name": "user",
          "type": "address"
        },
        {
          "internalType": "address",
          "name": "provider",
          "type": "address"
        }
      ],
      "name": "getPendingRefund",
      "outputs": [
        {
          "internalType": "uint256",
          "name": "",
          "type": "uint256"
        }
      ],
      "stateMutability": "view",
      "type": "function"
    },
    {
      "inputs": [
        {
          "internalType": "address",
          "name": "provider",
          "type": "address"
        }
      ],
      "name": "getService",
      "outputs": [
        {
          "components": [
            {
              "internalType": "address",
              "name": "provider",
              "type": "address"
            },
            {
              "internalType": "string",
              "name": "url",
              "type": "string"
            },
            {
              "components": [
                {
                  "internalType": "uint256",
                  "name": "cpuCount",
                  "type": "uint256"
                },
                {
                  "internalType": "uint256",
                  "name": "nodeMemory",
                  "type": "uint256"
                },
                {
                  "internalType": "uint256",
                  "name": "gpuCount",
                  "type": "uint256"
                },
                {
                  "internalType": "uint256",
                  "name": "nodeStorage",
                  "type": "uint256"
                },
                {
                  "internalType": "string",
                  "name": "gpuType",
                  "type": "string"
                }
              ],
              "internalType": "struct Quota",
              "name": "quota",
              "type": "tuple"
            },
            {
              "internalType": "uint256",
              "name": "pricePerToken",
              "type": "uint256"
            },
            {
              "internalType": "bool",
              "name": "occupied",
              "type": "bool"
            },
            {
              "internalType": "string[]",
              "name": "models",
              "type": "string[]"
            },
            {
              "internalType": "address",
              "name": "teeSignerAddress",
              "type": "address"
            },
            {
              "internalType": "bool",
              "name": "teeSignerAcknowledged",
              "type": "bool"
            }
          ],
          "internalType": "struct Service",
          "name": "service",
          "type": "tuple"
        }
      ],
      "stateMutability": "view",
      "type": "function"
    },
    {
      "inputs": [
        {
          "internalType": "uint256",
          "name": "_locktime",
          "type": "uint256"
        },
        {
          "internalType": "address",
          "name": "_ledgerAddress",
          "type": "address"
        },
        {
          "internalType": "address",
          "name": "owner",
          "type": "address"
        },
        {
          "internalType": "uint256",
          "name": "_penaltyPercentage",
          "type": "uint256"
        }
      ],
      "name": "initialize",
      "outputs": [],
      "stateMutability": "nonpayable",
      "type": "function"
    },
    {
      "inputs": [],
      "name": "initialized",
      "outputs": [
        {
          "internalType": "bool",
          "name": "",
          "type": "bool"
        }
      ],
      "stateMutability": "view",
      "type": "function"
    },
    {
      "inputs": [],
      "name": "ledgerAddress",
      "outputs": [
        {
          "internalType": "address",
          "name": "",
          "type": "address"
        }
      ],
      "stateMutability": "view",
      "type": "function"
    },
    {
      "inputs": [],
      "name": "lockTime",
      "outputs": [
        {
          "internalType": "uint256",
          "name": "",
          "type": "uint256"
        }
      ],
      "stateMutability": "view",
      "type": "function"
    },
    {
      "inputs": [],
      "name": "owner",
      "outputs": [
        {
          "internalType": "address",
          "name": "",
          "type": "address"
        }
      ],
      "stateMutability": "view",
      "type": "function"
    },
    {
      "inputs": [],
      "name": "penaltyPercentage",
      "outputs": [
        {
          "internalType": "uint256",
          "name": "",
          "type": "uint256"
        }
      ],
      "stateMutability": "view",
      "type": "function"
    },
    {
      "inputs": [
        {
          "internalType": "address",
          "name": "user",
          "type": "address"
        },
        {
          "internalType": "address",
          "name": "provider",
          "type": "address"
        }
      ],
      "name": "processRefund",
      "outputs": [
        {
          "internalType": "uint256",
          "name": "totalAmount",
          "type": "uint256"
        },
        {
          "internalType": "uint256",
          "name": "balance",
          "type": "uint256"
        },
        {
          "internalType": "uint256",
          "name": "pendingRefund",
          "type": "uint256"
        }
      ],
      "stateMutability": "nonpayable",
      "type": "function"
    },
    {
      "inputs": [],
      "name": "removeService",
      "outputs": [],
      "stateMutability": "nonpayable",
      "type": "function"
    },
    {
      "inputs": [],
      "name": "renounceOwnership",
      "outputs": [],
      "stateMutability": "nonpayable",
      "type": "function"
    },
    {
      "inputs": [
        {
          "internalType": "address",
          "name": "user",
          "type": "address"
        },
        {
          "internalType": "address",
          "name": "provider",
          "type": "address"
        }
      ],
      "name": "requestRefundAll",
      "outputs": [],
      "stateMutability": "nonpayable",
      "type": "function"
    },
    {
      "inputs": [
        {
          "internalType": "address",
          "name": "provider",
          "type": "address"
        }
      ],
      "name": "revokeTEESignerAcknowledgement",
      "outputs": [],
      "stateMutability": "nonpayable",
      "type": "function"
    },
    {
      "inputs": [
        {
          "components": [
            {
              "internalType": "string",
              "name": "id",
              "type": "string"
            },
            {
              "internalType": "bytes",
              "name": "encryptedSecret",
              "type": "bytes"
            },
            {
              "internalType": "bytes",
              "name": "modelRootHash",
              "type": "bytes"
            },
            {
              "internalType": "uint256",
              "name": "nonce",
              "type": "uint256"
            },
            {
              "internalType": "bytes",
              "name": "signature",
              "type": "bytes"
            },
            {
              "internalType": "uint256",
              "name": "taskFee",
              "type": "uint256"
            },
            {
              "internalType": "address",
              "name": "user",
              "type": "address"
            }
          ],
          "internalType": "struct VerifierInput",
          "name": "verifierInput",
          "type": "tuple"
        }
      ],
      "name": "settleFees",
      "outputs": [],
      "stateMutability": "nonpayable",
      "type": "function"
    },
    {
      "inputs": [
        {
          "internalType": "bytes4",
          "name": "interfaceId",
          "type": "bytes4"
        }
      ],
      "name": "supportsInterface",
      "outputs": [
        {
          "internalType": "bool",
          "name": "",
          "type": "bool"
        }
      ],
      "stateMutability": "view",
      "type": "function"
    },
    {
      "inputs": [
        {
          "internalType": "address",
          "name": "newOwner",
          "type": "address"
        }
      ],
      "name": "transferOwnership",
      "outputs": [],
      "stateMutability": "nonpayable",
      "type": "function"
    },
    {
      "inputs": [
        {
          "internalType": "uint256",
          "name": "_locktime",
          "type": "uint256"
        }
      ],
      "name": "updateLockTime",
      "outputs": [],
      "stateMutability": "nonpayable",
      "type": "function"
    },
    {
      "inputs": [
        {
          "internalType": "uint256",
          "name": "_penaltyPercentage",
          "type": "uint256"
        }
      ],
      "name": "updatePenaltyPercentage",
      "outputs": [],
      "stateMutability": "nonpayable",
      "type": "function"
    },
    {
      "stateMutability": "payable",
      "type": "receive"
    }
  ],
  "transactionHash": "0x14a83b7d8f92df4c181d91419977821a2b72523de9d3f3bc2191bfb00841963b",
  "args": [],
  "numDeployments": 4,
  "solcInputHash": "ca14f47a2cfc32fc9000420e6e3af20a",
  "bytecode": "0x608080604052346100605760008054336001600160a01b0319821681178355916001600160a01b03909116907f8be0079c531659141344cd1fd0a4f28419497f9722a3daafe3b4186f6b6457e09080a360018055615a2f9081620000668239f35b600080fdfe608080604052600436101561002d575b50361561001b57600080fd5b604051630799a15f60e11b8152600490fd5b600090813560e01c90816301ffc9a71461322b575080630d66808714613200578063147500e3146131c6578063158ef93e146131a157806315908d511461317657806315a52302146130215780631d73b9f514612fd957806321fe0f3014612d5f578063264173d614612d265780633d60456a1461229a5780633ea527cb1461227c57806343d96bb314611fb05780634e3c4f2214611f4d5780634fe63f4d14611eec5780635bd7ace214611e62578063650190e714611e3e5780636c79158d14611d7e5780636dc7513d1461164e578063715018a6146115f4578063745e87f7146114545780637ff6fc1c146113b25780638da5cb5b1461138b5780639622e9341461134957806397216725146112c8578063a134f9e114611191578063a296bf4f1461105d578063aa2ad48c14610f58578063ad6dca3f14610f3b578063b2394d0914610eae578063ba16a75014610d1a578063bbee42d914610b37578063d1d2005614610b01578063ddf96abd14610a7b578063e37259e9146108f3578063e50688f91461060a578063eb961693146105ac578063f2fde38b1461051b578063fbfa4e11146104755763fd5908470361000f5734610472576040366003190112610472576101fc613280565b610229610207613296565b61020f613b23565b50610218613b23565b506102238184615193565b92614e18565b60018060a01b038254169160018060a01b0360018201541691600282015491600381015491600482015491601c81015492601d82015494601e8301549660ff601f85015416986040519a61027c8c6135a3565b8b5260208b015260408a01526060890152608088015260058101546102a08161369e565b906102ae6040519283613610565b80825260208201600584018b5260208b208b915b83831061042c57505050506006916102f09160a08a01526102e96040518094819301613861565b0382613610565b60c087015260e08601526101008501526101208401526101408301521515610160820152604051906020825260018060a01b03815116602083015260018060a01b0360208201511660408301526040810151606083015260608101516080830152608081015160a083015260a08101519261018060c08401528351806101a085015260206101c085019501915b8181106103f2575050506101606103c183946103ab60c085015191601f1992838883030160e08901526132cf565b9060e08501519086830301610100870152613720565b9161010081015161012085015261012081015161014085015261014081015182850152015115156101808301520390f35b909194602060806001926060895180518352848101518584015260408101516040840152015115156060820152019601910191909161037d565b6004602060019260405161043f816135bf565b8554815284860154838201526002860154604082015260ff600387015416151560608201528152019201920191906102c2565b80fd5b503461047257602036600319011261047257600435610492614d06565b610e108110801561050f575b6104f7576000805160206158fa83398151915280548281036104be578380f35b827f5707a70527b6cbb892bfe5d8739a8f0643d3212d9b1139bc31c742e731c65270936040935582519182526020820152a13880808380f35b60249060405190631285b07b60e01b82526004820152fd5b5062093a80811161049e565b503461047257602036600319011261047257610535613280565b61053d614d06565b6001600160a01b038116156105585761055590614d5e565b80f35b60405162461bcd60e51b815260206004820152602660248201527f4f776e61626c653a206e6577206f776e657220697320746865207a65726f206160448201526564647265737360d01b6064820152608490fd5b5034610472576020366003190112610472576004356105c9614d06565b606481116105f35760008051602061599a833981519152818154036105ec578280f35b5538808280f35b60249060405190621193a760e61b82526004820152fd5b5060603660031901126104725761061f613280565b610627613296565b6001600160401b036044358181116108ef57610647903690600401613683565b60008051602061597a833981519152546001600160a01b03929190831633036108dd576110008151116108cb5761067e848661511d565b9161068883615899565b61089e5782875260008051602061591a83398151915260205260408720913460038401556001600160601b0360a01b9085881682855416178455600191600185019087891690825416179055805192831161088a579082916106fc85946106f360068d980154613827565b6006870161398e565b602091601f84116001146107fc57506107d19361074884604098958895601e956000805160206158da8339815191529c9a926107f1575b50508160011b916000199060031b1c19161790565b60068201555b82601c82015582601d82015501556107658161576a565b508286166000527f5dcaaa00d1d3fae8cd5d66aceca789aec54970049ac35cb62a7adefca50a680660205261079d818560002061584f565b508287166000527f5dcaaa00d1d3fae8cd5d66aceca789aec54970049ac35cb62a7adefca50a68076020528360002061584f565b506107dc8486614da5565b8082519434865287602087015216941692a380f35b015190503880610733565b9190600685018652602086209286905b601f198616821061086e575050936001846000805160206158da833981519152999794601e946107d19860409b98601f19811610610855575b505050811b01600682015561074e565b015160001960f88460031b161c19169055388080610845565b8383015185558c9750938401936020938401939091019061080c565b634e487b7160e01b89526041600452602489fd5b604051632cf0675960e21b81526001600160a01b03878116600483015286166024820152604490fd5b0390fd5b60405163ef54fd9d60e01b8152600490fd5b604051632441e56960e01b8152600490fd5b8480fd5b503461047257608036600319011261047257600435610910613296565b6001600160a01b03916044358381168103610a765760643593855460ff8160a01c168015610a69575b610a585760ff60a01b1916600160a01b1786558316928315908115610a4e575b50610a3c5760648411610a245761096f90614d5e565b610e1081108015610a18575b6104f7576000805160206158fa833981519152556001600160601b0360a01b9060008051602061597a83398151915281838254161790557f5dcaaa00d1d3fae8cd5d66aceca789aec54970049ac35cb62a7adefca50a68029182541617905560008051602061599a833981519152557f7f26b83ff96e1f2b6a682f133852f6798a09c465da95921460cefb3847402498602060405160018152a180f35b5062093a80811161097b565b604051621193a760e61b815260048101859052602490fd5b60405163031cd59b60e21b8152600490fd5b90503b1538610959565b60405162dc149f60e41b8152600490fd5b5060ff8160a81c16610939565b600080fd5b503461047257602036600319011261047257600a610a97613280565b610a9f614d06565b7f4909107c46469d21135443e891c6ecae55b5baa31b338d50f391935308b08f896020610acb8361514e565b84610ad58561514e565b01805460ff60a01b19169055909301546040518581526001600160a01b0391821694939091169290a380f35b503461047257806003193601126104725760008051602061597a833981519152546040516001600160a01b039091168152602090f35b5034610472578060031936011261047257610b50613dcb565b610b5933615238565b8060005260008051602061593a83398151915260205260406000205415610d02578082526000805160206159ba83398151915260205281604081208181556001610ba560018301613e4a565b60006002830155600060038301556000600483015560006005830155610bcd60068301613e4a565b60006007830155826008830155600982018054906000815581610cc4575b505050600a0155610bfb9061550f565b5080610c06336139d5565b548015610c98578180809281610c1b336139d5565b556040518181527f17f7db034d4b59fadec3e44a684cb4396ca10fd036c4e4f718bf06e99371588260203392a2337f29d546abb6e94f4f04d5bdccb6682316f597d43776078f47e273f000e77b2a918380a2335af1610c78613a0e565b5015610c86575b6001805580f35b60405163b12d13eb60e01b8152600490fd5b5050337f29d546abb6e94f4f04d5bdccb6682316f597d43776078f47e273f000e77b2a918280a2610c7f565b60009594939291955260206000209485015b808610610ce7578293949550610beb565b919394819350610cf681613e4a565b01939290918592610cd6565b6040516304c76d3f60e11b8152336004820152602490fd5b503461047257602080600319360112610eaa57600435916001600160401b0391828411610eaa5736602385011215610eaa578360040135928311610eaa57600560243685831b8701820111610ea65760328511610e8757610d7a85613b80565b95845b868110610d9e5760405160208082528190610d9a9082018b61342f565b0390f35b600190610db933610db48684891b8701016138f7565b61511d565b610dc281615899565b610dce575b5001610d7d565b875260008051602061591a83398151915286526040872086838060a01b039182815416928582015416906006610e546002830154926003810154600482015490601c83015495601e8401549760ff601f86015416996040519b610e308d613587565b8c528b015260408a0152606089015260808801526102e96040518094819301613861565b60a085015260c084015260e08301521515610100820152610e75828b613c1e565b52610e80818a613c1e565b5038610dc7565b60405162ef8cfb60e11b81526004810186905260326024820152604490fd5b8380fd5b5080fd5b503461047257602036600319011261047257600a610eca613280565b610ed2614d06565b7f4909107c46469d21135443e891c6ecae55b5baa31b338d50f391935308b08f896020610efe8361514e565b84610f088561514e565b01805460ff60a01b1916600160a01b17905590930154604051600181526001600160a01b0391821694939091169290a380f35b50346104725780600319360112610472576020604051610e108152f35b503461047257610f673661377d565b906007610f743385615193565b01610f89610f8382858561393d565b54613827565b1561103757610f9990838361393d565b600481019081549060ff8216611014579160017f0d474986f5f081bf0e5f62804cddea0013b65e7bfdf5245ab9e10b285d246d7994926003610ff995019060ff199183838254161790551617905560405193604085526040850191613956565b42602084015233936001600160a01b0316929081900390a380f35b604051636d48abdb60e01b815260206004820152806108c7602482018888613956565b50604051635e835ecb60e11b8152602060048201529182916108c7916024840191613956565b50346104725761106c3661377d565b919061108061107b833361511d565b615899565b1561116a5760076110918333615193565b016110a0610f8382868561393d565b15611144576110b090848361393d565b60ff60048201541661111e577f0e09c5eac33273dd5442d3969e1ffe7c8fd49636d6e1a9c1a2ad6fe53933a9499160036111029201600160ff1982541617905560405194604086526040860191613956565b4260208501526001600160a01b0390921692339281900390a380f35b50826108c760405192839263064d42c760e51b8452602060048501526024840191613956565b50826108c7604051928392635e835ecb60e11b8452602060048501526024840191613956565b60405163023280eb60e21b81523360048201526001600160a01b0383166024820152604490fd5b5034610472576060366003190112610472576111ab613280565b906111b4613296565b90604435906001600160401b03821161047257506111f56111db60079236906004016134f2565b9390946111e6613aef565b506111ef613aef565b50615193565b0191611205610f8384848461393d565b156112a3579161121891610d9a9361393d565b60ff6004604051926112298461356c565b60405161123a816102e98185613861565b8452604051611250816102e98160018601613861565b6020850152604051611269816102e98160028601613861565b604085015260038101548381161515606086015260081c6080850152015416151560a08201526040519182916020835260208301906136b5565b604051635e835ecb60e11b8152602060048201529182916108c7916024840191613956565b5034610472576040366003190112610472576112e2613280565b6112ea613296565b60008051602061597a833981519152546001600160a01b0390811633036108dd576020817f342d961f860d5b1c27877a790eff2b213c020d1955a4903d6a9bf3ed590b7cd79261133a8587614f42565b9460405195865216941692a380f35b503461047257604036600319011261047257610d9a611377611369613280565b611371613296565b90614e18565b604051918291602083526020830190613720565b5034610472578060031936011261047257546040516001600160a01b039091168152602090f35b5034610472576040366003190112610472576113cc613280565b90602435801580158203610a76576113e48433615193565b601f81019160ff835416908161144c575b50611412575b5090610555919060ff801983541691151516179055565b600301549384156113fb5760405163faa2387760e01b81523360048201526001600160a01b03909116602482015260448101859052606490fd5b9050386113f5565b50606036600319011261047257611469613280565b611471613296565b60008051602061597a83398151915254604435916001600160a01b0391821633036108dd576114a08185615193565b92801515806115e7575b611513575b50816000805160206158da83398151915292604092600460038701966114d6348954613c11565b809855015460ff601f6114e9848b615193565b01541615611504575b8451968752602087015216941692a380f35b61150e8289614da5565b6114f2565b601c8401805491969095909485946005820194845b801515806115de575b156115a557600019019460016115478789613e21565b500180549098908c8111611584575090896115716115789361156b8c548092613c11565b9e613acc565b9955613e3d565b985b9894999699611528565b9b6115968161159c939d9b949d613c11565b9c613acc565b9055879661157a565b50919698509260409450946000805160206158da83398151915295849398556115d360048801918254613acc565b9055925092506114af565b508a1515611531565b50601c84015415156114aa565b503461047257806003193601126104725761160d614d06565b600080546001600160a01b0319811682556001600160a01b03167f8be0079c531659141344cd1fd0a4f28419497f9722a3daafe3b4186f6b6457e08280a380f35b503461047257606036600319011261047257611668613280565b6024356001600160401b038111611d7a576116879036906004016134f2565b906044356001600160401b0381116108ef576116a7903690600401613683565b9082158015611d6f575b611d56576116c261107b338661511d565b15611d2f576116d13385615193565b6116e2610f8360078301868561393d565b611d0957601e81015480611c3b575b6014604051916117008361356c565b61170b36888761364c565b835285602084015260405161171f816135f5565b898152604084015260608301899052426001600160f81b0316608084015260a083018990521015611b76576117668584611760601e86015460088701614be0565b90614c46565b611773601e830154614666565b601e8301558690611798600760405161178b816135f5565b8a8152945b01878661393d565b9080518051906001600160401b038211611a8a576117c0826117ba8654613827565b8661398e565b602090601f8311600114611b0d576117ef92918c91836107f15750508160011b916000199060031b1c19161790565b82555b60208101518051906001600160401b038211611a8a57611822826118196001870154613827565b6001870161398e565b602090601f8311600114611a9e5761185192918c91836107f15750508160011b916000199060031b1c19161790565b60018301555b60408101518051906001600160401b038211611a8a576118878261187e6002870154613827565b6002870161398e565b6020908b601f84116001146119e85760a07f8271eb00644a0e6352667cb763a339f72506be16fb91fd41e76b852c8951d93a9a98956118ec866119579a9761193f976119659e9b97600497926107f15750508160011b916000199060031b1c19161790565b60028501555b6003840161191260608301511515829060ff801983541691151516179055565b608082015160ff82549181199060081b1691161790550151151591019060ff801983541691151516179055565b611980575b5060405195606087526060870191613956565b9084820360208601526132cf565b42604084015233936001600160a01b0316929081900390a380f35b6119a7611998604051926060845260608401906132cf565b82810360208401528884613956565b4260408301526001600160a01b0389169133917f0f101bde80f9fd46f64cedcd834d063011c90a84007611bc3103214f6ba3ce6b919081900390a338611944565b5090600285018c5260208c20918c5b601f1985168110611a72575060a07f8271eb00644a0e6352667cb763a339f72506be16fb91fd41e76b852c8951d93a9a989560018661193f966119659d9a966004966119579d9a601f19811610611a59575b505050811b0160028501556118f2565b015160001960f88460031b161c19169055388080611a49565b919260206001819286850151815501940192016119f7565b634e487b7160e01b8b52604160045260248bfd5b9190600185018c5260208c20908c935b601f1984168510611af2576001945083601f19811610611ad9575b505050811b016001830155611857565b015160001960f88460031b161c19169055388080611ac9565b81810151835560209485019460019093019290910190611aae565b9190848c5260208c20908c935b601f1984168510611b5b576001945083601f19811610611b42575b505050811b0182556117f2565b015160001960f88460031b161c19169055388080611b35565b81810151835560209485019460019093019290910190611b1a565b611b9e9060088301601d840190611ba5611b91835483614be0565b5060405195868092613861565b0385613610565b60ff6004611bb66007880187614bf0565b01541615611c19578786611760611be493611bdc611bd760078b018a614bf0565b614c16565b855490614be0565b805460018101809111611c0557601490069055611798600760019394611790565b634e487b7160e01b8a52601160045260248afd5b604051638704db1960e01b815260206004820152806108c760248201876132cf565b60148103611cee57601d8201546014810190818111611cda57601301908111611cc657611c82611c7560146102e993065b60088601614be0565b5060405192838092613861565b60ff6003611c936007860184614bf0565b01541615611ca157506116f1565b60405163351b903960e11b8152602060048201529081906108c79060248301906132cf565b634e487b7160e01b88526011600452602488fd5b634e487b7160e01b89526011600452602489fd5b6000198101818111611cc657611c82611c756102e992611c6c565b50826108c7604051928392630d947bad60e21b8452602060048501526024840191613956565b60405163023280eb60e21b81526001600160a01b0385166004820152336024820152604490fd5b604051631ab63c8f60e21b815260048101849052602490fd5b5061010083116116b1565b8280fd5b503461047257604036600319011261047257611d98613280565b611da0613296565b60008051602061597a833981519152546001600160a01b03929190831633036108dd57611dcd8183614ad2565b601c611dd98284615193565b01549283611de5578480f35b6000198401938411611e2a576020817f54377dfdebf06f6df53fbda737d2dcd7e141f95bbfb0c1223437e856b9de3ac3926040519442865216941692a4388080808480f35b634e487b7160e01b85526011600452602485fd5b5034610472578060031936011261047257602060405168056bc75e2d631000008152f35b50346104725760403660031901126104725760243590811590811580611ee2575b611ec9575015611ebd5750611eb3611e9f60325b600435614927565b60405192839260408452604084019061342f565b9060208301520390f35b611e9f611eb391611e97565b604051635d6b903560e11b815260048101849052602490fd5b5060328311611e83565b503461047257611efb36613405565b92831590811580611f43575b611f2a5750611eb393611e9f93929115611f2457506032916147e3565b916147e3565b604051635d6b903560e11b815260048101869052602490fd5b5060328511611f07565b503461047257604036600319011261047257611f67613280565b611f6f613296565b60008051602061597a833981519152549091906001600160a01b031633036108dd57606091611f9d91613a3e565b9060405192835260208301526040820152f35b5060031960c036820112610eaa576004356001600160401b038111611d7a57611fdd9036906004016134f2565b60248035936001600160401b0385116122785760a09085360301126108ef5760405161200881613551565b84600401358152602094828101358683015260448101356040830152606481013560608301526084810135906001600160401b0382116122745760046120519236920101613683565b608082015260443594606435151560643503610a76576001600160401b0360843511612270573660236084350112156122705760843560040135916120958361369e565b926120a36040519485613610565b80845282840136868360051b60843501011161226c578560843501905b868360051b608435010182106122355750505060a4356001600160a01b03811694858203610a76576120f1336139d5565b541561219057503461217e577f9657518f02d23efc8a15c042c006a06464dd791f65394ff87310a287c69494629661214161215392612160965b6064358c8761213b368e8961364c565b33613edc565b6040519660a0885260a0880191613956565b91858303908601526132f4565b9360408301526060820152606435151560808201528033930390a280f35b6040516396ab6ec560e01b8152600490fd5b68056bc75e2d631000009793959697949192948034106122185750507f9657518f02d23efc8a15c042c006a06464dd791f65394ff87310a287c694946296959492612141612160959361215393346121e7336139d5565b556040513481527fcd6dbb0e62eeb71e114bae8b2e2547921dd19209bebf32b595be3e7d247dbbb4883392a261212b565b6040516322df051360e11b81523460048201529182015260449150fd5b8135906001600160401b0382116122685785809161225b8a948536916084350101613683565b81520192019190506120c0565b8b80fd5b8980fd5b8680fd5b8780fd5b8580fd5b5034610472578060031936011261047257602060405162093a808152f35b503461047257600319602036820112610eaa576001600160401b0360043511610eaa5760e09060043536030112610472576122d3613dcb565b6122eb6122e460c4600435016138f7565b3390615193565b906122f53361514e565b9160ff601f82015416158015612d14575b8015612cff575b612cb9576002810154606460043501351115612c6057600381015460a4600435013511612c235760078101612353610f838261234d60048035018061390b565b9061393d565b15612bf15761236a9061234d60048035018061390b565b9260ff600485015416612bbf5760405161238b816102e98160018901613861565b602081519101206123b06123a960446004350160043560040161390b565b369161364c565b6020815191012003612b7957604051908160e08101106001600160401b0360e084011117612b655760e08201604052600435600401356001600160401b0381116108ef57612405906004369181350101613683565b82526001600160401b036024600435013511610ea65761242f366004803560248101350101613683565b6020830152604460043501356001600160401b0381116108ef5761245a906004369181350101613683565b604083015260043560648101356060840152608401356001600160401b0381116108ef5761248f906004369181350101613683565b608083015260043560a481013560a084015260c401356001600160a01b0381169003610ea65760c4600435013560c0830152600a01548151516001600160a01b03909116919080158015612b5a575b612b425750612689907530472046696e652d54756e696e672053657276696e6760501b602060405161250f816135da565b601681520152603160f81b6020604051612528816135da565b600181520152608060405160208101907f8b73c3c69bb8fe3d512ecc4cf759cc79239f7b179b0ffacaa9a75d522b39400f82527fee2d3041cec28b9a0a957f2f0163e12e53119960d5a7d160e2a52db3594161e760408201527fc89efdaa54c0f20c7adf612882df0950f5a951637e0307cdcb4c672f298b8bc6606082015246838201523060a082015260a081526125bf8161356c565b519020825160208151910120602084015160208151910120604085015160208151910120606086015160a08701519060018060a01b0360c089015116926040519460208601967f62159bda4585d49f24b8da323cfc70b1fbad40f51efbf45e18fe3bdfb409945e8852604087015260608601528785015260a084015260c083015260e082015260e081526126528161351f565b51902060405190602082019261190160f01b8452602283015260428201526042815261267d816135bf565b51902091015190615204565b6005819392931015612b2e57159182612b1b575b505015612ad65760a460043501359260ff600382015416600014612a5b576126cf60246004350160043560040161390b565b905015612a49576126ea60246004350160043560040161390b565b906001600160401b038211612a35576127138261270a6002860154613827565b6002860161398e565b8490601f83116001146129c75761274192918691836129bc5750508160011b916000199060031b1c19161790565b60028201555b6004803560648101356002850155908201805460ff1916600117905561276f9060c4016138f7565b907f395fa6798087d6b0e2073c2397d19fcdada968eff962d887479501fe7e22f3c160036127bf60ff6127a660048035018061390b565b9390950154169360405192608084526080840191613956565b60208201889052921515604082015260043560640135606082015233936001600160a01b03169281900390a360038101546004820154906128008282613acc565b8511612903575b5050612817836003830154613acc565b60038201557f5dcaaa00d1d3fae8cd5d66aceca789aec54970049ac35cb62a7adefca50a68025481546001600160a01b039182169116813b15610ea6578391604483926040519485938492631bb1482360e31b845260048401528960248401525af180156128f8576128c9575b5081808094819360018060a01b038154166004600383015492015460405192835260208301526000805160206158da83398151915260403393a3335af1610c78613a0e565b6001600160401b0381939293116128e4576040529038612884565b634e487b7160e01b82526041600452602482fd5b6040513d85823e3d90fd5b6129199161291391959495613acc565b83613acc565b908192601c82015490815b801515806129b3575b1561298e5760001901918660016129478560058801613e21565b5001805490969081811161297757509061296761296e9392885490613acc565b9655613e3d565b945b9491612924565b612985925097969297613acc565b90558593612970565b509493906129a7929350601c8401556004830154613acc565b60048201553880612807565b5084151561292d565b013590503880610733565b600284939293018652602086209086935b601f1984168510612a1d576001945083601f19811610612a03575b505050811b016002820155612747565b0135600019600384901b60f8161c191690553880806129f3565b818101358355602094850194600190930192016129d8565b634e487b7160e01b85526041600452602485fd5b604051633c5f0bd160e11b8152600490fd5b9250612a7160246004350160043560040161390b565b9050612ac45760008051602061599a8339815191525460a46004350135808202819004821490151715612ab05760649060a46004350135020492612747565b634e487b7160e01b83526011600452602483fd5b604051630db0b8ed60e21b8152600490fd5b606460405163de83c54360e01b815260206004820152602060248201527f54454520736574746c656d656e742076616c69646174696f6e206661696c65646044820152fd5b6001600160a01b0316149050388061269d565b634e487b7160e01b85526021600452602485fd5b60249060405190631ab63c8f60e21b82526004820152fd5b5061010081116124de565b634e487b7160e01b84526041600452602484fd5b60405163de83c54360e01b815260206004820152601860248201527f6d6f64656c20726f6f742068617368206d69736d6174636800000000000000006044820152606490fd5b612bcd60048035018061390b565b6108c7604051928392631d819c0f60e21b8452602060048501526024840191613956565b612bff60048035018061390b565b6108c7604051928392635e835ecb60e11b8452602060048501526024840191613956565b60405163de83c54360e01b8152602060048201526014602482015273696e73756666696369656e742062616c616e636560601b6044820152606490fd5b60405163de83c54360e01b815260206004820152602a60248201527f6e6f6e63652073686f756c64206c6172676572207468616e207468652063757260448201526972656e74206e6f6e636560b01b6064820152608490fd5b60405163de83c54360e01b815260206004820152601b60248201527f544545207369676e6572206e6f742061636b6e6f776c656467656400000000006044820152606490fd5b50600a8301546001600160a01b03161561230d565b5060ff600a84015460a01c1615612306565b50346104725760403660031901126104725760206004612d55612d47613280565b612d4f613296565b90615193565b0154604051908152f35b50346104725780600319360112610472576000805160206159da8339815191525490612d8a8261369e565b91612d986040519384613610565b808352612da48161369e565b601f1901825b818110612fbc57505081905b808210612e245750506040519182916020830160208452825180915260408401602060408360051b870101940192905b828210612df557505050500390f35b91936001919395506020612e148192603f198a82030186528851613332565b9601920192018594939192612de6565b817f77917d6bf58cf8a823bfa7d4ec2e8e69c671d0dfb7928e32bdccd572fc9606e9949294015483526000805160206159ba8339815191526020526040832093604051612e708161351f565b85546001600160a01b03168152604051612e91816102e98160018b01613861565b6020820152604051612ea281613551565b60028701548152600387015460208201526004870154604082015260058701546060908183015260405191612ee583612ede8160068d01613861565b0384613610565b60809283820152604084015260078801549083015260ff6008880154161515908201526009860195865490612f198261369e565b91612f276040519384613610565b80835260208301988852602088209888905b828210612f955750505060a083810192909252600a01546001600160a01b03811660c0840152901c60ff16151560e082015293945091929091600191612f7f8286613c1e565b52612f8a8185613c1e565b500190929192612db6565b6001602081926102e9612fae8f60405192838092613861565b8152019b0191019099612f39565b602090612fca9594956137c0565b82828701015201939293612daa565b503461047257612fe836613405565b92831590811580613017575b611f2a5750611eb393611e9f939291156130115750603291613c48565b91613c48565b5060328511612ff4565b503461047257602080600319360112610eaa5761304d61303f613280565b6130476137c0565b5061514e565b916040519261305b8461351f565b60018060a01b0391828254168552600160405161307f816102e98160018801613861565b8587015260405161308f81613551565b6002840154815260038401548682015260048401546040820152600584015460608201526040516130c7816102e98160068901613861565b608082015260408701526007830154606087015260ff60088401541615156080870152600983018054906130fa8261369e565b936131086040519586613610565b828552908152868120878086015b8484106131515760a0808c01889052600a890154808b1660c08e0152901c60ff16151560e08c015260405182815280610d9a8185018e613332565b85918291604051613166816102e98189613861565b8152019201920191908890613116565b5034610472578060031936011261047257602060008051602061599a83398151915254604051908152f35b503461047257806003193601126104725760ff6020915460a01c166040519015158152f35b50346104725760403660031901126104725760206131f661107b6131e8613280565b6131f0613296565b9061511d565b6040519015158152f35b503461047257806003193601126104725760206000805160206158fa83398151915254604051908152f35b905034610eaa576020366003190112610eaa5760043563ffffffff60e01b8116809103611d7a576020925063160841b160e01b811490811561326f575b5015158152f35b6301ffc9a760e01b14905038613268565b600435906001600160a01b0382168203610a7657565b602435906001600160a01b0382168203610a7657565b60005b8381106132bf5750506000910152565b81810151838201526020016132af565b906020916132e8815180928185528580860191016132ac565b601f01601f1916010190565b9060a0608061332f938051845260208101516020850152604081015160408501526060810151606085015201519181608082015201906132cf565b90565b906101009160018060a01b0380825116835261337161335f602095868501519080888801528601906132cf565b604084015185820360408701526132f4565b6060830151606085015260808301511515608085015260a08301519484820360a08601528551908183528083019281808460051b8301019801936000915b8483106133d7575050505050508160e0929160c0849301511660c08501520151151591015290565b90919293949884806133f5600193601f198682030187528d516132cf565b9b019301930191949392906133af565b6060906003190112610a76576004356001600160a01b0381168103610a7657906024359060443590565b908082519081815260208091019281808460051b8301019501936000915b84831061345d5750505050505090565b9091929394958480600192601f198582030186528951906134c1610120868060a01b0380855116845285850151168584015260408085015190840152606080850151908401526080808501519084015260a0908082860151928501528301906132cf565b9160c0808201519083015260e08082015190830152610100809101511515910152980193019301919493929061344d565b9181601f84011215610a76578235916001600160401b038311610a765760208381860195010111610a7657565b61010081019081106001600160401b0382111761353b57604052565b634e487b7160e01b600052604160045260246000fd5b60a081019081106001600160401b0382111761353b57604052565b60c081019081106001600160401b0382111761353b57604052565b61012081019081106001600160401b0382111761353b57604052565b61018081019081106001600160401b0382111761353b57604052565b608081019081106001600160401b0382111761353b57604052565b604081019081106001600160401b0382111761353b57604052565b602081019081106001600160401b0382111761353b57604052565b90601f801991011681019081106001600160401b0382111761353b57604052565b6001600160401b03811161353b57601f01601f191660200190565b92919261365882613631565b916136666040519384613610565b829481845281830111610a76578281602093846000960137010152565b9080601f83011215610a765781602061332f9335910161364c565b6001600160401b03811161353b5760051b60200190565b9060a0806136f66136e46136d2865160c0875260c08701906132cf565b602087015186820360208801526132cf565b604086015185820360408701526132cf565b6060808601511515908501526080808601516001600160f81b031690850152930151151591015290565b90808251908181526020809101926020808460051b8301019501936000915b84831061374f5750505050505090565b909192939495848061376d600193601f198682030187528a516136b5565b980193019301919493929061373f565b906040600319830112610a76576004356001600160a01b0381168103610a765791602435906001600160401b038211610a76576137bc916004016134f2565b9091565b604051906137cd8261351f565b8160e0600091828152606060208201526040516137e981613551565b838152836020820152836040820152836060820152606060808201526040820152826060820152826080820152606060a08201528260c08201520152565b90600182811c92168015613857575b602083101461384157565b634e487b7160e01b600052602260045260246000fd5b91607f1691613836565b80546000939261387082613827565b918282526020936001916001811690816000146138d85750600114613897575b5050505050565b90939495506000929192528360002092846000945b8386106138c457505050500101903880808080613890565b8054858701830152940193859082016138ac565b60ff19168685015250505090151560051b010191503880808080613890565b356001600160a01b0381168103610a765790565b903590601e1981360301821215610a7657018035906001600160401b038211610a7657602001918136038313610a7657565b6020919283604051948593843782019081520301902090565b908060209392818452848401376000828201840152601f01601f1916010190565b818110613982575050565b60008155600101613977565b9190601f811161399d57505050565b6139c9926000526020600020906020601f840160051c830193106139cb575b601f0160051c0190613977565b565b90915081906139bc565b6001600160a01b031660009081527f5dcaaa00d1d3fae8cd5d66aceca789aec54970049ac35cb62a7adefca50a680c6020526040902090565b3d15613a39573d90613a1f82613631565b91613a2d6040519384613610565b82523d6000602084013e565b606090565b9190613a5a6000805160206158fa833981519152548285614675565b91949093919284848715613abf5750506000805160206158da833981519152604060018060a01b038082519489865288602087015216941692a3600080808087335af1613aa5613a0e565b5015613aad57565b6040516315e98f9160e01b8152600490fd5b6000975090955093505050565b91908203918211613ad957565b634e487b7160e01b600052601160045260246000fd5b60405190613afc8261356c565b600060a0836060815260606020820152606060408201528260608201528260808201520152565b60405190613b30826135a3565b81610160600091828152826020820152826040820152826060820152826080820152606060a0820152606060c0820152606060e08201528261010082015282610120820152826101408201520152565b90613b8a8261369e565b604090613b9a6040519182613610565b8381528093613bab601f199161369e565b019160005b838110613bbd5750505050565b6020908251613bcb81613587565b600081528260008183015260008583015260606000818401526000608084015260a0830152600060c0830152600060e08301526000610100830152828601015201613bb0565b91908201809211613ad957565b8051821015613c325760209160051b010190565b634e487b7160e01b600052603260045260246000fd5b6001600160a01b0390811660009081527f5dcaaa00d1d3fae8cd5d66aceca789aec54970049ac35cb62a7adefca50a68066020908152604080832080549796909392919088871015613db35780613da45750875b86898211613d9c575b613cae91613acc565b93613cb885613b80565b96845b868110613cce5750505050505050509190565b80613d48613ce6613ce08b9486613c11565b86615468565b9054600391821b1c895260008051602061591a833981519152885287878a20916006613d6987855416948b6001998a830154169460028301549083015490600484015492601c85015497601e8601549960ff601f880154169b83519d8e613587565b8d528c01528a0152606089015260808801526102e98c518094819301613861565b60a085015260c084015260e08301521515610100820152613d8a828c613c1e565b52613d95818b613c1e565b5001613cbb565b899150613ca5565b613dae9087613c11565b613c9c565b509350509250505190613dc5826135f5565b81529190565b600260015414613ddc576002600155565b60405162461bcd60e51b815260206004820152601f60248201527f5265656e7472616e637947756172643a207265656e7472616e742063616c6c006044820152606490fd5b8054821015613c325760005260206000209060021b0190600090565b8015613ad9576000190190565b613e548154613827565b9081613e5e575050565b81601f60009311600114613e70575055565b908083918252613e8f601f60208420940160051c840160018501613977565b5555565b90600160401b811161353b57815491818155828210613eb157505050565b600052602060002091820191015b818110613eca575050565b80613ed6600192613e4a565b01613ebf565b90929593949194613eec82615238565b918260005260008051602061593a8339815191529283602052604060002054156142955750613f1a81615238565b6000526000805160206159ba833981519152602052604060002092602052604060002054156142735750600a82019660018060a01b038089541696169685516001600160401b039687821161353b57613f8382613f7a6001890154613827565b6001890161398e565b602090601f8311600114614200579180613fb792608095946000926107f15750508160011b916000199060031b1c19161790565b60018601555b80516002860155602081015160038601556040810151600486015560608101516005860155015180519086821161353b5761400882613fff6006880154613827565b6006880161398e565b602090601f8311600114614188578260099695936140619593614041936000926107f15750508160011b916000199060031b1c19161790565b60068501555b6007840155600883019060ff801983541691151516179055565b0160208251926140718484613e93565b019060005260206000206000915b8383106140b957505050505081835491816001600160601b0360a01b8416178555036140aa57505050565b6001600160a81b031916179055565b805180519086821161353b576140d3826117ba8654613827565b602090601f831160011461411a579261410b836001959460209487966000926107f15750508160011b916000199060031b1c19161790565b85555b0192019201919061407f565b90601f198316918560005260206000209260005b8181106141705750936020936001969387969383889510614157575b505050811b01855561410e565b015160001960f88460031b161c1916905538808061414a565b9293602060018192878601518155019501930161412e565b906006860160005260206000209160005b601f19851681106141e85750926140619492600192600998979583601f198116106141cf575b505050811b016006850155614047565b015160001960f88460031b161c191690553880806141bf565b91926020600181928685015181550194019201614199565b906001870160005260206000209160005b601f198516811061425b575091839160019360809695601f19811610614242575b505050811b016001860155613fbd565b015160001960f88460031b161c19169055388080614232565b91926020600181928685015181550194019201614211565b6040516304c76d3f60e11b81526001600160a01b039091166004820152602490fd5b969095949897919250604051956142ab8761351f565b60018060a01b0316865260208601988952604086015260608501521515608084015260a083015260018060a01b031660c0820152600060e0820152816000526000805160206159ba83398151915260205260406000209360018060a01b038251166001600160601b0360a01b865416178555518051906001600160401b03821161353b5761434082613f7a6001890154613827565b602090601f83116001146145f4576143709291600091836107f15750508160011b916000199060031b1c19161790565b60018501555b608060408201518051600287015560208101516003870155604081015160048701556060810151600587015501518051906001600160401b03821161353b576143cf826143c66006890154613827565b6006890161398e565b602090601f8311600114614582576143ff9291600091836107f15750508160011b916000199060031b1c19161790565b60068501555b6060810151600785015561442e60808201511515600886019060ff801983541691151516179055565b6009840160a082015160208151916144468385613e93565b01916000526020600020916000905b8282106144a65750505050600a6144a39394019060018060a01b0360c08201511682549160e060ff60a01b910151151560a01b16916affffffffffffffffffffff60a81b16171790556157f1565b50565b80518051906001600160401b03821161353b576144cd826144c78854613827565b8861398e565b602090601f83116001146145145792614505836001959460209487966000926107f15750508160011b916000199060031b1c19161790565b87555b01940191019092614455565b90601f198316918760005260206000209260005b81811061456a5750936020936001969387969383889510614551575b505050811b018755614508565b015160001960f88460031b161c19169055388080614544565b92936020600181928786015181550195019301614528565b9190600687016000526020600020906000935b601f19841685106145d9576001945083601f198116106145c0575b505050811b016006850155614405565b015160001960f88460031b161c191690553880806145b0565b81810151835560209485019460019093019290910190614595565b9190600187016000526020600020906000935b601f198416851061464b576001945083601f19811610614632575b505050811b016001850155614376565b015160001960f88460031b161c19169055388080614622565b81810151835560209485019460019093019290910190614607565b6000198114613ad95760010190565b9061467f91615193565b90601c8201928354156147d05760009392936000808093819760058101945b88548a10156147aa576146b18a87613e21565b506002808201906146c38b8354613c11565b42106146e4575050600191826146db92015490613c11565b995b019861469e565b90969160019c99939c916146fd83830194855490613c11565b98858c0361471c575b5050505050614716600191614666565b966146dd565b614726868c613e21565b9490946147965791839185936147169795600199970361475d575b50505050505080614752818a613e21565b505591388080614706565b61478b95845486555490850155549083015560ff6003809201541691019060ff801983541691151516179055565b388080808080614741565b634e487b7160e01b8a5260048a905260248afd5b985094935095919450505581600460038301926147c8878554613acc565b809455015591565b6003830154600490930154600094509150565b6001600160a01b0390811660009081527f5dcaaa00d1d3fae8cd5d66aceca789aec54970049ac35cb62a7adefca50a68076020908152604080832080549796909392919088871015613db357806149185750875b86898211614910575b61484991613acc565b9361485385613b80565b96845b8681106148695750505050505050509190565b80613d4861487b613ce08b9486613c11565b9054600391821b1c895260008051602061591a833981519152885287878a209160066148dd87855416948b6001998a830154169460028301549083015490600484015492601c85015497601e8601549960ff601f880154169b83519d8e613587565b60a085015260c084015260e083015215156101008201526148fe828c613c1e565b52614909818b613c1e565b5001614856565b899150614840565b6149229087613c11565b614837565b9160008051602061595a833981519152549182841015614a68578361494c8282613c11565b91158015614a5f575b614a57575b61496391613acc565b9261496d84613b80565b9360009160005b8281106149815750505050565b61499361498e8284613c11565b6153e2565b919054600392831b1c8552602060008051602061591a83398151915281526040908187209160018060a01b03946006614a2487865416956102e96001998a8301541695600283015495830154600484015490601c85015497601e8601549960ff601f880154169b85519d8e614a0781613587565b528d0152838c015260608b015260808a0152518094819301613861565b60a085015260c084015260e08301521515610100820152614a45828a613c1e565b52614a508189613c1e565b5001614974565b83915061495a565b50838211614955565b50909150604051614a78816135f5565b600081529190565b90614abc5760036060836139c99451845560208101516001850155604081015160028501550151151591019060ff801983541691151516179055565b634e487b7160e01b600052600060045260246000fd5b614adc8282615193565b600381015492614af26004830194855490613acc565b91821561389057601c8101918254946005861015614bb7575050600501928354809110600014614b6e5750614b57614b6a93614b51835460405192614b36846135bf565b81845286602085015242604085015260006060850152613e21565b90614a80565b614b618154614666565b90558254613c11565b9055565b604051614b7a816135bf565b81815283602082015242604082015260006060820152600160401b82101561353b57614b5182614b6a966001614bb295018155613e21565b614b57565b604051639edd285f60e01b81526001600160a01b03918216600482015291166024820152604490fd5b6014821015613c32570190600090565b602090614c0a9282604051948386809551938492016132ac565b82019081520301902090565b6004600091614c2481613e4a565b614c3060018201613e4a565b614c3c60028201613e4a565b8260038201550155565b91939290614abc576001600160401b03811161353b57614c7081614c6a8454613827565b8461398e565b6000601f8211600114614ca1578190614b6a9394956000926129bc5750508160011b916000199060031b1c19161790565b601f19821694838252602091602081209281905b888210614cee57505083600195969710614cd4575b505050811b019055565b0135600019600384901b60f8161c19169055388080614cca565b80600184968294958701358155019501920190614cb5565b6000546001600160a01b03163303614d1a57565b606460405162461bcd60e51b815260206004820152602060248201527f4f776e61626c653a2063616c6c6572206973206e6f7420746865206f776e65726044820152fd5b600080546001600160a01b039283166001600160a01b03198216811783559216907f8be0079c531659141344cd1fd0a4f28419497f9722a3daafe3b4186f6b6457e09080a3565b90614db08183615193565b90601f82019283549260ff841680614e10575b614dd6575b50505060ff19166001179055565b60030154908115614dc85760405163faa2387760e01b81526001600160a01b03918216600482015292166024830152604482015260649150fd5b506000614dc3565b919091614e25838261525a565b805193614e318561369e565b92604095614e4187519586613610565b808552614e50601f199161369e565b0160005b818110614f2557505090614e6791615193565b6007019060005b8151811015614f1d57614e8b83614e858385613c1e565b51614bf0565b908651614e978161356c565b8751614ea7816102e98187613861565b81526001928851614ebe816102e981888601613861565b60208301528851614ed6816102e98160028601613861565b89830152600460038201549160ff928381161515606086015260081c6080850152015416151560a0820152614f0b8287613c1e565b52614f168186613c1e565b5001614e6e565b509193505050565b602090614f33979597613aef565b82828901015201959395614e54565b90614f4d818361511d565b6000918183526000805160206158ba8339815191526020526040926040812054156151155760008051602061591a8339815191526020969596526040812094600393600387019280845494556004948160048a0155601f890160ff19815416905581601c8a01558199601e8a0199601d8101976008820199600783019d5b8d5481101561501857808f611bd78f918f8f615012946150016102e9936014614ffa60019b61500d9654613c11565b0690614be0565b50905192838092613861565b614bf0565b01614fcb565b50949950949950949990959a508780929755556005830190815491878155826150cc575b5050505084936150c6936144a39693615059600660409501613e4a565b6001600160a01b0391821683527f5dcaaa00d1d3fae8cd5d66aceca789aec54970049ac35cb62a7adefca50a68066020528383206150989086906156bf565b501681527f5dcaaa00d1d3fae8cd5d66aceca789aec54970049ac35cb62a7adefca50a6807602052206156bf565b50615618565b6002906001600160fe1b0384168403611cda578852602088209260021b8301925b8381106150fa575061503c565b808986925589600182015589838201558984820155016150ed565b935050505090565b604080516001600160a01b039283166020820190815293909216828201528152615148606082613610565b51902090565b61515781615238565b6000526000805160206159ba83398151915260205260406000209060008051602061593a83398151915260205260406000205415614273575090565b9061519e818361511d565b60005260008051602061591a8339815191526020526040600020916000805160206158ba833981519152602052604060002054156151db57505090565b60405163023280eb60e21b81526001600160a01b03918216600482015291166024820152604490fd5b90604181511460001461522e576137bc916020820151906060604084015193015160001a90615480565b5050600090600290565b6040516001600160a01b039091166020808301918252825290615148816135da565b615264828261511d565b90600082815260209360008051602061591a83398151915260205260409261528e84842095615899565b156153ba575050601e8301549081156153a5576152aa8261369e565b946152b784519687613610565b828652601f196152c68461369e565b01825b81811061539657505050601490601483106000146153335791936008019190505b8381106152f8575050505090565b806102e961531761530b60019486614be0565b50865192838092613861565b6153218288613c1e565b5261532c8187613c1e565b50016152ea565b601d850154929460080192905b8581106153505750505050505090565b806102e961537a61536e8661536760019688613c11565b0688614be0565b50885192838092613861565b615384828a613c1e565b5261538f8189613c1e565b5001615340565b606088820184015282016152c9565b935050905051906153b5826135f5565b815290565b835163023280eb60e21b81526001600160a01b03918216600482015291166024820152604490fd5b60008051602061595a8339815191528054821015613c32576000527f4cbb24c014227899980bdc7cfd4fffebe1e9fc3b6d3a9169eb5c47467634f41d0190600090565b6000805160206159da8339815191528054821015613c32576000527f77917d6bf58cf8a823bfa7d4ec2e8e69c671d0dfb7928e32bdccd572fc9606e90190600090565b8054821015613c325760005260206000200190600090565b9291907f7fffffffffffffffffffffffffffffff5d576e7357a4501ddfe92f46681b20a083116155035791608094939160ff602094604051948552168484015260408301526060820152600093849182805260015afa156154f65781516001600160a01b038116156154f0579190565b50600190565b50604051903d90823e3d90fd5b50505050600090600390565b60009080825260008051602061593a833981519152908160205260408320548015156000146156125760001990808201908082116155fe576000805160206159da83398151915291825490848201918211611cc6578082036155b4575b505050805480156155a05782019161558383615425565b909182549160031b1b191690555582526020526040812055600190565b634e487b7160e01b86526031600452602486fd5b6155e96155c36155d293615425565b90549060031b1c928392615425565b819391549060031b91821b91600019901b19161790565b9055865284602052604086205538808061556c565b634e487b7160e01b86526011600452602486fd5b50505090565b6000908082526000805160206158ba833981519152908160205260408320548015156000146156125760001990808201908082116155fe5760008051602061595a83398151915291825490848201918211611cc65780820361568c575b505050805480156155a057820191615583836153e2565b6156aa61569b6155d2936153e2565b90549060031b1c9283926153e2565b90558652846020526040862055388080615675565b90600182019060009281845282602052604084205490811515600014615763576000199180830181811161574f57825490848201918211611cc65780820361571a575b505050805480156155a0578201916155838383615468565b61573a61572a6155d29386615468565b90549060031b1c92839286615468565b90558652846020526040862055388080615702565b634e487b7160e01b87526011600452602487fd5b5050505090565b906000918083526000805160206158ba83398151915292836020526040812054156000146157ec5760008051602061595a83398151915293845494600160401b8610156157d857836157c86155d2886001604098999a0185556153e2565b9055549382526020522055600190565b634e487b7160e01b83526041600452602483fd5b925050565b9060009180835260008051602061593a83398151915292836020526040812054156000146157ec576000805160206159da83398151915293845494600160401b8610156157d857836157c86155d2886001604098999a018555615425565b9190600183016000908282528060205260408220541560001461589357845494600160401b8610156157d857836157c86155d2886001604098999a01855584615468565b50925050565b6000526000805160206158ba83398151915260205260406000205415159056fe5dcaaa00d1d3fae8cd5d66aceca789aec54970049ac35cb62a7adefca50a6804526824944047da5b81071fb6349412005c5da81380b336103fbe5dd34556c7765dcaaa00d1d3fae8cd5d66aceca789aec54970049ac35cb62a7adefca50a68005dcaaa00d1d3fae8cd5d66aceca789aec54970049ac35cb62a7adefca50a68055dcaaa00d1d3fae8cd5d66aceca789aec54970049ac35cb62a7adefca50a68095dcaaa00d1d3fae8cd5d66aceca789aec54970049ac35cb62a7adefca50a68035dcaaa00d1d3fae8cd5d66aceca789aec54970049ac35cb62a7adefca50a68015dcaaa00d1d3fae8cd5d66aceca789aec54970049ac35cb62a7adefca50a680b5dcaaa00d1d3fae8cd5d66aceca789aec54970049ac35cb62a7adefca50a680a5dcaaa00d1d3fae8cd5d66aceca789aec54970049ac35cb62a7adefca50a6808a2646970667358221220c7dbf7826ed6466d63c267ab60869ce9b8cdb68a5d72d2b17312f3471d18fdf364736f6c63430008160033",
  "devdoc": {
    "errors": {
      "AlreadyInitialized()": [
        {
          "details": "Emitted when attempting to initialize an already initialized or locked contract."
        }
      ]
    },
    "events": {
      "Initialized(uint8)": {
        "details": "Triggered when the contract has been initialized or reinitialized."
      }
    },
    "kind": "dev",
    "methods": {
      "abandonDeliverable(address,string)": {
        "details": "This marks the deliverable as both acknowledged and settled with zero feeEnables provider to unblock serial task execution without user interactionProvider forfeits all payment rights for the abandoned deliverable",
        "params": {
          "id": "The deliverable ID to abandon",
          "user": "The user address"
        }
      },
      "initialize(uint256,address,address,uint256)": {
        "params": {
          "_ledgerAddress": "The address of the ledger contract",
          "_locktime": "The time period for refund locks",
          "_penaltyPercentage": "The penalty percentage for unacknowledged deliverables",
          "owner": "The owner address"
        }
      },
      "owner()": {
        "details": "Returns the address of the current owner."
      },
      "renounceOwnership()": {
        "details": "Leaves the contract without owner. It will not be possible to call `onlyOwner` functions anymore. Can only be called by the current owner. NOTE: Renouncing ownership will leave the contract without an owner, thereby removing any functionality that is only available to the owner."
      },
      "settleFees((string,bytes,bytes,uint256,bytes,uint256,address))": {
        "details": "CRIT-4 FIX: Added nonReentrant modifier to prevent reentrancy attacksGAS-2: Cache storage variables to save ~100 gas",
        "params": {
          "verifierInput": "The verifier input containing signature and deliverable data"
        }
      },
      "supportsInterface(bytes4)": {
        "details": "See {IERC165-supportsInterface}."
      },
      "transferOwnership(address)": {
        "details": "Transfers ownership of the contract to a new account (`newOwner`). Can only be called by the current owner."
      },
      "updateLockTime(uint256)": {
        "details": "MED-5: This change applies immediately to ALL pending refundsThe new lockTime will be used when processing any refund, regardless of when it was createdOwner should exercise caution as this affects users' expectations for refund timingGAS-8: Skip storage write if value unchanged (~2900 gas saved)",
        "params": {
          "_locktime": "The new lock time (must be between MIN_LOCKTIME and MAX_LOCKTIME)"
        }
      },
      "updatePenaltyPercentage(uint256)": {
        "details": "GAS-8: Skip storage write if value unchanged (~2900 gas saved)",
        "params": {
          "_penaltyPercentage": "The new penalty percentage (0-100)"
        }
      }
    },
    "version": 1
  },
  "userdoc": {
    "kind": "user",
    "methods": {
      "abandonDeliverable(address,string)": {
        "notice": "Allows provider to abandon a deliverable that failed or is no longer needed"
      },
      "initialize(uint256,address,address,uint256)": {
        "notice": "Initializes the contract with locktime and ledger address"
      },
      "settleFees((string,bytes,bytes,uint256,bytes,uint256,address))": {
        "notice": "Settles fees for a completed deliverable with TEE signature verification"
      },
      "updateLockTime(uint256)": {
        "notice": "Updates the lock time for refunds"
      },
      "updatePenaltyPercentage(uint256)": {
        "notice": "Updates the penalty percentage for unacknowledged deliverables"
      }
    },
    "version": 1
  },
  "storageLayout": {
    "storage": [
      {
        "astId": 7,
        "contract": "contracts/fine-tuning/FineTuningServing.sol:FineTuningServing",
        "label": "_owner",
        "offset": 0,
        "slot": "0",
        "type": "t_address"
      },
      {
        "astId": 11200,
        "contract": "contracts/fine-tuning/FineTuningServing.sol:FineTuningServing",
        "label": "initialized",
        "offset": 20,
        "slot": "0",
        "type": "t_bool"
      },
      {
        "astId": 11203,
        "contract": "contracts/fine-tuning/FineTuningServing.sol:FineTuningServing",
        "label": "_initializationLocked",
        "offset": 21,
        "slot": "0",
        "type": "t_bool"
      },
      {
        "astId": 123,
        "contract": "contracts/fine-tuning/FineTuningServing.sol:FineTuningServing",
        "label": "_status",
        "offset": 0,
        "slot": "1",
        "type": "t_uint256"
      }
    ],
    "types": {
      "t_address": {
        "encoding": "inplace",
        "label": "address",
        "numberOfBytes": "20"
      },
      "t_bool": {
        "encoding": "inplace",
        "label": "bool",
        "numberOfBytes": "1"
      },
      "t_uint256": {
        "encoding": "inplace",
        "label": "uint256",
        "numberOfBytes": "32"
      }
    }
  }
}