{
  "address": "0x84bff2fbd2340eb388f2b9ebb929527d216d7ecc",
  "abi": [
    {
      "inputs": [],
      "stateMutability": "nonpayable",
      "type": "constructor"
    },
    {
      "inputs": [
        {
          "internalType": "uint256",
          "name": "length",
          "type": "uint256"
        },
        {
          "internalType": "uint256",
          "name": "max",
          "type": "uint256"
        }
      ],
      "name": "AdditionalInfoTooLong",
      "type": "error"
    },
    {
      "inputs": [],
      "name": "AlreadyInitialized",
      "type": "error"
    },
    {
      "inputs": [],
      "name": "CallFailed",
      "type": "error"
    },
    {
      "inputs": [
        {
          "internalType": "address",
          "name": "caller",
          "type": "address"
        }
      ],
      "name": "CallerNotRegisteredService",
      "type": "error"
    },
    {
      "inputs": [],
      "name": "DirectDepositsDisabled",
      "type": "error"
    },
    {
      "inputs": [
        {
          "internalType": "uint256",
          "name": "available",
          "type": "uint256"
        },
        {
          "internalType": "uint256",
          "name": "required",
          "type": "uint256"
        }
      ],
      "name": "InsufficientAvailableBalance",
      "type": "error"
    },
    {
      "inputs": [
        {
          "internalType": "address",
          "name": "user",
          "type": "address"
        }
      ],
      "name": "InsufficientBalance",
      "type": "error"
    },
    {
      "inputs": [
        {
          "internalType": "address",
          "name": "serviceAddress",
          "type": "address"
        }
      ],
      "name": "InvalidServiceAddress",
      "type": "error"
    },
    {
      "inputs": [
        {
          "internalType": "string",
          "name": "serviceType",
          "type": "string"
        }
      ],
      "name": "InvalidServiceType",
      "type": "error"
    },
    {
      "inputs": [
        {
          "internalType": "address",
          "name": "user",
          "type": "address"
        }
      ],
      "name": "LedgerExists",
      "type": "error"
    },
    {
      "inputs": [],
      "name": "LedgerLocked",
      "type": "error"
    },
    {
      "inputs": [
        {
          "internalType": "address",
          "name": "user",
          "type": "address"
        }
      ],
      "name": "LedgerNotExists",
      "type": "error"
    },
    {
      "inputs": [
        {
          "internalType": "uint256",
          "name": "provided",
          "type": "uint256"
        },
        {
          "internalType": "uint256",
          "name": "required",
          "type": "uint256"
        }
      ],
      "name": "MinimumDepositRequired",
      "type": "error"
    },
    {
      "inputs": [
        {
          "internalType": "uint256",
          "name": "remainingBalance",
          "type": "uint256"
        }
      ],
      "name": "MustWithdrawAllFundsFirst",
      "type": "error"
    },
    {
      "inputs": [
        {
          "internalType": "string",
          "name": "serviceType",
          "type": "string"
        }
      ],
      "name": "NoRecommendedService",
      "type": "error"
    },
    {
      "inputs": [
        {
          "internalType": "address",
          "name": "serviceAddress",
          "type": "address"
        }
      ],
      "name": "ServiceAlreadyRegistered",
      "type": "error"
    },
    {
      "inputs": [
        {
          "internalType": "address",
          "name": "serviceAddress",
          "type": "address"
        }
      ],
      "name": "ServiceMustImplementIServing",
      "type": "error"
    },
    {
      "inputs": [
        {
          "internalType": "string",
          "name": "serviceName",
          "type": "string"
        }
      ],
      "name": "ServiceNameExists",
      "type": "error"
    },
    {
      "inputs": [
        {
          "internalType": "address",
          "name": "serviceAddress",
          "type": "address"
        }
      ],
      "name": "ServiceNotFound",
      "type": "error"
    },
    {
      "inputs": [
        {
          "internalType": "address",
          "name": "serviceAddress",
          "type": "address"
        }
      ],
      "name": "ServiceNotRegistered",
      "type": "error"
    },
    {
      "inputs": [
        {
          "internalType": "uint256",
          "name": "limit",
          "type": "uint256"
        }
      ],
      "name": "ServiceRegistryLimitReached",
      "type": "error"
    },
    {
      "inputs": [],
      "name": "ServiceTypeRequired",
      "type": "error"
    },
    {
      "inputs": [
        {
          "internalType": "uint256",
          "name": "requested",
          "type": "uint256"
        },
        {
          "internalType": "uint256",
          "name": "maximum",
          "type": "uint256"
        }
      ],
      "name": "TooManyProviders",
      "type": "error"
    },
    {
      "inputs": [
        {
          "internalType": "uint256",
          "name": "current",
          "type": "uint256"
        },
        {
          "internalType": "uint256",
          "name": "maximum",
          "type": "uint256"
        }
      ],
      "name": "TooManyProvidersForService",
      "type": "error"
    },
    {
      "inputs": [],
      "name": "TransferFailed",
      "type": "error"
    },
    {
      "inputs": [],
      "name": "VersionRequired",
      "type": "error"
    },
    {
      "inputs": [],
      "name": "ZeroAddressNotAllowed",
      "type": "error"
    },
    {
      "inputs": [],
      "name": "ZeroAmountNotAllowed",
      "type": "error"
    },
    {
      "anonymous": false,
      "inputs": [
        {
          "indexed": true,
          "internalType": "address",
          "name": "user",
          "type": "address"
        },
        {
          "indexed": true,
          "internalType": "address",
          "name": "service",
          "type": "address"
        },
        {
          "indexed": false,
          "internalType": "uint256",
          "name": "amount",
          "type": "uint256"
        }
      ],
      "name": "FundSpent",
      "type": "event"
    },
    {
      "anonymous": false,
      "inputs": [
        {
          "indexed": false,
          "internalType": "uint8",
          "name": "version",
          "type": "uint8"
        }
      ],
      "name": "Initialized",
      "type": "event"
    },
    {
      "anonymous": false,
      "inputs": [
        {
          "indexed": true,
          "internalType": "address",
          "name": "user",
          "type": "address"
        },
        {
          "indexed": false,
          "internalType": "string",
          "name": "additionalInfo",
          "type": "string"
        }
      ],
      "name": "LedgerInfoUpdated",
      "type": "event"
    },
    {
      "anonymous": false,
      "inputs": [
        {
          "indexed": true,
          "internalType": "address",
          "name": "previousOwner",
          "type": "address"
        },
        {
          "indexed": true,
          "internalType": "address",
          "name": "newOwner",
          "type": "address"
        }
      ],
      "name": "OwnershipTransferred",
      "type": "event"
    },
    {
      "anonymous": false,
      "inputs": [
        {
          "indexed": false,
          "internalType": "string",
          "name": "serviceType",
          "type": "string"
        },
        {
          "indexed": false,
          "internalType": "string",
          "name": "version",
          "type": "string"
        },
        {
          "indexed": false,
          "internalType": "address",
          "name": "serviceAddress",
          "type": "address"
        }
      ],
      "name": "RecommendedServiceUpdated",
      "type": "event"
    },
    {
      "anonymous": false,
      "inputs": [
        {
          "indexed": true,
          "internalType": "address",
          "name": "serviceAddress",
          "type": "address"
        },
        {
          "indexed": false,
          "internalType": "string",
          "name": "serviceName",
          "type": "string"
        }
      ],
      "name": "ServiceRegistered",
      "type": "event"
    },
    {
      "inputs": [],
      "name": "MAX_ADDITIONAL_INFO_LENGTH",
      "outputs": [
        {
          "internalType": "uint256",
          "name": "",
          "type": "uint256"
        }
      ],
      "stateMutability": "view",
      "type": "function"
    },
    {
      "inputs": [],
      "name": "MAX_PROVIDERS_PER_BATCH",
      "outputs": [
        {
          "internalType": "uint256",
          "name": "",
          "type": "uint256"
        }
      ],
      "stateMutability": "view",
      "type": "function"
    },
    {
      "inputs": [],
      "name": "MAX_PROVIDERS_PER_USER_PER_SERVICE",
      "outputs": [
        {
          "internalType": "uint256",
          "name": "",
          "type": "uint256"
        }
      ],
      "stateMutability": "view",
      "type": "function"
    },
    {
      "inputs": [],
      "name": "MAX_SERVICES",
      "outputs": [
        {
          "internalType": "uint256",
          "name": "",
          "type": "uint256"
        }
      ],
      "stateMutability": "view",
      "type": "function"
    },
    {
      "inputs": [],
      "name": "MIN_ACCOUNT_BALANCE",
      "outputs": [
        {
          "internalType": "uint256",
          "name": "",
          "type": "uint256"
        }
      ],
      "stateMutability": "view",
      "type": "function"
    },
    {
      "inputs": [],
      "name": "MIN_TRANSFER_AMOUNT",
      "outputs": [
        {
          "internalType": "uint256",
          "name": "",
          "type": "uint256"
        }
      ],
      "stateMutability": "view",
      "type": "function"
    },
    {
      "inputs": [
        {
          "internalType": "string",
          "name": "additionalInfo",
          "type": "string"
        }
      ],
      "name": "addLedger",
      "outputs": [
        {
          "internalType": "uint256",
          "name": "",
          "type": "uint256"
        },
        {
          "internalType": "uint256",
          "name": "",
          "type": "uint256"
        }
      ],
      "stateMutability": "payable",
      "type": "function"
    },
    {
      "inputs": [],
      "name": "deleteLedger",
      "outputs": [],
      "stateMutability": "nonpayable",
      "type": "function"
    },
    {
      "inputs": [],
      "name": "depositFund",
      "outputs": [],
      "stateMutability": "payable",
      "type": "function"
    },
    {
      "inputs": [
        {
          "internalType": "address",
          "name": "recipient",
          "type": "address"
        }
      ],
      "name": "depositFundFor",
      "outputs": [],
      "stateMutability": "payable",
      "type": "function"
    },
    {
      "inputs": [],
      "name": "getAllActiveServices",
      "outputs": [
        {
          "components": [
            {
              "internalType": "address",
              "name": "serviceAddress",
              "type": "address"
            },
            {
              "internalType": "contract IServing",
              "name": "serviceContract",
              "type": "address"
            },
            {
              "internalType": "string",
              "name": "serviceType",
              "type": "string"
            },
            {
              "internalType": "string",
              "name": "version",
              "type": "string"
            },
            {
              "internalType": "string",
              "name": "fullName",
              "type": "string"
            },
            {
              "internalType": "string",
              "name": "description",
              "type": "string"
            },
            {
              "internalType": "bool",
              "name": "isRecommended",
              "type": "bool"
            },
            {
              "internalType": "uint256",
              "name": "registeredAt",
              "type": "uint256"
            }
          ],
          "internalType": "struct ServiceInfo[]",
          "name": "",
          "type": "tuple[]"
        }
      ],
      "stateMutability": "view",
      "type": "function"
    },
    {
      "inputs": [
        {
          "internalType": "uint256",
          "name": "offset",
          "type": "uint256"
        },
        {
          "internalType": "uint256",
          "name": "limit",
          "type": "uint256"
        }
      ],
      "name": "getAllLedgers",
      "outputs": [
        {
          "components": [
            {
              "internalType": "address",
              "name": "user",
              "type": "address"
            },
            {
              "internalType": "uint256",
              "name": "availableBalance",
              "type": "uint256"
            },
            {
              "internalType": "uint256",
              "name": "totalBalance",
              "type": "uint256"
            },
            {
              "internalType": "string",
              "name": "additionalInfo",
              "type": "string"
            }
          ],
          "internalType": "struct Ledger[]",
          "name": "ledgers",
          "type": "tuple[]"
        },
        {
          "internalType": "uint256",
          "name": "total",
          "type": "uint256"
        }
      ],
      "stateMutability": "view",
      "type": "function"
    },
    {
      "inputs": [
        {
          "internalType": "string",
          "name": "serviceType",
          "type": "string"
        }
      ],
      "name": "getAllVersions",
      "outputs": [
        {
          "internalType": "string[]",
          "name": "versions",
          "type": "string[]"
        },
        {
          "internalType": "address[]",
          "name": "addresses",
          "type": "address[]"
        },
        {
          "internalType": "bool[]",
          "name": "isRecommendedFlags",
          "type": "bool[]"
        }
      ],
      "stateMutability": "view",
      "type": "function"
    },
    {
      "inputs": [
        {
          "internalType": "address",
          "name": "user",
          "type": "address"
        }
      ],
      "name": "getLedger",
      "outputs": [
        {
          "components": [
            {
              "internalType": "address",
              "name": "user",
              "type": "address"
            },
            {
              "internalType": "uint256",
              "name": "availableBalance",
              "type": "uint256"
            },
            {
              "internalType": "uint256",
              "name": "totalBalance",
              "type": "uint256"
            },
            {
              "internalType": "string",
              "name": "additionalInfo",
              "type": "string"
            }
          ],
          "internalType": "struct Ledger",
          "name": "",
          "type": "tuple"
        }
      ],
      "stateMutability": "view",
      "type": "function"
    },
    {
      "inputs": [
        {
          "internalType": "address",
          "name": "user",
          "type": "address"
        },
        {
          "internalType": "string",
          "name": "serviceName",
          "type": "string"
        }
      ],
      "name": "getLedgerProviders",
      "outputs": [
        {
          "internalType": "address[]",
          "name": "",
          "type": "address[]"
        }
      ],
      "stateMutability": "view",
      "type": "function"
    },
    {
      "inputs": [
        {
          "internalType": "string",
          "name": "serviceType",
          "type": "string"
        }
      ],
      "name": "getRecommendedService",
      "outputs": [
        {
          "internalType": "string",
          "name": "version",
          "type": "string"
        },
        {
          "internalType": "address",
          "name": "serviceAddress",
          "type": "address"
        }
      ],
      "stateMutability": "view",
      "type": "function"
    },
    {
      "inputs": [
        {
          "internalType": "string",
          "name": "serviceName",
          "type": "string"
        }
      ],
      "name": "getServiceAddressByName",
      "outputs": [
        {
          "internalType": "address",
          "name": "",
          "type": "address"
        }
      ],
      "stateMutability": "view",
      "type": "function"
    },
    {
      "inputs": [
        {
          "internalType": "address",
          "name": "serviceAddress",
          "type": "address"
        }
      ],
      "name": "getServiceInfo",
      "outputs": [
        {
          "components": [
            {
              "internalType": "address",
              "name": "serviceAddress",
              "type": "address"
            },
            {
              "internalType": "contract IServing",
              "name": "serviceContract",
              "type": "address"
            },
            {
              "internalType": "string",
              "name": "serviceType",
              "type": "string"
            },
            {
              "internalType": "string",
              "name": "version",
              "type": "string"
            },
            {
              "internalType": "string",
              "name": "fullName",
              "type": "string"
            },
            {
              "internalType": "string",
              "name": "description",
              "type": "string"
            },
            {
              "internalType": "bool",
              "name": "isRecommended",
              "type": "bool"
            },
            {
              "internalType": "uint256",
              "name": "registeredAt",
              "type": "uint256"
            }
          ],
          "internalType": "struct ServiceInfo",
          "name": "",
          "type": "tuple"
        }
      ],
      "stateMutability": "view",
      "type": "function"
    },
    {
      "inputs": [
        {
          "internalType": "address",
          "name": "owner",
          "type": "address"
        }
      ],
      "name": "initialize",
      "outputs": [],
      "stateMutability": "nonpayable",
      "type": "function"
    },
    {
      "inputs": [],
      "name": "initialized",
      "outputs": [
        {
          "internalType": "bool",
          "name": "",
          "type": "bool"
        }
      ],
      "stateMutability": "view",
      "type": "function"
    },
    {
      "inputs": [
        {
          "internalType": "string",
          "name": "serviceType",
          "type": "string"
        },
        {
          "internalType": "string",
          "name": "version",
          "type": "string"
        }
      ],
      "name": "isRecommendedVersion",
      "outputs": [
        {
          "internalType": "bool",
          "name": "",
          "type": "bool"
        }
      ],
      "stateMutability": "view",
      "type": "function"
    },
    {
      "inputs": [],
      "name": "owner",
      "outputs": [
        {
          "internalType": "address",
          "name": "",
          "type": "address"
        }
      ],
      "stateMutability": "view",
      "type": "function"
    },
    {
      "inputs": [
        {
          "internalType": "uint256",
          "name": "amount",
          "type": "uint256"
        }
      ],
      "name": "refund",
      "outputs": [],
      "stateMutability": "nonpayable",
      "type": "function"
    },
    {
      "inputs": [
        {
          "internalType": "string",
          "name": "serviceType",
          "type": "string"
        },
        {
          "internalType": "string",
          "name": "version",
          "type": "string"
        },
        {
          "internalType": "address",
          "name": "serviceAddress",
          "type": "address"
        },
        {
          "internalType": "string",
          "name": "description",
          "type": "string"
        }
      ],
      "name": "registerService",
      "outputs": [],
      "stateMutability": "nonpayable",
      "type": "function"
    },
    {
      "inputs": [],
      "name": "renounceOwnership",
      "outputs": [],
      "stateMutability": "nonpayable",
      "type": "function"
    },
    {
      "inputs": [
        {
          "internalType": "address[]",
          "name": "providers",
          "type": "address[]"
        },
        {
          "internalType": "string",
          "name": "serviceName",
          "type": "string"
        }
      ],
      "name": "retrieveFund",
      "outputs": [],
      "stateMutability": "nonpayable",
      "type": "function"
    },
    {
      "inputs": [
        {
          "internalType": "string",
          "name": "serviceType",
          "type": "string"
        },
        {
          "internalType": "string",
          "name": "version",
          "type": "string"
        }
      ],
      "name": "setRecommendedService",
      "outputs": [],
      "stateMutability": "nonpayable",
      "type": "function"
    },
    {
      "inputs": [
        {
          "internalType": "address",
          "name": "user",
          "type": "address"
        },
        {
          "internalType": "uint256",
          "name": "amount",
          "type": "uint256"
        }
      ],
      "name": "spendFund",
      "outputs": [],
      "stateMutability": "nonpayable",
      "type": "function"
    },
    {
      "inputs": [
        {
          "internalType": "address",
          "name": "provider",
          "type": "address"
        },
        {
          "internalType": "string",
          "name": "serviceName",
          "type": "string"
        },
        {
          "internalType": "uint256",
          "name": "amount",
          "type": "uint256"
        }
      ],
      "name": "transferFund",
      "outputs": [],
      "stateMutability": "nonpayable",
      "type": "function"
    },
    {
      "inputs": [
        {
          "internalType": "address",
          "name": "newOwner",
          "type": "address"
        }
      ],
      "name": "transferOwnership",
      "outputs": [],
      "stateMutability": "nonpayable",
      "type": "function"
    },
    {
      "inputs": [
        {
          "internalType": "string",
          "name": "additionalInfo",
          "type": "string"
        }
      ],
      "name": "updateAdditionalInfo",
      "outputs": [],
      "stateMutability": "nonpayable",
      "type": "function"
    },
    {
      "stateMutability": "payable",
      "type": "receive"
    }
  ],
  "transactionHash": "0xc4f6fb370315ac81e9d154da822776e43afb733bd9861b53db229b500a92ce13",
  "args": [],
  "numDeployments": 1,
  "solcInputHash": "a742272da9a2a64bbb09f5c6dfee8b8c",
  "bytecode": "0x608080604052346100c15760008054336001600160a01b031982168117808455919260ff9291906001600160a01b038516907f8be0079c531659141344cd1fd0a4f28419497f9722a3daafe3b4186f6b6457e09080a36001805560a81c1615610073575b6040516139119081620000c78239f35b600161ff0160a01b0319163360ff60a81b191617600160a81b1760005560ff81527f7f26b83ff96e1f2b6a682f133852f6798a09c465da95921460cefb384740249890602090a13880610063565b600080fdfe60806040526004361015610023575b361561001957600080fd5b610021612d7a565b005b60003560e01c806307940ea2146102135780630e8641741461020e578063158ef93e146102095780631ef4dc4414610204578063278ecde1146101ff5780632ba43b82146101fa57806331404a19146101f55780633c3dbbc7146101f0578063410b3815146101eb578063715018a6146101e657806373ef900f146101e15780638158c9e5146101dc5780638d0d8cb6146101d75780638da5cb5b146101d25780639449fe17146101cd578063987086f0146101c85780639ade3972146101c3578063a2610565146101be578063ac30b622146101b9578063aef42173146101b4578063b8d5e581146101af578063c4d66de8146101aa578063c5e53f7e146101a5578063d4dca96d146101a0578063dd8a41181461019b578063e032f73214610196578063e374248d14610191578063f2fde38b1461018c578063f585f3ea14610187578063f7cd6af9146101825763ffc22b5f0361000e57611a56565b6119cf565b61187e565b6117f1565b6117d4565b6116ee565b61161a565b611460565b611284565b6111ef565b6111ca565b6110b7565b611046565b611023565b610f56565b610dd8565b610d83565b610d5a565b610c1c565b610a34565b6109d5565b61097a565b6108b8565b610895565b6107eb565b61072b565b610594565b610516565b6104c6565b610404565b610228565b600091031261022357565b600080fd5b346102235760003660031901126102235760206040516101f48152f35b634e487b7160e01b600052604160045260246000fd5b608081019081106001600160401b0382111761027657604052565b610245565b6001600160401b03811161027657604052565b602081019081106001600160401b0382111761027657604052565b606081019081106001600160401b0382111761027657604052565b90601f801991011681019081106001600160401b0382111761027657604052565b6040519061010082018281106001600160401b0382111761027657604052565b6001600160401b03811161027657601f01601f191660200190565b81601f820112156102235780359061033782610305565b9261034560405194856102c4565b8284526020838301011161022357816000926020809301838601378301015290565b602060031982011261022357600435906001600160401b0382116102235761039191600401610320565b90565b60005b8381106103a75750506000910152565b8181015183820152602001610397565b906020916103d081518092818552858086019101610394565b601f01601f1916010190565b906103f46020919493946040845260408401906103b7565b6001600160a01b03909416910152565b346102235761041236610367565b604051602081019061043c602082855161042f8187858a01610394565b81010380845201826102c4565b51902060009081527f0bb5d42557ea6926c17416c5b1c1c29c28d9006d6f713295a2d385f07156ed0460205260409020546001600160a01b03169081156104a55750610492600361048c83611c47565b01611d3e565b6104a1604051928392836103dc565b0390f35b6040516316fab7f360e21b81529081906104c29060048301611c36565b0390fd5b3461022357600036600319011261022357602060ff60005460a01c166040519015158152f35b600435906001600160a01b038216820361022357565b35906001600160a01b038216820361022357565b34610223576080366003190112610223576001600160401b0360043581811161022357610547903690600401610320565b6024358281116102235761055f903690600401610320565b604435906001600160a01b0382168203610223576064359384116102235761058e610021943690600401610320565b92611d5b565b34610223576020366003190112610223576004356105b133612eee565b60009181835260008051602061383c833981519152908160205260409160ff838620541661071a57838552602052818420805460ff191660011790556105f633612f23565b6001810180548381106107035761060d84826121d2565b801515806106f2575b6106cb5750836002889594869594610630879687966121d2565b90550161063e8282546121d2565b80915515610682575b335af1610652612253565b5015610672575061066561066f91611c19565b805460ff19169055565b80f35b516312171d8360e31b8152600490fd5b6106bd6106b861069133612eee565b61069a81613655565b506000526000805160206138bc833981519152602052604060002090565b6121e4565b6106c633612f8e565b610647565b85516315110fb160e21b815260048101919091526729a2241af62c00006024820152604490fd5b506729a2241af62c00008110610616565b845163112fed8b60e31b8152336004820152602490fd5b825163344f180560e11b8152600490fd5b34610223576060366003190112610223576107446104ec565b6024356001600160401b03811161022357610763903690600401610320565b9061076d33612eee565b9160009280845260008051602061383c8339815191528060205260ff6040862054166107c25761066f93610665936107bd9284885260205260408720600160ff19825416179055604435916122df565b611c19565b60405163344f180560e11b8152600490fd5b6001600160401b0381116102765760051b60200190565b34610223576040366003190112610223576001600160401b036004358181116102235736602382011215610223578060040135610827816107d4565b9161083560405193846102c4565b8183526020916024602085019160051b8301019136831161022357602401905b82821061087e576024358587821161022357610878610021923690600401610320565b90612564565b83809161088a84610502565b815201910190610855565b34610223576000366003190112610223576020604051670de0b6b3a76400008152f35b3461022357600080600319360112610977576002600154146109325760026001556108e233612eee565b80825260008051602061383c8339815191528060205260ff6040842054166107c25781835260205260408220805460ff1916600117905561092990610665906107bd612872565b61066f60018055565b60405162461bcd60e51b815260206004820152601f60248201527f5265656e7472616e637947756172643a207265656e7472616e742063616c6c006044820152606490fd5b80fd5b346102235760008060031936011261097757610994612db6565b80546001600160a01b03198116825581906001600160a01b03167f8be0079c531659141344cd1fd0a4f28419497f9722a3daafe3b4186f6b6457e08280a380f35b3461022357600036600319011261022357602060405160328152f35b906040600319830112610223576001600160401b036004358181116102235783610a1d91600401610320565b926024359182116102235761039191600401610320565b3461022357610a42366109f1565b610a4a612db6565b60405191610aa1610a9484610a7b610a75610a686020840187611c02565b602d60f81b815260010190565b86611c02565b0394610a8f601f19968781018352826102c4565b611f73565b546001600160a01b031690565b926001600160a01b03808516918215610bfb5785610b85610bcc947f22cc4700d5c4d3ff57ddfb4bb70d5a0e1bed5c060482e8eeeb8672d4471ad5e2989487610ba495610b066040519182610afa602082018096611c02565b039081018352826102c4565b51902091610b40610a94846000527f0bb5d42557ea6926c17416c5b1c1c29c28d9006d6f713295a2d385f07156ed04602052604060002090565b918216908115159182610bf0575b5050610bd1575b506000527f0bb5d42557ea6926c17416c5b1c1c29c28d9006d6f713295a2d385f07156ed04602052604060002090565b80546001600160a01b0319166001600160a01b03909216919091179055565b610bc06006610bb283611c47565b01805460ff19166001179055565b604051938493846128db565b0390a1005b6006610bdf610bea92611c47565b01805460ff19169055565b38610b55565b141590503880610b4e565b60405163b536580760e01b81526001600160a01b0387166004820152602490fd5b60008060031936011261097757610c3233612eee565b80825260008051602061383c8339815191528060205260ff6040842054166107c25781835260205260408220805460ff191660011790553415610d4857610c7833612eee565b610ca3610c9f8260005260008051602061385c833981519152602052604060002054151590565b1590565b15610cfa576729a2241af62c00003410610cd45761066f916107bd61066592610cca612240565b9034903390613246565b6040516315110fb160e21b81523460048201526729a2241af62c00006024820152604490fd5b61066f916002610d24610665936000526000805160206138bc833981519152602052604060002090565b60018101610d33348254612865565b905501610d41348254612865565b9055611c19565b6040516307a1cab560e11b8152600490fd5b34610223576000366003190112610223576000546040516001600160a01b039091168152602090f35b3461022357600036600319011261022357602060405160148152f35b90608060606103919360018060a01b038151168452602081015160208501526040810151604085015201519181606082015201906103b7565b3461022357604036600319011261022357610df76024356004356129cd565b906040519060408201926040835281518094526060830160608560051b850101926020809101916000905b878210610e36578680878760208301520390f35b909192948380610e52600193605f198b82030186528951610d9f565b970192019201909291610e22565b80516001600160a01b031682529060e080610edd610ecb610eb9610ea76101006020898101516001600160a01b0316908901526040890151908060408a01528801906103b7565b606088015187820360608901526103b7565b608087015186820360808801526103b7565b60a086015185820360a08701526103b7565b60c08086015115159085015293015191015290565b6020808201906020835283518092526040830192602060408460051b8301019501936000915b848310610f285750505050505090565b9091929394958480610f46600193603f198682030187528a51610e60565b9801930193019194939290610f18565b346102235760003660031901126102235760008051602061381c83398151915254610f80816107d4565b90610f8e60405192836102c4565b808252601f19610f9d826107d4565b0160005b81811061100c57505060005b818110610fc257604051806104a18582610ef2565b80610ff0610feb610fe6610fda610fda6001966137d0565b6001600160a01b031690565b611c47565b612acc565b610ffa8286612831565b526110058185612831565b5001610fad565b602090611017612a7b565b82828701015201610fa1565b3461022357602061103c611036366109f1565b90612b5f565b6040519015158152f35b346102235760003660031901126102235760206040516729a2241af62c00008152f35b90815180825260208080930193019160005b828110611089575050505090565b83516001600160a01b03168552938101939281019260010161107b565b906020610391928181520190611069565b34610223576040366003190112610223576110d06104ec565b6024356001600160401b038111610223576001600160a01b03906110fc90610a8f903690600401610320565b541680156111b2576111426111599260018060a01b03166000527f0bb5d42557ea6926c17416c5b1c1c29c28d9006d6f713295a2d385f07156ed0a602052604060002090565b9060018060a01b0316600052602052604060002090565b805461116481612bdf565b9160005b82811061117d57604051806104a186826110a6565b806111ac611193610fda610fda60019587613811565b61119d8388612831565b6001600160a01b039091169052565b01611168565b6024906040519063b536580760e01b82526004820152fd5b346102235760206001600160a01b036111e5610a8f36610367565b5416604051908152f35b34610223576020366003190112610223576112086104ec565b6000549060ff8260a01c168015611277575b6112665760ff60a01b19909116600160a01b17600055611239906131a8565b7f7f26b83ff96e1f2b6a682f133852f6798a09c465da95921460cefb3847402498602060405160018152a1005b60405162dc149f60e41b8152600490fd5b5060ff8260a81c1661121a565b61128d36610367565b61129633612eee565b8060005260008051602061383c833981519152918260205260409260ff84600020541661139f578260005260205282600020600160ff198254161790556729a2241af62c0000341061137a57805161100080821161135d5750506112f933612eee565b9161131e8360005260008051602061385c833981519152602052604060002054151590565b611346576107bd610665926113369434903390613246565b5134815260006020820152604090f35b835163cde58aa160e01b8152336004820152602490fd5b60449250845191631a78290b60e21b835260048301526024820152fd5b82516315110fb160e21b81523460048201526729a2241af62c00006024820152604490fd5b835163344f180560e11b8152600490fd5b909160608201906060835283518092526080830160808360051b850101926020809601916000905b8282106114305750505050906113f49183820385850152611069565b90604081830391015281808451928381520193019160005b82811061141a575050505090565b835115158552938101939281019260010161140c565b90919294878061144f600193607f9b9a9b198c820301865289516103b7565b9701920192019092919695966113d8565b346102235761146e36610367565b60008051602061381c83398151915254600091825b82811061159e575061149483612ca4565b916114a76114a185612bdf565b94612bdf565b91600090815b8381106114c457604051806104a1878a8a846113b0565b6114d3610fda610fda836137d0565b6114dc81611c47565b908888604080516020611521818301836114f98260028c01612c11565b039361150d601f19958681018352826102c4565b51902093519182019282610afa858d611c02565b51902014611536575b505050506001016114ad565b600684611576899561119d8761158f9761157060019c9e61157e9961156060036115949f01611d3e565b61156a8383612831565b52612831565b50612831565b015460ff1690565b611588838a612831565b9015159052565b612c95565b929038888861152a565b60026115b2610fe6610fda610fda856137d0565b016040908151906115f5602091836115cd8482018093612c11565b03936115e1601f19958681018352826102c4565b51902093519182019282610afa8589611c02565b51902014611606575b600101611483565b92611612600191612c95565b9390506115fe565b3461022357604080600319360112610223576116346104ec565b33600090815260008051602061387c83398151915260205282812054909291906001600160a01b0316156116c65761166b81612eee565b9182845260008051602061383c8339815191528060205260ff82862054166116b5578385526020528320805460ff1916600117905561066f91610665916107bd9060243590612cee565b815163344f180560e11b8152600490fd5b8151631b8815cf60e01b8152336004820152602490fd5b906020610391928181520190610e60565b34610223576020366003190112610223576117076104ec565b61170f612a7b565b506001600160a01b0316600090815260008051602061387c833981519152602052604090206104a19060076117426102e5565b82546001600160a01b031681529160018101546001600160a01b0316602084015261176f60028201611d3e565b604084015261178060038201611d3e565b606084015261179160048201611d3e565b60808401526117a260058201611d3e565b60a08401526117c16117b8600683015460ff1690565b151560c0850152565b015460e0820152604051918291826116dd565b346102235760003660031901126102235760206040516110008152f35b346102235760203660031901126102235761180a6104ec565b611812612db6565b6001600160a01b0381161561182a57610021906131a8565b60405162461bcd60e51b815260206004820152602660248201527f4f776e61626c653a206e6577206f776e657220697320746865207a65726f206160448201526564647265737360d01b6064820152608490fd5b6020366003190112610223576118926104ec565b61189b81612eee565b60009181835260008051602061383c8339815191528060205260409060ff82862054166116b557838552602052808420805460ff191660011790556001600160a01b038216156119ae57341561199e576118f482612eee565b9061191c610c9f8360005260008051602061385c833981519152602052604060002054151590565b15611971576729a2241af62c0000341061194d5750916107bd6106659261066f94611945612240565b913491613246565b516315110fb160e21b81523460048201526729a2241af62c00006024820152604490fd5b506106659150916002610d2461066f946000526000805160206138bc833981519152602052604060002090565b516307a1cab560e11b8152600490fd5b516342bcdf7f60e11b8152600490fd5b906020610391928181520190610d9f565b34610223576020366003190112610223576104a16119fc6119ee6104ec565b6119f6612905565b50612f23565b6003611a4560405192611a0e8461025b565b60018060a01b0381541684526001810154602085015260028101546040850152611a3e6040518094819301611ca8565b03826102c4565b6060820152604051918291826119be565b3461022357611a6436610367565b611a6d33612eee565b60009181835260008051602061383c8339815191526020908060205260ff6040862054166107c25783855260205260408420600190600160ff198254161790558251611000808211611be45750506003611ac633612f23565b01918351916001600160401b03831161027657611aed83611ae78654611c6e565b86611fed565b602091601f8411600114611b6d57505091611b2782610665959361066f97958991611b62575b508160011b916000199060031b1c19161790565b90555b7f12d213c9bc59dc8d250f0d6aba2d21e4e500a72a76621a44600697a285833fb160405180611b5a339482611c36565b0390a2611c19565b905084015138611b13565b9190601f19841690611b8486600052602060002090565b9389915b838310611bcd575050509261066f96949260019282610665989610611bb4575b5050811b019055611b2a565b85015160001960f88460031b161c191690553880611ba8565b888501518655948501949381019391810191611b88565b6044925060405191631a78290b60e21b835260048301526024820152fd5b90611c1560209282815194859201610394565b0190565b60005260008051602061383c833981519152602052604060002090565b9060206103919281815201906103b7565b6001600160a01b0316600090815260008051602061387c8339815191526020526040902090565b90600182811c92168015611c9e575b6020831014611c8857565b634e487b7160e01b600052602260045260246000fd5b91607f1691611c7d565b805460009392611cb782611c6e565b91828252602093600191600181169081600014611d1f5750600114611cde575b5050505050565b90939495506000929192528360002092846000945b838610611d0b57505050500101903880808080611cd7565b805485870183015294019385908201611cf3565b60ff19168685015250505090151560051b010191503880808080611cd7565b90611d59611d529260405193848092611ca8565b03836102c4565b565b929091611d66612db6565b6001600160a01b038116938415611f5257805115611f4057835115611f2e57611d94610fda610a9484611c47565b611f0d57604092835194611dc986611dbb611db5610a686020840188611c02565b84611c02565b03601f1981018852876102c4565b611dd8610fda610a9488611f73565b611ef357611de8610c9f85612e0e565b611ed357611df8610c9f85612e91565b611ed3576101f460008051602061381c833981519152541015611eba5792611e98611eb59593611ea1937f4c76643f3c678c590db6e8ad9fe0bb6e75d36cb853c3bd06c487607ff35e6f719896611e4d6102e5565b6001600160a01b0386168152926001600160a01b038c16602085015287840152606083015286608083015260a0820152600060c08201524260e0820152611e9383611c47565b612103565b610b8584611f73565b611eaa85613429565b505191829182611c36565b0390a2565b845163f1d44a5160e01b81526101f46004820152602490fd5b84516316219dbf60e11b81526001600160a01b0385166004820152602490fd5b845163057f36eb60e21b8152806104c28860048301611c36565b6040516353752f3960e11b81526001600160a01b0383166004820152602490fd5b604051630e84c45560e31b8152600490fd5b604051638dfa0f6f60e01b8152600490fd5b6040516364db873d60e11b81526001600160a01b0383166004820152602490fd5b6020611f8c918160405193828580945193849201610394565b81017f0bb5d42557ea6926c17416c5b1c1c29c28d9006d6f713295a2d385f07156ed0181520301902090565b91611fd29183549060031b91821b91600019901b19161790565b9055565b818110611fe1575050565b60008155600101611fd6565b9190601f8111611ffc57505050565b611d59926000526020600020906020601f840160051c83019310612028575b601f0160051c0190611fd6565b909150819061201b565b91909182516001600160401b03811161027657612059816120538454611c6e565b84611fed565b602080601f831160011461209857508190611fd293949560009261208d575b50508160011b916000199060031b1c19161790565b015190503880612078565b90601f198316956120ae85600052602060002090565b926000905b8882106120eb575050836001959697106120d2575b505050811b019055565b015160001960f88460031b161c191690553880806120c8565b806001859682949686015181550195019301906120b3565b815181546001600160a01b0319166001600160a01b039091161781559060079060e09060208101516001850180546001600160a01b0319166001600160a01b0390921691909117905561215d604082015160028601612032565b61216e606082015160038601612032565b61217f608082015160048601612032565b61219060a082015160058601612032565b6121b56121a060c0830151151590565b600686019060ff801983541691151516179055565b0151910155565b634e487b7160e01b600052601160045260246000fd5b919082039182116121df57565b6121bc565b6003600091828155826001820155826002820155016122038154611c6e565b8061220d57505050565b82601f821160011461221e57505055565b909180825261223c601f60208420940160051c840160018501611fd6565b5555565b6040519061224d8261028e565b60008252565b3d1561227e573d9061226482610305565b9161227260405193846102c4565b82523d6000602084013e565b606090565b90816020910312610223575180151581036102235790565b6040513d6000823e3d90fd5b6001600160a01b0391821681529116602082015260606040820181905261039192910190611ca8565b90816020910312610223575190565b916122f5610a946122ef33612f23565b93611f73565b926001600160a01b03808516156125435761230f85611c47565b80546001909101546040805163147500e360e01b81523360048201526001600160a01b038681166024830152919893821696602095909316909116929082908581604481885afa90811561249c57600091612516575b50156124a15750508651631320b9eb60e11b81523360048201526001600160a01b0385166024820152918390839060449082905afa91821561249c576123c46123bd6001946124079360009161246f575b5084613196565b80936121d2565b885163745e87f760e01b868201523360248201526001600160a01b039096166044870152606486019290925290939081608481015b03601f1981018352826102c4565b945b01805483811061244f57918391612425600097958897956121d2565b905583519301915af1612436612253565b501561243f5750565b51633204506f60e01b8152600490fd5b865163adb9e04360e01b8152600481019190915260248101849052604490fd5b61248f9150873d8911612495575b61248781836102c4565b8101906122d0565b386123b6565b503d61247d565b61229b565b949190969250670de0b6b3a764000081106124ef5750865163e50688f960e01b84820152600192916124ea916124e3816123f9600387018533602485016122a7565b973361310f565b612409565b87516315110fb160e21b81526004810191909152670de0b6b3a76400006024820152604490fd5b6125369150863d881161253c575b61252e81836102c4565b810190612283565b38612365565b503d612524565b60405163b536580760e01b81526001600160a01b0386166004820152602490fd5b919061256f33612eee565b9060009082825260008051602061383c8339815191529060208260205260409260ff848620541661139f5785855260205282842091600192600160ff198254161790558751601481116127fb5750610a946125c991611f73565b6001600160a01b039490858116156127d9576125fb60016125ed8693959495611c47565b01546001600160a01b031690565b9861260533612f23565b998497859116925b612631575b505050505050509061066591610d416001611d59959601918254612865565b81518110156127d4576126546126478284612831565b516001600160a01b031690565b875163147500e360e01b8152336004808301919091526001600160a01b039290921660248201528581604481885afa90811561249c5787916127b7575b506126a0575b5085018561260d565b976126ae6126478385612831565b885163271e279160e11b8152338b82019081526001600160a01b039092166020830152606092909183908390819060400103818b8a5af191821561249c576126fe938993612786575b5050612865565b9761270c6126478385612831565b90843b15612782578851636c79158d60e01b8152339181019182526001600160a01b03909216602082015290959493929190859087908190604001038183875af190811561249c5787968792612769575b50919293949550612697565b8061277661277c9261027b565b80610218565b3861275d565b8680fd5b6127a6929350803d106127b0575b61279e81836102c4565b81019061284a565b50509038806126f7565b503d612794565b6127ce9150863d881161253c5761252e81836102c4565b38612691565b612612565b845163b536580760e01b81526001600160a01b03919091166004820152602490fd5b845163414f261960e11b8152600481019190915260146024820152604490fd5b634e487b7160e01b600052603260045260246000fd5b80518210156128455760209160051b010190565b61281b565b90816060910312610223578051916040602083015192015190565b919082018092116121df57565b600261287d33612f23565b0154806128c3575061288e33612f8e565b61289733612eee565b6128a081613655565b506000526000805160206138bc833981519152602052611d5960406000206121e4565b6024906040519063f6ba0ebf60e01b82526004820152fd5b916103f4906128f76040939695966060865260608601906103b7565b9084820360208601526103b7565b604051906129128261025b565b606080836000815260006020820152600060408201520152565b90612936826107d4565b61294360405191826102c4565b8281528092612954601f19916107d4565b019060005b82811061296557505050565b602090612970612905565b82828501015201612959565b906003606060405161298d8161025b565b6129c9819560018060a01b03815416835260018101546020840152600281015460408401526129c26040518096819301611ca8565b03846102c4565b0152565b60008051602061389c83398151915254929183821015612a655780612a60575060325b81018082116121df5781612a0785612a0c93613196565b6121d2565b612a158161292c565b9160005b828110612a27575050509190565b80612a44612a3f612a3a60019486612865565b6131ef565b61297c565b612a4e8287612831565b52612a598186612831565b5001612a19565b6129f0565b5050604051612a738161028e565b600081529190565b6040519061010082018281106001600160401b0382111761027657604052600060e0838281528260208201526060604082015260608082015260606080820152606060a08201528260c08201520152565b906007612ad76102e5565b83546001600160a01b031681529260018101546001600160a01b03166020850152612b0460028201611d3e565b6040850152612b1560038201611d3e565b6060850152612b2660048201611d3e565b6080850152612b3760058201611d3e565b60a0850152612b56612b4d600683015460ff1690565b151560c0860152565b015460e0830152565b6021612bac916040519381612b7e869351809260208087019101610394565b8201602d60f81b6020820152612b9d8251809360208785019101610394565b010360018101845201826102c4565b6001600160a01b0390612bbe90611f73565b54168015612bd9576006612bd360ff92611c47565b01541690565b50600090565b90612be9826107d4565b612bf660405191826102c4565b8281528092612c07601f19916107d4565b0190602036910137565b600092918154612c2081611c6e565b92600191808316908115612c7a5750600114612c3d575b50505050565b9091929394506000526020906020600020906000915b858310612c695750505050019038808080612c37565b805485840152918301918101612c53565b60ff1916845250505081151590910201915038808080612c37565b60001981146121df5760010190565b90612cae826107d4565b612cbb60405191826102c4565b8281528092612ccc601f19916107d4565b019060005b828110612cdd57505050565b806060602080938501015201612cd1565b90612cf882612f23565b600281016001815492015482038281116121df57838110612d5957508282039182116121df575560405190815233916001600160a01b0316907f6f81b9cf4ed9328799879be7651da4420ab1bc260b34ea71f72e9659aa548e6890602090a3565b60405163adb9e04360e01b8152600481019190915260248101849052604490fd5b33600090815260008051602061387c83398151915260205260409020546001600160a01b0316611d5957604051630799a15f60e11b8152600490fd5b6000546001600160a01b03163303612dca57565b606460405162461bcd60e51b815260206004820152602060248201527f4f776e61626c653a2063616c6c6572206973206e6f7420746865206f776e65726044820152fd5b612e1781613375565b9081612e7f575b81612e27575090565b60209150600090604051838101906301ffc9a760e01b808352602482015260248152612e52816102a9565b5191617530fa6000513d82612e73575b5081612e6c575090565b9050151590565b60201115915038612e62565b9050612e8a8161339e565b1590612e1e565b612e9a81613375565b9081612edc575b81612eaa575090565b60209150600090604051838101906301ffc9a760e01b825263160841b160e01b602482015260248152612e52816102a9565b9050612ee78161339e565b1590612ea1565b604051602081019160018060a01b0316825260208152604081018181106001600160401b038211176102765760405251902090565b612f2c81612eee565b908160005260008051602061385c83398151915260205260406000205415612f6c57506000526000805160206138bc833981519152602052604060002090565b604051637d2d536b60e01b81526001600160a01b039091166004820152602490fd5b60008051602061381c8339815191525460005b818110612fad57505050565b612fbc610fda610fda836137d0565b613007612fc882611c47565b6001600160a01b03861660009081527f0bb5d42557ea6926c17416c5b1c1c29c28d9006d6f713295a2d385f07156ed0a60205260409020909290611142565b80549061301382612bdf565b9160005b8181106130f357505081519160006001809501905b84811061304157505050505050600101612fa1565b8154613055906001600160a01b0316610fda565b906130636126478286612831565b823b1561022357604051639721672560e01b81526001600160a01b038c8116600483015291909116602482015287926000908290604490829084905af190816130e0575b506130ca576130c26130bc6126478387612831565b866137bd565b505b0161302c565b6130da6130bc6126478387612831565b506130c4565b806127766130ed9261027b565b386130a7565b80613109611193610fda610fda60019588613811565b01613017565b6001600160a01b0390811660009081527f0bb5d42557ea6926c17416c5b1c1c29c28d9006d6f713295a2d385f07156ed0a60209081526040808320948416835293905291909120919291908154936032851015613176576131739394501690613552565b50565b60405163e949933760e01b81526004810186905260326024820152604490fd5b90808210156131a3575090565b905090565b600080546001600160a01b039283166001600160a01b03198216811783559216907f8be0079c531659141344cd1fd0a4f28419497f9722a3daafe3b4186f6b6457e09080a3565b60008051602061389c83398151915254811015612845577fb41db55c7d24928028896a7eb7f5b05917c002e0088f26af95b1bfac47132b5301546000526000805160206138bc833981519152602052604060002090565b91909392938260005260036020916000805160206138bc83398151915260205261329f6040600020916001958060018501556002840155829060018060a01b03166bffffffffffffffffffffffff60a01b825416179055565b01918551916001600160401b038311610276576132c083611ae78654611c6e565b602091601f84116001146132fe57505090806132f792613173969760009261208d5750508160011b916000199060031b1c19161790565b90556134ca565b96601f9291921984169761331786600052602060002090565b936000915b8a831061335e5750505090839291600194613173989910613345575b505050811b0190556134ca565b015160001960f88460031b161c19169055388080613338565b83850151865594850194938101939181019161331c565b6000602091604051838101906301ffc9a760e01b808352602482015260248152612e52816102a9565b6000602091604051838101906301ffc9a760e01b825263ffffffff60e01b602482015260248152612e52816102a9565b60008051602061389c8339815191528054821015612845576000527fb41db55c7d24928028896a7eb7f5b05917c002e0088f26af95b1bfac47132b530190600090565b80548210156128455760005260206000200190600090565b806000527f0bb5d42557ea6926c17416c5b1c1c29c28d9006d6f713295a2d385f07156ed0380602052604060002054156000146134c35760008051602061381c8339815191528054600160401b81101561027657600181018083558110156128455783907f10f78b23dc0eb204a6d6fa9709ff7d389ae78db91903b42d2351233e11ab5ab801555491600052602052604060002055600190565b5050600090565b8060005260008051602061385c83398151915280602052604060002054156000146134c35760008051602061389c8339815191528054600160401b81101561027657600181018083558110156128455783907fb41db55c7d24928028896a7eb7f5b05917c002e0088f26af95b1bfac47132b5301555491600052602052604060002055600190565b60018101908260005281602052604060002054156000146135bb578054600160401b811015610276576135a661358f826001879401855584613411565b819391549060031b91821b91600019901b19161790565b90555491600052602052604060002055600190565b505050600090565b60008051602061389c83398151915280549081156136155760001982019180831015612845577fb41db55c7d24928028896a7eb7f5b05917c002e0088f26af95b1bfac47132b52600091838352015555565b634e487b7160e01b600052603160045260246000fd5b805490811561361557600019918201916136458383613411565b909182549160031b1b1916905555565b600081815260008051602061385c833981519152602052604090205480156134c35760001991818301918083116121df5760008051602061389c833981519152549384019384116121df5783836136d794600096036136dd575b5050506136ba6135c3565b60005260008051602061385c833981519152602052604060002090565b55600190565b6136ba613705916136fd6136f361370b956133ce565b90549060031b1c90565b9283916133ce565b90611fb8565b553880806136af565b60018101918060005282602052604060002054928315156000146137b45760001992848401908582116121df5780549485019485116121df576000958583613768946136d79803613777575b50505061362b565b90600052602052604060002090565b61379b6137059161378b6137ab9487613411565b90549060031b1c92839187613411565b8590600052602052604060002090565b55388080613760565b50505050600090565b610391916001600160a01b031690613714565b60008051602061381c8339815191528054821015612845576000527f10f78b23dc0eb204a6d6fa9709ff7d389ae78db91903b42d2351233e11ab5ab8015490565b906136f39161341156fe0bb5d42557ea6926c17416c5b1c1c29c28d9006d6f713295a2d385f07156ed020bb5d42557ea6926c17416c5b1c1c29c28d9006d6f713295a2d385f07156ed080bb5d42557ea6926c17416c5b1c1c29c28d9006d6f713295a2d385f07156ed060bb5d42557ea6926c17416c5b1c1c29c28d9006d6f713295a2d385f07156ed000bb5d42557ea6926c17416c5b1c1c29c28d9006d6f713295a2d385f07156ed050bb5d42557ea6926c17416c5b1c1c29c28d9006d6f713295a2d385f07156ed07a264697066735822122006a13cc10148af0d2850a041942e852bdbba2314c8d7bd29b04c91ae9f3871a064736f6c63430008160033",
  "devdoc": {
    "errors": {
      "AlreadyInitialized()": [
        {
          "details": "Emitted when attempting to initialize an already initialized or locked contract."
        }
      ]
    },
    "events": {
      "Initialized(uint8)": {
        "details": "Triggered when the contract has been initialized or reinitialized."
      }
    },
    "kind": "dev",
    "methods": {
      "constructor": {
        "custom:oz-upgrades-unsafe-allow": "constructor"
      },
      "owner()": {
        "details": "Returns the address of the current owner."
      },
      "renounceOwnership()": {
        "details": "Leaves the contract without owner. It will not be possible to call `onlyOwner` functions anymore. Can only be called by the current owner. NOTE: Renouncing ownership will leave the contract without an owner, thereby removing any functionality that is only available to the owner."
      },
      "transferOwnership(address)": {
        "details": "Transfers ownership of the contract to a new account (`newOwner`). Can only be called by the current owner."
      },
      "updateAdditionalInfo(string)": {
        "params": {
          "additionalInfo": "New additional info (max 4KB)"
        }
      }
    },
    "version": 1
  },
  "userdoc": {
    "kind": "user",
    "methods": {
      "updateAdditionalInfo(string)": {
        "notice": "Update additional info for an existing ledger"
      }
    },
    "version": 1
  },
  "storageLayout": {
    "storage": [
      {
        "astId": 7,
        "contract": "contracts/ledger/LedgerManager.sol:LedgerManager",
        "label": "_owner",
        "offset": 0,
        "slot": "0",
        "type": "t_address"
      },
      {
        "astId": 15727,
        "contract": "contracts/ledger/LedgerManager.sol:LedgerManager",
        "label": "initialized",
        "offset": 20,
        "slot": "0",
        "type": "t_bool"
      },
      {
        "astId": 15730,
        "contract": "contracts/ledger/LedgerManager.sol:LedgerManager",
        "label": "_initializationLocked",
        "offset": 21,
        "slot": "0",
        "type": "t_bool"
      },
      {
        "astId": 123,
        "contract": "contracts/ledger/LedgerManager.sol:LedgerManager",
        "label": "_status",
        "offset": 0,
        "slot": "1",
        "type": "t_uint256"
      }
    ],
    "types": {
      "t_address": {
        "encoding": "inplace",
        "label": "address",
        "numberOfBytes": "20"
      },
      "t_bool": {
        "encoding": "inplace",
        "label": "bool",
        "numberOfBytes": "1"
      },
      "t_uint256": {
        "encoding": "inplace",
        "label": "uint256",
        "numberOfBytes": "32"
      }
    }
  }
}